{"contracts/ESIM.sol":{"ESIMManager":{"abi":[{"inputs":[{"internalType":"address","name":"_owner","type":"address"}],"stateMutability":"nonpayable","type":"constructor"},{"anonymous":false,"inputs":[{"indexed":false,"internalType":"uint256","name":"id","type":"uint256"},{"indexed":false,"internalType":"uint256","name":"amount","type":"uint256"}],"name":"DataBalanceToppedUp","type":"event"},{"anonymous":false,"inputs":[{"indexed":false,"internalType":"uint256","name":"id","type":"uint256"},{"indexed":false,"internalType":"string","name":"imsi","type":"string"},{"indexed":false,"internalType":"address","name":"owner","type":"address"}],"name":"ESIMMinted","type":"event"},{"anonymous":false,"inputs":[{"indexed":false,"internalType":"uint256","name":"id","type":"uint256"},{"indexed":false,"internalType":"address","name":"newOwner","type":"address"}],"name":"ESIMTransferred","type":"event"},{"inputs":[{"internalType":"uint256","name":"","type":"uint256"}],"name":"esims","outputs":[{"internalType":"uint256","name":"id","type":"uint256"},{"internalType":"string","name":"imsi","type":"string"},{"internalType":"address","name":"owner","type":"address"},{"internalType":"uint256","name":"dataBalance","type":"uint256"}],"stateMutability":"view","type":"function"},{"inputs":[],"name":"maxDataBalance","outputs":[{"internalType":"uint256","name":"","type":"uint256"}],"stateMutability":"view","type":"function"},{"inputs":[{"internalType":"uint256","name":"_id","type":"uint256"},{"internalType":"string","name":"_imsi","type":"string"}],"name":"mintESIM","outputs":[],"stateMutability":"nonpayable","type":"function"},{"inputs":[],"name":"owner","outputs":[{"internalType":"address","name":"","type":"address"}],"stateMutability":"view","type":"function"},{"inputs":[{"internalType":"uint256","name":"_id","type":"uint256"},{"internalType":"uint256","name":"_amount","type":"uint256"}],"name":"topUp","outputs":[],"stateMutability":"nonpayable","type":"function"},{"inputs":[{"internalType":"uint256","name":"_id","type":"uint256"},{"internalType":"address","name":"_newOwner","type":"address"}],"name":"transferESIM","outputs":[],"stateMutability":"nonpayable","type":"function"}],"evm":{"bytecode":{"linkReferences":{},"object":"6080604052620186a0600155348015601657600080fd5b506040516109983803806109988339810160408190526033916057565b600080546001600160a01b0319166001600160a01b03929092169190911790556085565b600060208284031215606857600080fd5b81516001600160a01b0381168114607e57600080fd5b9392505050565b610904806100946000396000f3fe608060405234801561001057600080fd5b50600436106100625760003560e01c80631f00ae61146100675780638da5cb5b14610093578063a31842dc146100be578063ce2560cf146100d5578063de643a71146100ea578063df7da0ea146100fd575b600080fd5b61007a610075366004610563565b610110565b60405161008a94939291906105c2565b60405180910390f35b6000546100a6906001600160a01b031681565b6040516001600160a01b03909116815260200161008a565b6100c760015481565b60405190815260200161008a565b6100e86100e33660046105f7565b6101cb565b005b6100e86100f8366004610633565b610294565b6100e861010b36600461066b565b610401565b600260205260009081526040902080546001820180549192916101329061072e565b80601f016020809104026020016040519081016040528092919081815260200182805461015e9061072e565b80156101ab5780601f10610180576101008083540402835291602001916101ab565b820191906000526020600020905b81548152906001019060200180831161018e57829003601f168201915b50505050600283015460039093015491926001600160a01b031691905084565b600082815260026020819052604090912001546001600160a01b0316331461022a5760405162461bcd60e51b815260206004820152600d60248201526c2737ba103a34329037bbb732b960991b60448201526064015b60405180910390fd5b60008281526002602081815260409283902090910180546001600160a01b0319166001600160a01b0385169081179091558251858152918201527f04cfc69f2e810091f127fbef4f9b9888f514c95935a3c8088a2c27b080aa009f91015b60405180910390a15050565b60008281526002602052604081205490036102e75760405162461bcd60e51b81526020600482015260136024820152721954d25348191bd95cc81b9bdd08195e1a5cdd606a1b6044820152606401610221565b600081116103375760405162461bcd60e51b815260206004820152601d60248201527f416d6f756e74206d7573742062652067726561746572207468616e20300000006044820152606401610221565b600154600083815260026020526040902060030154610357908390610768565b11156103a55760405162461bcd60e51b815260206004820152601a60248201527f446174612062616c616e63652065786365656473206c696d69740000000000006044820152606401610221565b600082815260026020526040812060030180548392906103c6908490610768565b909155505060408051838152602081018390527fdb9a256683762bd49606875c98e07efb9a71cdced169174a2cd1e6cb54f314d19101610288565b6000546001600160a01b031633146104655760405162461bcd60e51b815260206004820152602160248201527f4f6e6c79206f776e65722063616e2063616c6c20746869732066756e6374696f6044820152603760f91b6064820152608401610221565b600082815260026020526040902054156104b75760405162461bcd60e51b81526020600482015260136024820152726553494d20616c72656164792065786973747360681b6044820152606401610221565b6040805160808101825283815260208082018481523383850152600060608401819052868152600290925292902081518155915190919060018201906104fd90826107de565b506040828101516002830180546001600160a01b0319166001600160a01b03909216919091179055606090920151600390910155517f2deb612532ac4570cce6168d0fe577d994e0bb5bc6669b26de325e19fb79ce65906102889084908490339061089d565b60006020828403121561057557600080fd5b5035919050565b6000815180845260005b818110156105a257602081850181015186830182015201610586565b506000602082860101526020601f19601f83011685010191505092915050565b8481526080602082015260006105db608083018661057c565b6001600160a01b03949094166040830152506060015292915050565b6000806040838503121561060a57600080fd5b8235915060208301356001600160a01b038116811461062857600080fd5b809150509250929050565b6000806040838503121561064657600080fd5b50508035926020909101359150565b634e487b7160e01b600052604160045260246000fd5b6000806040838503121561067e57600080fd5b82359150602083013567ffffffffffffffff81111561069c57600080fd5b8301601f810185136106ad57600080fd5b803567ffffffffffffffff8111156106c7576106c7610655565b604051601f8201601f19908116603f0116810167ffffffffffffffff811182821017156106f6576106f6610655565b60405281815282820160200187101561070e57600080fd5b816020840160208301376000602083830101528093505050509250929050565b600181811c9082168061074257607f821691505b60208210810361076257634e487b7160e01b600052602260045260246000fd5b50919050565b8082018082111561078957634e487b7160e01b600052601160045260246000fd5b92915050565b601f8211156107d957806000526020600020601f840160051c810160208510156107b65750805b601f840160051c820191505b818110156107d657600081556001016107c2565b50505b505050565b815167ffffffffffffffff8111156107f8576107f8610655565b61080c81610806845461072e565b8461078f565b6020601f82116001811461084057600083156108285750848201515b600019600385901b1c1916600184901b1784556107d6565b600084815260208120601f198516915b828110156108705787850151825560209485019460019092019101610850565b508482101561088e5786840151600019600387901b60f8161c191681555b50505050600190811b01905550565b8381526060602082015260006108b6606083018561057c565b905060018060a01b038316604083015294935050505056fea2646970667358221220799bb19b8c19f26ded74d59871fdde0e962db70ded26dc5bb377d8522d13f8b964736f6c634300081c0033","opcodes":"PUSH1 0x80 PUSH1 0x40 MSTORE PUSH3 0x186A0 PUSH1 0x1 SSTORE CALLVALUE DUP1 ISZERO PUSH1 0x16 JUMPI PUSH1 0x0 DUP1 REVERT JUMPDEST POP PUSH1 0x40 MLOAD PUSH2 0x998 CODESIZE SUB DUP1 PUSH2 0x998 DUP4 CODECOPY DUP2 ADD PUSH1 0x40 DUP2 SWAP1 MSTORE PUSH1 0x33 SWAP2 PUSH1 0x57 JUMP JUMPDEST PUSH1 0x0 DUP1 SLOAD PUSH1 0x1 PUSH1 0x1 PUSH1 0xA0 SHL SUB NOT AND PUSH1 0x1 PUSH1 0x1 PUSH1 0xA0 SHL SUB SWAP3 SWAP1 SWAP3 AND SWAP2 SWAP1 SWAP2 OR SWAP1 SSTORE PUSH1 0x85 JUMP JUMPDEST PUSH1 0x0 PUSH1 0x20 DUP3 DUP5 SUB SLT ISZERO PUSH1 0x68 JUMPI PUSH1 0x0 DUP1 REVERT JUMPDEST DUP2 MLOAD PUSH1 0x1 PUSH1 0x1 PUSH1 0xA0 SHL SUB DUP2 AND DUP2 EQ PUSH1 0x7E JUMPI PUSH1 0x0 DUP1 REVERT JUMPDEST SWAP4 SWAP3 POP POP POP JUMP JUMPDEST PUSH2 0x904 DUP1 PUSH2 0x94 PUSH1 0x0 CODECOPY PUSH1 0x0 RETURN INVALID PUSH1 0x80 PUSH1 0x40 MSTORE CALLVALUE DUP1 ISZERO PUSH2 0x10 JUMPI PUSH1 0x0 DUP1 REVERT JUMPDEST POP PUSH1 0x4 CALLDATASIZE LT PUSH2 0x62 JUMPI PUSH1 0x0 CALLDATALOAD PUSH1 0xE0 SHR DUP1 PUSH4 0x1F00AE61 EQ PUSH2 0x67 JUMPI DUP1 PUSH4 0x8DA5CB5B EQ PUSH2 0x93 JUMPI DUP1 PUSH4 0xA31842DC EQ PUSH2 0xBE JUMPI DUP1 PUSH4 0xCE2560CF EQ PUSH2 0xD5 JUMPI DUP1 PUSH4 0xDE643A71 EQ PUSH2 0xEA JUMPI DUP1 PUSH4 0xDF7DA0EA EQ PUSH2 0xFD JUMPI JUMPDEST PUSH1 0x0 DUP1 REVERT JUMPDEST PUSH2 0x7A PUSH2 0x75 CALLDATASIZE PUSH1 0x4 PUSH2 0x563 JUMP JUMPDEST PUSH2 0x110 JUMP JUMPDEST PUSH1 0x40 MLOAD PUSH2 0x8A SWAP5 SWAP4 SWAP3 SWAP2 SWAP1 PUSH2 0x5C2 JUMP JUMPDEST PUSH1 0x40 MLOAD DUP1 SWAP2 SUB SWAP1 RETURN JUMPDEST PUSH1 0x0 SLOAD PUSH2 0xA6 SWAP1 PUSH1 0x1 PUSH1 0x1 PUSH1 0xA0 SHL SUB AND DUP2 JUMP JUMPDEST PUSH1 0x40 MLOAD PUSH1 0x1 PUSH1 0x1 PUSH1 0xA0 SHL SUB SWAP1 SWAP2 AND DUP2 MSTORE PUSH1 0x20 ADD PUSH2 0x8A JUMP JUMPDEST PUSH2 0xC7 PUSH1 0x1 SLOAD DUP2 JUMP JUMPDEST PUSH1 0x40 MLOAD SWAP1 DUP2 MSTORE PUSH1 0x20 ADD PUSH2 0x8A JUMP JUMPDEST PUSH2 0xE8 PUSH2 0xE3 CALLDATASIZE PUSH1 0x4 PUSH2 0x5F7 JUMP JUMPDEST PUSH2 0x1CB JUMP JUMPDEST STOP JUMPDEST PUSH2 0xE8 PUSH2 0xF8 CALLDATASIZE PUSH1 0x4 PUSH2 0x633 JUMP JUMPDEST PUSH2 0x294 JUMP JUMPDEST PUSH2 0xE8 PUSH2 0x10B CALLDATASIZE PUSH1 0x4 PUSH2 0x66B JUMP JUMPDEST PUSH2 0x401 JUMP JUMPDEST PUSH1 0x2 PUSH1 0x20 MSTORE PUSH1 0x0 SWAP1 DUP2 MSTORE PUSH1 0x40 SWAP1 KECCAK256 DUP1 SLOAD PUSH1 0x1 DUP3 ADD DUP1 SLOAD SWAP2 SWAP3 SWAP2 PUSH2 0x132 SWAP1 PUSH2 0x72E JUMP JUMPDEST DUP1 PUSH1 0x1F ADD PUSH1 0x20 DUP1 SWAP2 DIV MUL PUSH1 0x20 ADD PUSH1 0x40 MLOAD SWAP1 DUP2 ADD PUSH1 0x40 MSTORE DUP1 SWAP3 SWAP2 SWAP1 DUP2 DUP2 MSTORE PUSH1 0x20 ADD DUP3 DUP1 SLOAD PUSH2 0x15E SWAP1 PUSH2 0x72E JUMP JUMPDEST DUP1 ISZERO PUSH2 0x1AB JUMPI DUP1 PUSH1 0x1F LT PUSH2 0x180 JUMPI PUSH2 0x100 DUP1 DUP4 SLOAD DIV MUL DUP4 MSTORE SWAP2 PUSH1 0x20 ADD SWAP2 PUSH2 0x1AB JUMP JUMPDEST DUP3 ADD SWAP2 SWAP1 PUSH1 0x0 MSTORE PUSH1 0x20 PUSH1 0x0 KECCAK256 SWAP1 JUMPDEST DUP2 SLOAD DUP2 MSTORE SWAP1 PUSH1 0x1 ADD SWAP1 PUSH1 0x20 ADD DUP1 DUP4 GT PUSH2 0x18E JUMPI DUP3 SWAP1 SUB PUSH1 0x1F AND DUP3 ADD SWAP2 JUMPDEST POP POP POP POP PUSH1 0x2 DUP4 ADD SLOAD PUSH1 0x3 SWAP1 SWAP4 ADD SLOAD SWAP2 SWAP3 PUSH1 0x1 PUSH1 0x1 PUSH1 0xA0 SHL SUB AND SWAP2 SWAP1 POP DUP5 JUMP JUMPDEST PUSH1 0x0 DUP3 DUP2 MSTORE PUSH1 0x2 PUSH1 0x20 DUP2 SWAP1 MSTORE PUSH1 0x40 SWAP1 SWAP2 KECCAK256 ADD SLOAD PUSH1 0x1 PUSH1 0x1 PUSH1 0xA0 SHL SUB AND CALLER EQ PUSH2 0x22A JUMPI PUSH1 0x40 MLOAD PUSH3 0x461BCD PUSH1 0xE5 SHL DUP2 MSTORE PUSH1 0x20 PUSH1 0x4 DUP3 ADD MSTORE PUSH1 0xD PUSH1 0x24 DUP3 ADD MSTORE PUSH13 0x2737BA103A34329037BBB732B9 PUSH1 0x99 SHL PUSH1 0x44 DUP3 ADD MSTORE PUSH1 0x64 ADD JUMPDEST PUSH1 0x40 MLOAD DUP1 SWAP2 SUB SWAP1 REVERT JUMPDEST PUSH1 0x0 DUP3 DUP2 MSTORE PUSH1 0x2 PUSH1 0x20 DUP2 DUP2 MSTORE PUSH1 0x40 SWAP3 DUP4 SWAP1 KECCAK256 SWAP1 SWAP2 ADD DUP1 SLOAD PUSH1 0x1 PUSH1 0x1 PUSH1 0xA0 SHL SUB NOT AND PUSH1 0x1 PUSH1 0x1 PUSH1 0xA0 SHL SUB DUP6 AND SWAP1 DUP2 OR SWAP1 SWAP2 SSTORE DUP3 MLOAD DUP6 DUP2 MSTORE SWAP2 DUP3 ADD MSTORE PUSH32 0x4CFC69F2E810091F127FBEF4F9B9888F514C95935A3C8088A2C27B080AA009F SWAP2 ADD JUMPDEST PUSH1 0x40 MLOAD DUP1 SWAP2 SUB SWAP1 LOG1 POP POP JUMP JUMPDEST PUSH1 0x0 DUP3 DUP2 MSTORE PUSH1 0x2 PUSH1 0x20 MSTORE PUSH1 0x40 DUP2 KECCAK256 SLOAD SWAP1 SUB PUSH2 0x2E7 JUMPI PUSH1 0x40 MLOAD PUSH3 0x461BCD PUSH1 0xE5 SHL DUP2 MSTORE PUSH1 0x20 PUSH1 0x4 DUP3 ADD MSTORE PUSH1 0x13 PUSH1 0x24 DUP3 ADD MSTORE PUSH19 0x1954D25348191BD95CC81B9BDD08195E1A5CDD PUSH1 0x6A SHL PUSH1 0x44 DUP3 ADD MSTORE PUSH1 0x64 ADD PUSH2 0x221 JUMP JUMPDEST PUSH1 0x0 DUP2 GT PUSH2 0x337 JUMPI PUSH1 0x40 MLOAD PUSH3 0x461BCD PUSH1 0xE5 SHL DUP2 MSTORE PUSH1 0x20 PUSH1 0x4 DUP3 ADD MSTORE PUSH1 0x1D PUSH1 0x24 DUP3 ADD MSTORE PUSH32 0x416D6F756E74206D7573742062652067726561746572207468616E2030000000 PUSH1 0x44 DUP3 ADD MSTORE PUSH1 0x64 ADD PUSH2 0x221 JUMP JUMPDEST PUSH1 0x1 SLOAD PUSH1 0x0 DUP4 DUP2 MSTORE PUSH1 0x2 PUSH1 0x20 MSTORE PUSH1 0x40 SWAP1 KECCAK256 PUSH1 0x3 ADD SLOAD PUSH2 0x357 SWAP1 DUP4 SWAP1 PUSH2 0x768 JUMP JUMPDEST GT ISZERO PUSH2 0x3A5 JUMPI PUSH1 0x40 MLOAD PUSH3 0x461BCD PUSH1 0xE5 SHL DUP2 MSTORE PUSH1 0x20 PUSH1 0x4 DUP3 ADD MSTORE PUSH1 0x1A PUSH1 0x24 DUP3 ADD MSTORE PUSH32 0x446174612062616C616E63652065786365656473206C696D6974000000000000 PUSH1 0x44 DUP3 ADD MSTORE PUSH1 0x64 ADD PUSH2 0x221 JUMP JUMPDEST PUSH1 0x0 DUP3 DUP2 MSTORE PUSH1 0x2 PUSH1 0x20 MSTORE PUSH1 0x40 DUP2 KECCAK256 PUSH1 0x3 ADD DUP1 SLOAD DUP4 SWAP3 SWAP1 PUSH2 0x3C6 SWAP1 DUP5 SWAP1 PUSH2 0x768 JUMP JUMPDEST SWAP1 SWAP2 SSTORE POP POP PUSH1 0x40 DUP1 MLOAD DUP4 DUP2 MSTORE PUSH1 0x20 DUP2 ADD DUP4 SWAP1 MSTORE PUSH32 0xDB9A256683762BD49606875C98E07EFB9A71CDCED169174A2CD1E6CB54F314D1 SWAP2 ADD PUSH2 0x288 JUMP JUMPDEST PUSH1 0x0 SLOAD PUSH1 0x1 PUSH1 0x1 PUSH1 0xA0 SHL SUB AND CALLER EQ PUSH2 0x465 JUMPI PUSH1 0x40 MLOAD PUSH3 0x461BCD PUSH1 0xE5 SHL DUP2 MSTORE PUSH1 0x20 PUSH1 0x4 DUP3 ADD MSTORE PUSH1 0x21 PUSH1 0x24 DUP3 ADD MSTORE PUSH32 0x4F6E6C79206F776E65722063616E2063616C6C20746869732066756E6374696F PUSH1 0x44 DUP3 ADD MSTORE PUSH1 0x37 PUSH1 0xF9 SHL PUSH1 0x64 DUP3 ADD MSTORE PUSH1 0x84 ADD PUSH2 0x221 JUMP JUMPDEST PUSH1 0x0 DUP3 DUP2 MSTORE PUSH1 0x2 PUSH1 0x20 MSTORE PUSH1 0x40 SWAP1 KECCAK256 SLOAD ISZERO PUSH2 0x4B7 JUMPI PUSH1 0x40 MLOAD PUSH3 0x461BCD PUSH1 0xE5 SHL DUP2 MSTORE PUSH1 0x20 PUSH1 0x4 DUP3 ADD MSTORE PUSH1 0x13 PUSH1 0x24 DUP3 ADD MSTORE PUSH19 0x6553494D20616C726561647920657869737473 PUSH1 0x68 SHL PUSH1 0x44 DUP3 ADD MSTORE PUSH1 0x64 ADD PUSH2 0x221 JUMP JUMPDEST PUSH1 0x40 DUP1 MLOAD PUSH1 0x80 DUP2 ADD DUP3 MSTORE DUP4 DUP2 MSTORE PUSH1 0x20 DUP1 DUP3 ADD DUP5 DUP2 MSTORE CALLER DUP4 DUP6 ADD MSTORE PUSH1 0x0 PUSH1 0x60 DUP5 ADD DUP2 SWAP1 MSTORE DUP7 DUP2 MSTORE PUSH1 0x2 SWAP1 SWAP3 MSTORE SWAP3 SWAP1 KECCAK256 DUP2 MLOAD DUP2 SSTORE SWAP2 MLOAD SWAP1 SWAP2 SWAP1 PUSH1 0x1 DUP3 ADD SWAP1 PUSH2 0x4FD SWAP1 DUP3 PUSH2 0x7DE JUMP JUMPDEST POP PUSH1 0x40 DUP3 DUP2 ADD MLOAD PUSH1 0x2 DUP4 ADD DUP1 SLOAD PUSH1 0x1 PUSH1 0x1 PUSH1 0xA0 SHL SUB NOT AND PUSH1 0x1 PUSH1 0x1 PUSH1 0xA0 SHL SUB SWAP1 SWAP3 AND SWAP2 SWAP1 SWAP2 OR SWAP1 SSTORE PUSH1 0x60 SWAP1 SWAP3 ADD MLOAD PUSH1 0x3 SWAP1 SWAP2 ADD SSTORE MLOAD PUSH32 0x2DEB612532AC4570CCE6168D0FE577D994E0BB5BC6669B26DE325E19FB79CE65 SWAP1 PUSH2 0x288 SWAP1 DUP5 SWAP1 DUP5 SWAP1 CALLER SWAP1 PUSH2 0x89D JUMP JUMPDEST PUSH1 0x0 PUSH1 0x20 DUP3 DUP5 SUB SLT ISZERO PUSH2 0x575 JUMPI PUSH1 0x0 DUP1 REVERT JUMPDEST POP CALLDATALOAD SWAP2 SWAP1 POP JUMP JUMPDEST PUSH1 0x0 DUP2 MLOAD DUP1 DUP5 MSTORE PUSH1 0x0 JUMPDEST DUP2 DUP2 LT ISZERO PUSH2 0x5A2 JUMPI PUSH1 0x20 DUP2 DUP6 ADD DUP2 ADD MLOAD DUP7 DUP4 ADD DUP3 ADD MSTORE ADD PUSH2 0x586 JUMP JUMPDEST POP PUSH1 0x0 PUSH1 0x20 DUP3 DUP7 ADD ADD MSTORE PUSH1 0x20 PUSH1 0x1F NOT PUSH1 0x1F DUP4 ADD AND DUP6 ADD ADD SWAP2 POP POP SWAP3 SWAP2 POP POP JUMP JUMPDEST DUP5 DUP2 MSTORE PUSH1 0x80 PUSH1 0x20 DUP3 ADD MSTORE PUSH1 0x0 PUSH2 0x5DB PUSH1 0x80 DUP4 ADD DUP7 PUSH2 0x57C JUMP JUMPDEST PUSH1 0x1 PUSH1 0x1 PUSH1 0xA0 SHL SUB SWAP5 SWAP1 SWAP5 AND PUSH1 0x40 DUP4 ADD MSTORE POP PUSH1 0x60 ADD MSTORE SWAP3 SWAP2 POP POP JUMP JUMPDEST PUSH1 0x0 DUP1 PUSH1 0x40 DUP4 DUP6 SUB SLT ISZERO PUSH2 0x60A JUMPI PUSH1 0x0 DUP1 REVERT JUMPDEST DUP3 CALLDATALOAD SWAP2 POP PUSH1 0x20 DUP4 ADD CALLDATALOAD PUSH1 0x1 PUSH1 0x1 PUSH1 0xA0 SHL SUB DUP2 AND DUP2 EQ PUSH2 0x628 JUMPI PUSH1 0x0 DUP1 REVERT JUMPDEST DUP1 SWAP2 POP POP SWAP3 POP SWAP3 SWAP1 POP JUMP JUMPDEST PUSH1 0x0 DUP1 PUSH1 0x40 DUP4 DUP6 SUB SLT ISZERO PUSH2 0x646 JUMPI PUSH1 0x0 DUP1 REVERT JUMPDEST POP POP DUP1 CALLDATALOAD SWAP3 PUSH1 0x20 SWAP1 SWAP2 ADD CALLDATALOAD SWAP2 POP JUMP JUMPDEST PUSH4 0x4E487B71 PUSH1 0xE0 SHL PUSH1 0x0 MSTORE PUSH1 0x41 PUSH1 0x4 MSTORE PUSH1 0x24 PUSH1 0x0 REVERT JUMPDEST PUSH1 0x0 DUP1 PUSH1 0x40 DUP4 DUP6 SUB SLT ISZERO PUSH2 0x67E JUMPI PUSH1 0x0 DUP1 REVERT JUMPDEST DUP3 CALLDATALOAD SWAP2 POP PUSH1 0x20 DUP4 ADD CALLDATALOAD PUSH8 0xFFFFFFFFFFFFFFFF DUP2 GT ISZERO PUSH2 0x69C JUMPI PUSH1 0x0 DUP1 REVERT JUMPDEST DUP4 ADD PUSH1 0x1F DUP2 ADD DUP6 SGT PUSH2 0x6AD JUMPI PUSH1 0x0 DUP1 REVERT JUMPDEST DUP1 CALLDATALOAD PUSH8 0xFFFFFFFFFFFFFFFF DUP2 GT ISZERO PUSH2 0x6C7 JUMPI PUSH2 0x6C7 PUSH2 0x655 JUMP JUMPDEST PUSH1 0x40 MLOAD PUSH1 0x1F DUP3 ADD PUSH1 0x1F NOT SWAP1 DUP2 AND PUSH1 0x3F ADD AND DUP2 ADD PUSH8 0xFFFFFFFFFFFFFFFF DUP2 GT DUP3 DUP3 LT OR ISZERO PUSH2 0x6F6 JUMPI PUSH2 0x6F6 PUSH2 0x655 JUMP JUMPDEST PUSH1 0x40 MSTORE DUP2 DUP2 MSTORE DUP3 DUP3 ADD PUSH1 0x20 ADD DUP8 LT ISZERO PUSH2 0x70E JUMPI PUSH1 0x0 DUP1 REVERT JUMPDEST DUP2 PUSH1 0x20 DUP5 ADD PUSH1 0x20 DUP4 ADD CALLDATACOPY PUSH1 0x0 PUSH1 0x20 DUP4 DUP4 ADD ADD MSTORE DUP1 SWAP4 POP POP POP POP SWAP3 POP SWAP3 SWAP1 POP JUMP JUMPDEST PUSH1 0x1 DUP2 DUP2 SHR SWAP1 DUP3 AND DUP1 PUSH2 0x742 JUMPI PUSH1 0x7F DUP3 AND SWAP2 POP JUMPDEST PUSH1 0x20 DUP3 LT DUP2 SUB PUSH2 0x762 JUMPI PUSH4 0x4E487B71 PUSH1 0xE0 SHL PUSH1 0x0 MSTORE PUSH1 0x22 PUSH1 0x4 MSTORE PUSH1 0x24 PUSH1 0x0 REVERT JUMPDEST POP SWAP2 SWAP1 POP JUMP JUMPDEST DUP1 DUP3 ADD DUP1 DUP3 GT ISZERO PUSH2 0x789 JUMPI PUSH4 0x4E487B71 PUSH1 0xE0 SHL PUSH1 0x0 MSTORE PUSH1 0x11 PUSH1 0x4 MSTORE PUSH1 0x24 PUSH1 0x0 REVERT JUMPDEST SWAP3 SWAP2 POP POP JUMP JUMPDEST PUSH1 0x1F DUP3 GT ISZERO PUSH2 0x7D9 JUMPI DUP1 PUSH1 0x0 MSTORE PUSH1 0x20 PUSH1 0x0 KECCAK256 PUSH1 0x1F DUP5 ADD PUSH1 0x5 SHR DUP2 ADD PUSH1 0x20 DUP6 LT ISZERO PUSH2 0x7B6 JUMPI POP DUP1 JUMPDEST PUSH1 0x1F DUP5 ADD PUSH1 0x5 SHR DUP3 ADD SWAP2 POP JUMPDEST DUP2 DUP2 LT ISZERO PUSH2 0x7D6 JUMPI PUSH1 0x0 DUP2 SSTORE PUSH1 0x1 ADD PUSH2 0x7C2 JUMP JUMPDEST POP POP JUMPDEST POP POP POP JUMP JUMPDEST DUP2 MLOAD PUSH8 0xFFFFFFFFFFFFFFFF DUP2 GT ISZERO PUSH2 0x7F8 JUMPI PUSH2 0x7F8 PUSH2 0x655 JUMP JUMPDEST PUSH2 0x80C DUP2 PUSH2 0x806 DUP5 SLOAD PUSH2 0x72E JUMP JUMPDEST DUP5 PUSH2 0x78F JUMP JUMPDEST PUSH1 0x20 PUSH1 0x1F DUP3 GT PUSH1 0x1 DUP2 EQ PUSH2 0x840 JUMPI PUSH1 0x0 DUP4 ISZERO PUSH2 0x828 JUMPI POP DUP5 DUP3 ADD MLOAD JUMPDEST PUSH1 0x0 NOT PUSH1 0x3 DUP6 SWAP1 SHL SHR NOT AND PUSH1 0x1 DUP5 SWAP1 SHL OR DUP5 SSTORE PUSH2 0x7D6 JUMP JUMPDEST PUSH1 0x0 DUP5 DUP2 MSTORE PUSH1 0x20 DUP2 KECCAK256 PUSH1 0x1F NOT DUP6 AND SWAP2 JUMPDEST DUP3 DUP2 LT ISZERO PUSH2 0x870 JUMPI DUP8 DUP6 ADD MLOAD DUP3 SSTORE PUSH1 0x20 SWAP5 DUP6 ADD SWAP5 PUSH1 0x1 SWAP1 SWAP3 ADD SWAP2 ADD PUSH2 0x850 JUMP JUMPDEST POP DUP5 DUP3 LT ISZERO PUSH2 0x88E JUMPI DUP7 DUP5 ADD MLOAD PUSH1 0x0 NOT PUSH1 0x3 DUP8 SWAP1 SHL PUSH1 0xF8 AND SHR NOT AND DUP2 SSTORE JUMPDEST POP POP POP POP PUSH1 0x1 SWAP1 DUP2 SHL ADD SWAP1 SSTORE POP JUMP JUMPDEST DUP4 DUP2 MSTORE PUSH1 0x60 PUSH1 0x20 DUP3 ADD MSTORE PUSH1 0x0 PUSH2 0x8B6 PUSH1 0x60 DUP4 ADD DUP6 PUSH2 0x57C JUMP JUMPDEST SWAP1 POP PUSH1 0x1 DUP1 PUSH1 0xA0 SHL SUB DUP4 AND PUSH1 0x40 DUP4 ADD MSTORE SWAP5 SWAP4 POP POP POP POP JUMP INVALID LOG2 PUSH5 0x6970667358 0x22 SLT KECCAK256 PUSH26 0x9BB19B8C19F26DED74D59871FDDE0E962DB70DED26DC5BB377D8 MSTORE 0x2D SGT 0xF8 0xB9 PUSH5 0x736F6C6343 STOP ADDMOD SHR STOP CALLER "},"methodIdentifiers":{"esims(uint256)":"1f00ae61","maxDataBalance()":"a31842dc","mintESIM(uint256,string)":"df7da0ea","owner()":"8da5cb5b","topUp(uint256,uint256)":"de643a71","transferESIM(uint256,address)":"ce2560cf"}},"storageLayout":{"storage":[{"astId":3743,"contract":"contracts/ESIM.sol:ESIMManager","label":"owner","offset":0,"slot":"0","type":"t_address"},{"astId":3746,"contract":"contracts/ESIM.sol:ESIMManager","label":"maxDataBalance","offset":0,"slot":"1","type":"t_uint256"},{"astId":3770,"contract":"contracts/ESIM.sol:ESIMManager","label":"esims","offset":0,"slot":"2","type":"t_mapping(t_uint256,t_struct(ESIM)3765_storage)"}],"types":{"t_address":{"encoding":"inplace","label":"address","numberOfBytes":"20"},"t_mapping(t_uint256,t_struct(ESIM)3765_storage)":{"encoding":"mapping","key":"t_uint256","label":"mapping(uint256 => struct ESIMManager.ESIM)","numberOfBytes":"32","value":"t_struct(ESIM)3765_storage"},"t_string_storage":{"encoding":"bytes","label":"string","numberOfBytes":"32"},"t_struct(ESIM)3765_storage":{"encoding":"inplace","label":"struct ESIMManager.ESIM","members":[{"astId":3758,"contract":"contracts/ESIM.sol:ESIMManager","label":"id","offset":0,"slot":"0","type":"t_uint256"},{"astId":3760,"contract":"contracts/ESIM.sol:ESIMManager","label":"imsi","offset":0,"slot":"1","type":"t_string_storage"},{"astId":3762,"contract":"contracts/ESIM.sol:ESIMManager","label":"owner","offset":0,"slot":"2","type":"t_address"},{"astId":3764,"contract":"contracts/ESIM.sol:ESIMManager","label":"dataBalance","offset":0,"slot":"3","type":"t_uint256"}],"numberOfBytes":"128"},"t_uint256":{"encoding":"inplace","label":"uint256","numberOfBytes":"32"}}}}}}