{"contracts/EnhancedDynamicESIMNFT.sol":{"EnhancedDynamicESIMNFT":{"abi":[{"inputs":[],"stateMutability":"nonpayable","type":"constructor"},{"anonymous":false,"inputs":[{"indexed":true,"internalType":"address","name":"owner","type":"address"},{"indexed":true,"internalType":"address","name":"approved","type":"address"},{"indexed":true,"internalType":"uint256","name":"tokenId","type":"uint256"}],"name":"Approval","type":"event"},{"anonymous":false,"inputs":[{"indexed":true,"internalType":"address","name":"owner","type":"address"},{"indexed":true,"internalType":"address","name":"operator","type":"address"},{"indexed":false,"internalType":"bool","name":"approved","type":"bool"}],"name":"ApprovalForAll","type":"event"},{"anonymous":false,"inputs":[{"indexed":true,"internalType":"uint256","name":"tokenId","type":"uint256"},{"indexed":false,"internalType":"uint256","name":"amount","type":"uint256"}],"name":"BandwidthAllocated","type":"event"},{"anonymous":false,"inputs":[{"indexed":true,"internalType":"uint256","name":"tokenId","type":"uint256"},{"indexed":false,"internalType":"uint256","name":"timestamp","type":"uint256"}],"name":"ESIMActivated","type":"event"},{"anonymous":false,"inputs":[{"indexed":true,"internalType":"uint256","name":"tokenId","type":"uint256"},{"indexed":false,"internalType":"uint256","name":"timestamp","type":"uint256"}],"name":"ESIMDeactivated","type":"event"},{"anonymous":false,"inputs":[{"indexed":true,"internalType":"uint256","name":"tokenId","type":"uint256"},{"indexed":true,"internalType":"address","name":"owner","type":"address"},{"indexed":false,"internalType":"uint256","name":"bandwidth","type":"uint256"}],"name":"ESIMMinted","type":"event"},{"anonymous":false,"inputs":[{"indexed":true,"internalType":"uint256","name":"tokenId","type":"uint256"},{"indexed":false,"internalType":"string","name":"newStatus","type":"string"}],"name":"ESIMStatusUpdated","type":"event"},{"anonymous":false,"inputs":[{"indexed":true,"internalType":"address","name":"previousOwner","type":"address"},{"indexed":true,"internalType":"address","name":"newOwner","type":"address"}],"name":"OwnershipTransferred","type":"event"},{"anonymous":false,"inputs":[{"indexed":false,"internalType":"address","name":"account","type":"address"}],"name":"Paused","type":"event"},{"anonymous":false,"inputs":[{"indexed":true,"internalType":"address","name":"from","type":"address"},{"indexed":true,"internalType":"address","name":"to","type":"address"},{"indexed":true,"internalType":"uint256","name":"tokenId","type":"uint256"}],"name":"Transfer","type":"event"},{"anonymous":false,"inputs":[{"indexed":false,"internalType":"address","name":"account","type":"address"}],"name":"Unpaused","type":"event"},{"inputs":[{"internalType":"uint256","name":"tokenId","type":"uint256"}],"name":"activateESIM","outputs":[],"stateMutability":"nonpayable","type":"function"},{"inputs":[{"internalType":"uint256","name":"tokenId","type":"uint256"},{"internalType":"uint256","name":"amount","type":"uint256"}],"name":"allocateBandwidth","outputs":[],"stateMutability":"nonpayable","type":"function"},{"inputs":[{"internalType":"address","name":"to","type":"address"},{"internalType":"uint256","name":"tokenId","type":"uint256"}],"name":"approve","outputs":[],"stateMutability":"nonpayable","type":"function"},{"inputs":[{"internalType":"address","name":"owner","type":"address"}],"name":"balanceOf","outputs":[{"internalType":"uint256","name":"","type":"uint256"}],"stateMutability":"view","type":"function"},{"inputs":[{"internalType":"uint256","name":"tokenId","type":"uint256"}],"name":"deactivateESIM","outputs":[],"stateMutability":"nonpayable","type":"function"},{"inputs":[{"internalType":"uint256","name":"tokenId","type":"uint256"}],"name":"getApproved","outputs":[{"internalType":"address","name":"","type":"address"}],"stateMutability":"view","type":"function"},{"inputs":[{"internalType":"uint256","name":"tokenId","type":"uint256"}],"name":"getESIM","outputs":[{"components":[{"internalType":"uint256","name":"id","type":"uint256"},{"internalType":"address","name":"owner","type":"address"},{"internalType":"string","name":"status","type":"string"},{"internalType":"string","name":"metadata","type":"string"},{"internalType":"uint256","name":"bandwidth","type":"uint256"},{"internalType":"uint256","name":"lastUpdated","type":"uint256"},{"internalType":"bytes32","name":"quantumSignature","type":"bytes32"},{"internalType":"uint256","name":"activationTimestamp","type":"uint256"},{"internalType":"bool","name":"isActive","type":"bool"}],"internalType":"struct EnhancedDynamicESIMNFT.ESIM","name":"","type":"tuple"}],"stateMutability":"view","type":"function"},{"inputs":[{"internalType":"address","name":"owner","type":"address"},{"internalType":"address","name":"operator","type":"address"}],"name":"isApprovedForAll","outputs":[{"internalType":"bool","name":"","type":"bool"}],"stateMutability":"view","type":"function"},{"inputs":[{"internalType":"address","name":"to","type":"address"},{"internalType":"string","name":"metadata","type":"string"},{"internalType":"uint256","name":"initialBandwidth","type":"uint256"},{"internalType":"bytes32","name":"quantumSignature","type":"bytes32"}],"name":"mintESIM","outputs":[{"internalType":"uint256","name":"","type":"uint256"}],"stateMutability":"nonpayable","type":"function"},{"inputs":[],"name":"name","outputs":[{"internalType":"string","name":"","type":"string"}],"stateMutability":"view","type":"function"},{"inputs":[],"name":"owner","outputs":[{"internalType":"address","name":"","type":"address"}],"stateMutability":"view","type":"function"},{"inputs":[{"internalType":"uint256","name":"tokenId","type":"uint256"}],"name":"ownerOf","outputs":[{"internalType":"address","name":"","type":"address"}],"stateMutability":"view","type":"function"},{"inputs":[],"name":"pause","outputs":[],"stateMutability":"nonpayable","type":"function"},{"inputs":[],"name":"paused","outputs":[{"internalType":"bool","name":"","type":"bool"}],"stateMutability":"view","type":"function"},{"inputs":[],"name":"renounceOwnership","outputs":[],"stateMutability":"nonpayable","type":"function"},{"inputs":[{"internalType":"address","name":"from","type":"address"},{"internalType":"address","name":"to","type":"address"},{"internalType":"uint256","name":"tokenId","type":"uint256"}],"name":"safeTransferFrom","outputs":[],"stateMutability":"nonpayable","type":"function"},{"inputs":[{"internalType":"address","name":"from","type":"address"},{"internalType":"address","name":"to","type":"address"},{"internalType":"uint256","name":"tokenId","type":"uint256"},{"internalType":"bytes","name":"data","type":"bytes"}],"name":"safeTransferFrom","outputs":[],"stateMutability":"nonpayable","type":"function"},{"inputs":[{"internalType":"address","name":"operator","type":"address"},{"internalType":"bool","name":"approved","type":"bool"}],"name":"setApprovalForAll","outputs":[],"stateMutability":"nonpayable","type":"function"},{"inputs":[{"internalType":"bytes4","name":"interfaceId","type":"bytes4"}],"name":"supportsInterface","outputs":[{"internalType":"bool","name":"","type":"bool"}],"stateMutability":"view","type":"function"},{"inputs":[],"name":"symbol","outputs":[{"internalType":"string","name":"","type":"string"}],"stateMutability":"view","type":"function"},{"inputs":[{"internalType":"uint256","name":"tokenId","type":"uint256"}],"name":"tokenURI","outputs":[{"internalType":"string","name":"","type":"string"}],"stateMutability":"view","type":"function"},{"inputs":[{"internalType":"address","name":"from","type":"address"},{"internalType":"address","name":"to","type":"address"},{"internalType":"uint256","name":"tokenId","type":"uint256"}],"name":"transferFrom","outputs":[],"stateMutability":"nonpayable","type":"function"},{"inputs":[{"internalType":"address","name":"newOwner","type":"address"}],"name":"transferOwnership","outputs":[],"stateMutability":"nonpayable","type":"function"},{"inputs":[],"name":"unpause","outputs":[],"stateMutability":"nonpayable","type":"function"},{"inputs":[{"internalType":"uint256","name":"tokenId","type":"uint256"},{"internalType":"string","name":"newMetadata","type":"string"}],"name":"updateMetadata","outputs":[],"stateMutability":"nonpayable","type":"function"}],"evm":{"bytecode":{"linkReferences":{},"object":"608060405234801561001057600080fd5b506040518060400160405280600e81526020016d111e5b985b5a58d154d25353919560921b81525060405180604001604052806005815260200164444553494d60d81b81525081600090816100659190610194565b5060016100728282610194565b50505061008b61008661009f60201b60201c565b6100a3565b60016007556008805460ff19169055610252565b3390565b600680546001600160a01b038381166001600160a01b0319831681179093556040519116919082907f8be0079c531659141344cd1fd0a4f28419497f9722a3daafe3b4186f6b6457e090600090a35050565b634e487b7160e01b600052604160045260246000fd5b600181811c9082168061011f57607f821691505b60208210810361013f57634e487b7160e01b600052602260045260246000fd5b50919050565b601f82111561018f57806000526020600020601f840160051c8101602085101561016c5750805b601f840160051c820191505b8181101561018c5760008155600101610178565b50505b505050565b81516001600160401b038111156101ad576101ad6100f5565b6101c1816101bb845461010b565b84610145565b6020601f8211600181146101f557600083156101dd5750848201515b600019600385901b1c1916600184901b17845561018c565b600084815260208120601f198516915b828110156102255787850151825560209485019460019092019101610205565b50848210156102435786840151600019600387901b60f8161c191681555b50505050600190811b01905550565b6123b3806102616000396000f3fe608060405234801561001057600080fd5b50600436106101735760003560e01c806370a08231116100de578063a22cb46511610097578063c87b56dd11610071578063c87b56dd1461031d578063cfb981fa14610330578063e985e9c514610343578063f2fde38b1461035657600080fd5b8063a22cb465146102e4578063b88d4fde146102f7578063bc36d5861461030a57600080fd5b806370a0823114610288578063715018a61461029b5780638456cb59146102a35780638da5cb5b146102ab57806395d89b41146102bc5780639c2dbfd9146102c457600080fd5b80633f4ba83a116101305780633f4ba83a1461022957806342842e0e1461023157806353c8388e146102445780635c975abb146102575780636032abfa146102625780636352211e1461027557600080fd5b806301ffc9a71461017857806306fdde03146101a0578063081812fc146101b5578063095ea7b3146101e057806323b872dd146101f55780633024b59a14610208575b600080fd5b61018b610186366004611c20565b610369565b60405190151581526020015b60405180910390f35b6101a86103bb565b6040516101979190611c8d565b6101c86101c3366004611ca0565b61044d565b6040516001600160a01b039091168152602001610197565b6101f36101ee366004611cd5565b610474565b005b6101f3610203366004611cff565b61058e565b61021b610216366004611dec565b6105bf565b604051908152602001610197565b6101f3610914565b6101f361023f366004611cff565b610926565b6101f3610252366004611e4a565b610941565b60085460ff1661018b565b6101f3610270366004611ca0565b6109e8565b6101c8610283366004611ca0565b610b29565b61021b610296366004611e91565b610b89565b6101f3610c0f565b6101f3610c21565b6006546001600160a01b03166101c8565b6101a8610c31565b6102d76102d2366004611ca0565b610c40565b6040516101979190611eac565b6101f36102f2366004611f4d565b610e5f565b6101f3610305366004611f89565b610e6a565b6101f3610318366004611ca0565b610ea2565b6101a861032b366004611ca0565b610fac565b6101f361033e366004612005565b611020565b61018b610351366004612027565b611159565b6101f3610364366004611e91565b611187565b60006001600160e01b031982166380ac58cd60e01b148061039a57506001600160e01b03198216635b5e139f60e01b145b806103b557506301ffc9a760e01b6001600160e01b03198316145b92915050565b6060600080546103ca9061205a565b80601f01602080910402602001604051908101604052809291908181526020018280546103f69061205a565b80156104435780601f1061041857610100808354040283529160200191610443565b820191906000526020600020905b81548152906001019060200180831161042657829003601f168201915b5050505050905090565b6000610458826111fd565b506000908152600460205260409020546001600160a01b031690565b600061047f82610b29565b9050806001600160a01b0316836001600160a01b0316036104f15760405162461bcd60e51b815260206004820152602160248201527f4552433732313a20617070726f76616c20746f2063757272656e74206f776e656044820152603960f91b60648201526084015b60405180910390fd5b336001600160a01b038216148061050d575061050d8133611159565b61057f5760405162461bcd60e51b815260206004820152603d60248201527f4552433732313a20617070726f76652063616c6c6572206973206e6f7420746f60448201527f6b656e206f776e6572206f7220617070726f76656420666f7220616c6c00000060648201526084016104e8565b610589838361124d565b505050565b61059833826112bb565b6105b45760405162461bcd60e51b81526004016104e890612094565b610589838383611319565b60006105c961148a565b6105d16114e4565b336000908152600c6020526040902054610e10906105ef90426120f7565b10158061060b5750336000908152600b60205260409020546064115b61064d5760405162461bcd60e51b815260206004820152601360248201527214985d19481b1a5b5a5d08195e18d959591959606a1b60448201526064016104e8565b6000828152600d6020526040902054829060ff16156106ae5760405162461bcd60e51b815260206004820152601e60248201527f5175616e74756d207369676e617475726520616c72656164792075736564000060448201526064016104e8565b6000818152600d60205260409020805460ff191660011790556001600160a01b03861661070f5760405162461bcd60e51b815260206004820152600f60248201526e496e76616c6964206164647265737360881b60448201526064016104e8565b620f424084111561075e5760405162461bcd60e51b815260206004820152601960248201527808af0c6cacac8e640dac2f0d2daeada40c4c2dcc8eed2c8e8d603b1b60448201526064016104e8565b61076c600980546001019055565b600061077760095490565b9050610783878261153d565b60408051610120810182528281526001600160a01b03898116602080840191825284518086018652600781526650656e64696e6760c81b81830152848601908152606085018c9052608085018b90524260a086015260c085018a9052600060e086018190526101008601819052878152600a9092529490208351815590516001820180546001600160a01b03191691909316179091559151909190600282019061082d9082612158565b50606082015160038201906108429082612158565b506080820151600482015560a0820151600582015560c0820151600682015560e08201516007820155610100909101516008909101805460ff1916911515919091179055336000908152600b602052604081208054916108a183612217565b9091555050336000908152600c602052604090819020429055516001600160a01b0388169082907f230b3e875a62c594bff4eda93fc8fdf5ec428291651796b51b992fe7536247da906108f79089815260200190565b60405180910390a391505061090c6001600755565b949350505050565b61091c61148a565b610924611557565b565b61058983838360405180602001604052806000815250610e6a565b6109496114e4565b3361095383610b29565b6001600160a01b0316146109995760405162461bcd60e51b815260206004820152600d60248201526c2737ba103a34329037bbb732b960991b60448201526064016104e8565b6109a2826115a9565b6109be5760405162461bcd60e51b81526004016104e890612230565b6000828152600a602052604090206003016109d98282612158565b506109e46001600755565b5050565b6109f06114e4565b6109f861148a565b610a01816115a9565b610a1d5760405162461bcd60e51b81526004016104e890612230565b6000818152600a602052604090206008015460ff1615610a755760405162461bcd60e51b81526020600482015260136024820152724553494d20616c72656164792061637469766560681b60448201526064016104e8565b6000818152600a6020818152604080842060088101805460ff191660011790558151808301909252600682526541637469766560d01b8284015293859052919052600290910190610ac69082612158565b5042600a600083815260200190815260200160002060070181905550807f796d76a3970ad840aba394c5b7afd41a98a2866ff309fbc799fd49e1cde0c0ab42604051610b1491815260200190565b60405180910390a2610b266001600755565b50565b6000818152600260205260408120546001600160a01b0316806103b55760405162461bcd60e51b8152602060048201526018602482015277115490cdcc8c4e881a5b9d985b1a59081d1bdad95b88125160421b60448201526064016104e8565b60006001600160a01b038216610bf35760405162461bcd60e51b815260206004820152602960248201527f4552433732313a2061646472657373207a65726f206973206e6f7420612076616044820152683634b21037bbb732b960b91b60648201526084016104e8565b506001600160a01b031660009081526003602052604090205490565b610c1761148a565b61092460006115c6565b610c2961148a565b610924611618565b6060600180546103ca9061205a565b610c9d6040518061012001604052806000815260200160006001600160a01b031681526020016060815260200160608152602001600081526020016000815260200160008019168152602001600081526020016000151581525090565b610ca6826115a9565b610cc25760405162461bcd60e51b81526004016104e890612230565b6000828152600a60209081526040918290208251610120810184528154815260018201546001600160a01b0316928101929092526002810180549293919291840191610d0d9061205a565b80601f0160208091040260200160405190810160405280929190818152602001828054610d399061205a565b8015610d865780601f10610d5b57610100808354040283529160200191610d86565b820191906000526020600020905b815481529060010190602001808311610d6957829003601f168201915b50505050508152602001600382018054610d9f9061205a565b80601f0160208091040260200160405190810160405280929190818152602001828054610dcb9061205a565b8015610e185780601f10610ded57610100808354040283529160200191610e18565b820191906000526020600020905b815481529060010190602001808311610dfb57829003601f168201915b50505091835250506004820154602082015260058201546040820152600682015460608201526007820154608082015260089091015460ff16151560a09091015292915050565b6109e4338383611655565b610e7433836112bb565b610e905760405162461bcd60e51b81526004016104e890612094565b610e9c84848484611723565b50505050565b610eaa6114e4565b610eb261148a565b610ebb816115a9565b610ed75760405162461bcd60e51b81526004016104e890612230565b6000818152600a602052604090206008015460ff16610f2a5760405162461bcd60e51b815260206004820152600f60248201526e4553494d206e6f742061637469766560881b60448201526064016104e8565b6000818152600a602081815260408084206008808201805460ff191690558251808401909352825267496e61637469766560c01b8284015293859052919052600290910190610f799082612158565b50807ff7080b744efb6b2270f0f4bf35b316b7ca46b1f43e1d182799ae2eeb24848ddb42604051610b1491815260200190565b6060610fb7826111fd565b6000610fce60408051602081019091526000815290565b90506000815111610fee5760405180602001604052806000815250611019565b80610ff884611756565b60405160200161100992919061225d565b6040516020818303038152906040525b9392505050565b6110286114e4565b61103061148a565b611039826115a9565b6110555760405162461bcd60e51b81526004016104e890612230565b6000828152600a602052604090206008015460ff166110a85760405162461bcd60e51b815260206004820152600f60248201526e4553494d206e6f742061637469766560881b60448201526064016104e8565b620f42408111156110f75760405162461bcd60e51b815260206004820152601960248201527808af0c6cacac8e640dac2f0d2daeada40c4c2dcc8eed2c8e8d603b1b60448201526064016104e8565b6000828152600a60205260409081902060048101839055426005909101555182907f105351c8ccacd7f383ac84e1caccba99dddd64c870a7de228b145d974b3040a2906111479084815260200190565b60405180910390a26109e46001600755565b6001600160a01b03918216600090815260056020908152604080832093909416825291909152205460ff1690565b61118f61148a565b6001600160a01b0381166111f45760405162461bcd60e51b815260206004820152602660248201527f4f776e61626c653a206e6577206f776e657220697320746865207a65726f206160448201526564647265737360d01b60648201526084016104e8565b610b26816115c6565b611206816115a9565b610b265760405162461bcd60e51b8152602060048201526018602482015277115490cdcc8c4e881a5b9d985b1a59081d1bdad95b88125160421b60448201526064016104e8565b600081815260046020526040902080546001600160a01b0319166001600160a01b038416908117909155819061128282610b29565b6001600160a01b03167f8c5be1e5ebec7d5bd14f71427d1e84f3dd0314c0f7b2291e5b200ac8c7c3b92560405160405180910390a45050565b6000806112c783610b29565b9050806001600160a01b0316846001600160a01b031614806112ee57506112ee8185611159565b8061090c5750836001600160a01b03166113078461044d565b6001600160a01b031614949350505050565b826001600160a01b031661132c82610b29565b6001600160a01b0316146113525760405162461bcd60e51b81526004016104e89061228c565b6001600160a01b0382166113b45760405162461bcd60e51b8152602060048201526024808201527f4552433732313a207472616e7366657220746f20746865207a65726f206164646044820152637265737360e01b60648201526084016104e8565b6113c183838360016117ea565b826001600160a01b03166113d482610b29565b6001600160a01b0316146113fa5760405162461bcd60e51b81526004016104e89061228c565b600081815260046020908152604080832080546001600160a01b03199081169091556001600160a01b0387811680865260038552838620805460001901905590871680865283862080546001019055868652600290945282852080549092168417909155905184937fddf252ad1be2c89b69c2b068fc378daa952ba7f163c4a11628f55a4df523b3ef91a4505050565b6006546001600160a01b031633146109245760405162461bcd60e51b815260206004820181905260248201527f4f776e61626c653a2063616c6c6572206973206e6f7420746865206f776e657260448201526064016104e8565b6002600754036115365760405162461bcd60e51b815260206004820152601f60248201527f5265656e7472616e637947756172643a207265656e7472616e742063616c6c0060448201526064016104e8565b6002600755565b6109e48282604051806020016040528060008152506117f7565b61155f61182a565b6008805460ff191690557f5db9ee0a495bf2e6ff9c91a7834c1ba4fdd244a5e8aa4e537bd38aeae4b073aa335b6040516001600160a01b03909116815260200160405180910390a1565b6000908152600260205260409020546001600160a01b0316151590565b600680546001600160a01b038381166001600160a01b0319831681179093556040519116919082907f8be0079c531659141344cd1fd0a4f28419497f9722a3daafe3b4186f6b6457e090600090a35050565b611620611873565b6008805460ff191660011790557f62e78cea01bee320cd4e420270b5ea74000d11b0c9f74754ebdbfc544b05a25861158c3390565b816001600160a01b0316836001600160a01b0316036116b65760405162461bcd60e51b815260206004820152601960248201527f4552433732313a20617070726f766520746f2063616c6c65720000000000000060448201526064016104e8565b6001600160a01b03838116600081815260056020908152604080832094871680845294825291829020805460ff191686151590811790915591519182527f17307eab39ab6107e8899845ad3d59bd9653f200f220920489ca2b5937696c31910160405180910390a3505050565b61172e848484611319565b61173a848484846118b9565b610e9c5760405162461bcd60e51b81526004016104e8906122d1565b60606000611763836119b7565b600101905060008167ffffffffffffffff81111561178357611783611d3c565b6040519080825280601f01601f1916602001820160405280156117ad576020820181803683370190505b5090508181016020015b600019016f181899199a1a9b1b9c1cb0b131b232b360811b600a86061a8153600a85049450846117b7575b509392505050565b6117f2611873565b610e9c565b6118018383611a8f565b61180e60008484846118b9565b6105895760405162461bcd60e51b81526004016104e8906122d1565b60085460ff166109245760405162461bcd60e51b815260206004820152601460248201527314185d5cd8589b194e881b9bdd081c185d5cd95960621b60448201526064016104e8565b60085460ff16156109245760405162461bcd60e51b815260206004820152601060248201526f14185d5cd8589b194e881c185d5cd95960821b60448201526064016104e8565b60006001600160a01b0384163b156119af57604051630a85bd0160e11b81526001600160a01b0385169063150b7a02906118fd903390899088908890600401612323565b6020604051808303816000875af1925050508015611938575060408051601f3d908101601f1916820190925261193591810190612360565b60015b611995573d808015611966576040519150601f19603f3d011682016040523d82523d6000602084013e61196b565b606091505b50805160000361198d5760405162461bcd60e51b81526004016104e8906122d1565b805181602001fd5b6001600160e01b031916630a85bd0160e11b14905061090c565b50600161090c565b60008072184f03e93ff9f4daa797ed6e38ed64bf6a1f0160401b83106119f65772184f03e93ff9f4daa797ed6e38ed64bf6a1f0160401b830492506040015b6d04ee2d6d415b85acef81000000008310611a22576d04ee2d6d415b85acef8100000000830492506020015b662386f26fc100008310611a4057662386f26fc10000830492506010015b6305f5e1008310611a58576305f5e100830492506008015b6127108310611a6c57612710830492506004015b60648310611a7e576064830492506002015b600a83106103b55760010192915050565b6001600160a01b038216611ae55760405162461bcd60e51b815260206004820181905260248201527f4552433732313a206d696e7420746f20746865207a65726f206164647265737360448201526064016104e8565b611aee816115a9565b15611b3b5760405162461bcd60e51b815260206004820152601c60248201527f4552433732313a20746f6b656e20616c7265616479206d696e7465640000000060448201526064016104e8565b611b496000838360016117ea565b611b52816115a9565b15611b9f5760405162461bcd60e51b815260206004820152601c60248201527f4552433732313a20746f6b656e20616c7265616479206d696e7465640000000060448201526064016104e8565b6001600160a01b038216600081815260036020908152604080832080546001019055848352600290915280822080546001600160a01b0319168417905551839291907fddf252ad1be2c89b69c2b068fc378daa952ba7f163c4a11628f55a4df523b3ef908290a45050565b6001600160e01b031981168114610b2657600080fd5b600060208284031215611c3257600080fd5b813561101981611c0a565b60005b83811015611c58578181015183820152602001611c40565b50506000910152565b60008151808452611c79816020860160208601611c3d565b601f01601f19169290920160200192915050565b6020815260006110196020830184611c61565b600060208284031215611cb257600080fd5b5035919050565b80356001600160a01b0381168114611cd057600080fd5b919050565b60008060408385031215611ce857600080fd5b611cf183611cb9565b946020939093013593505050565b600080600060608486031215611d1457600080fd5b611d1d84611cb9565b9250611d2b60208501611cb9565b929592945050506040919091013590565b634e487b7160e01b600052604160045260246000fd5b60008067ffffffffffffffff841115611d6d57611d6d611d3c565b50604051601f19601f85018116603f0116810181811067ffffffffffffffff82111715611d9c57611d9c611d3c565b604052838152905080828401851015611db457600080fd5b83836020830137600060208583010152509392505050565b600082601f830112611ddd57600080fd5b61101983833560208501611d52565b60008060008060808587031215611e0257600080fd5b611e0b85611cb9565b9350602085013567ffffffffffffffff811115611e2757600080fd5b611e3387828801611dcc565b949794965050505060408301359260600135919050565b60008060408385031215611e5d57600080fd5b82359150602083013567ffffffffffffffff811115611e7b57600080fd5b611e8785828601611dcc565b9150509250929050565b600060208284031215611ea357600080fd5b61101982611cb9565b602081528151602082015260006020830151611ed360408401826001600160a01b03169052565b5060408301516101206060840152611eef610140840182611c61565b90506060840151601f19848303016080850152611f0c8282611c61565b915050608084015160a084015260a084015160c084015260c084015160e084015260e08401516101008401526101008401516117e261012085018215159052565b60008060408385031215611f6057600080fd5b611f6983611cb9565b915060208301358015158114611f7e57600080fd5b809150509250929050565b60008060008060808587031215611f9f57600080fd5b611fa885611cb9565b9350611fb660208601611cb9565b925060408501359150606085013567ffffffffffffffff811115611fd957600080fd5b8501601f81018713611fea57600080fd5b611ff987823560208401611d52565b91505092959194509250565b6000806040838503121561201857600080fd5b50508035926020909101359150565b6000806040838503121561203a57600080fd5b61204383611cb9565b915061205160208401611cb9565b90509250929050565b600181811c9082168061206e57607f821691505b60208210810361208e57634e487b7160e01b600052602260045260246000fd5b50919050565b6020808252602d908201527f4552433732313a2063616c6c6572206973206e6f7420746f6b656e206f776e6560408201526c1c881bdc88185c1c1c9bdd9959609a1b606082015260800190565b634e487b7160e01b600052601160045260246000fd5b818103818111156103b5576103b56120e1565b601f82111561058957806000526020600020601f840160051c810160208510156121315750805b601f840160051c820191505b81811015612151576000815560010161213d565b5050505050565b815167ffffffffffffffff81111561217257612172611d3c565b61218681612180845461205a565b8461210a565b6020601f8211600181146121ba57600083156121a25750848201515b600019600385901b1c1916600184901b178455612151565b600084815260208120601f198516915b828110156121ea57878501518255602094850194600190920191016121ca565b50848210156122085786840151600019600387901b60f8161c191681555b50505050600190811b01905550565b600060018201612229576122296120e1565b5060010190565b6020808252601390820152721154d25348191bd95cc81b9bdd08195e1a5cdd606a1b604082015260600190565b6000835161226f818460208801611c3d565b835190830190612283818360208801611c3d565b01949350505050565b60208082526025908201527f4552433732313a207472616e736665722066726f6d20696e636f72726563742060408201526437bbb732b960d91b606082015260800190565b60208082526032908201527f4552433732313a207472616e7366657220746f206e6f6e20455243373231526560408201527131b2b4bb32b91034b6b83632b6b2b73a32b960711b606082015260800190565b6001600160a01b038581168252841660208201526040810183905260806060820181905260009061235690830184611c61565b9695505050505050565b60006020828403121561237257600080fd5b815161101981611c0a56fea26469706673582212208f4ac413ace84e02629253fe7c5d1f58ed8ffc41742f22aef367aaab969b18a364736f6c634300081c0033","opcodes":"PUSH1 0x80 PUSH1 0x40 MSTORE CALLVALUE DUP1 ISZERO PUSH2 0x10 JUMPI PUSH1 0x0 DUP1 REVERT JUMPDEST POP PUSH1 0x40 MLOAD DUP1 PUSH1 0x40 ADD PUSH1 0x40 MSTORE DUP1 PUSH1 0xE DUP2 MSTORE PUSH1 0x20 ADD PUSH14 0x111E5B985B5A58D154D253539195 PUSH1 0x92 SHL DUP2 MSTORE POP PUSH1 0x40 MLOAD DUP1 PUSH1 0x40 ADD PUSH1 0x40 MSTORE DUP1 PUSH1 0x5 DUP2 MSTORE PUSH1 0x20 ADD PUSH5 0x444553494D PUSH1 0xD8 SHL DUP2 MSTORE POP DUP2 PUSH1 0x0 SWAP1 DUP2 PUSH2 0x65 SWAP2 SWAP1 PUSH2 0x194 JUMP JUMPDEST POP PUSH1 0x1 PUSH2 0x72 DUP3 DUP3 PUSH2 0x194 JUMP JUMPDEST POP POP POP PUSH2 0x8B PUSH2 0x86 PUSH2 0x9F PUSH1 0x20 SHL PUSH1 0x20 SHR JUMP JUMPDEST PUSH2 0xA3 JUMP JUMPDEST PUSH1 0x1 PUSH1 0x7 SSTORE PUSH1 0x8 DUP1 SLOAD PUSH1 0xFF NOT AND SWAP1 SSTORE PUSH2 0x252 JUMP JUMPDEST CALLER SWAP1 JUMP JUMPDEST PUSH1 0x6 DUP1 SLOAD PUSH1 0x1 PUSH1 0x1 PUSH1 0xA0 SHL SUB DUP4 DUP2 AND PUSH1 0x1 PUSH1 0x1 PUSH1 0xA0 SHL SUB NOT DUP4 AND DUP2 OR SWAP1 SWAP4 SSTORE PUSH1 0x40 MLOAD SWAP2 AND SWAP2 SWAP1 DUP3 SWAP1 PUSH32 0x8BE0079C531659141344CD1FD0A4F28419497F9722A3DAAFE3B4186F6B6457E0 SWAP1 PUSH1 0x0 SWAP1 LOG3 POP POP JUMP JUMPDEST PUSH4 0x4E487B71 PUSH1 0xE0 SHL PUSH1 0x0 MSTORE PUSH1 0x41 PUSH1 0x4 MSTORE PUSH1 0x24 PUSH1 0x0 REVERT JUMPDEST PUSH1 0x1 DUP2 DUP2 SHR SWAP1 DUP3 AND DUP1 PUSH2 0x11F JUMPI PUSH1 0x7F DUP3 AND SWAP2 POP JUMPDEST PUSH1 0x20 DUP3 LT DUP2 SUB PUSH2 0x13F JUMPI PUSH4 0x4E487B71 PUSH1 0xE0 SHL PUSH1 0x0 MSTORE PUSH1 0x22 PUSH1 0x4 MSTORE PUSH1 0x24 PUSH1 0x0 REVERT JUMPDEST POP SWAP2 SWAP1 POP JUMP JUMPDEST PUSH1 0x1F DUP3 GT ISZERO PUSH2 0x18F JUMPI DUP1 PUSH1 0x0 MSTORE PUSH1 0x20 PUSH1 0x0 KECCAK256 PUSH1 0x1F DUP5 ADD PUSH1 0x5 SHR DUP2 ADD PUSH1 0x20 DUP6 LT ISZERO PUSH2 0x16C JUMPI POP DUP1 JUMPDEST PUSH1 0x1F DUP5 ADD PUSH1 0x5 SHR DUP3 ADD SWAP2 POP JUMPDEST DUP2 DUP2 LT ISZERO PUSH2 0x18C JUMPI PUSH1 0x0 DUP2 SSTORE PUSH1 0x1 ADD PUSH2 0x178 JUMP JUMPDEST POP POP JUMPDEST POP POP POP JUMP JUMPDEST DUP2 MLOAD PUSH1 0x1 PUSH1 0x1 PUSH1 0x40 SHL SUB DUP2 GT ISZERO PUSH2 0x1AD JUMPI PUSH2 0x1AD PUSH2 0xF5 JUMP JUMPDEST PUSH2 0x1C1 DUP2 PUSH2 0x1BB DUP5 SLOAD PUSH2 0x10B JUMP JUMPDEST DUP5 PUSH2 0x145 JUMP JUMPDEST PUSH1 0x20 PUSH1 0x1F DUP3 GT PUSH1 0x1 DUP2 EQ PUSH2 0x1F5 JUMPI PUSH1 0x0 DUP4 ISZERO PUSH2 0x1DD JUMPI POP DUP5 DUP3 ADD MLOAD JUMPDEST PUSH1 0x0 NOT PUSH1 0x3 DUP6 SWAP1 SHL SHR NOT AND PUSH1 0x1 DUP5 SWAP1 SHL OR DUP5 SSTORE PUSH2 0x18C JUMP JUMPDEST PUSH1 0x0 DUP5 DUP2 MSTORE PUSH1 0x20 DUP2 KECCAK256 PUSH1 0x1F NOT DUP6 AND SWAP2 JUMPDEST DUP3 DUP2 LT ISZERO PUSH2 0x225 JUMPI DUP8 DUP6 ADD MLOAD DUP3 SSTORE PUSH1 0x20 SWAP5 DUP6 ADD SWAP5 PUSH1 0x1 SWAP1 SWAP3 ADD SWAP2 ADD PUSH2 0x205 JUMP JUMPDEST POP DUP5 DUP3 LT ISZERO PUSH2 0x243 JUMPI DUP7 DUP5 ADD MLOAD PUSH1 0x0 NOT PUSH1 0x3 DUP8 SWAP1 SHL PUSH1 0xF8 AND SHR NOT AND DUP2 SSTORE JUMPDEST POP POP POP POP PUSH1 0x1 SWAP1 DUP2 SHL ADD SWAP1 SSTORE POP JUMP JUMPDEST PUSH2 0x23B3 DUP1 PUSH2 0x261 PUSH1 0x0 CODECOPY PUSH1 0x0 RETURN INVALID PUSH1 0x80 PUSH1 0x40 MSTORE CALLVALUE DUP1 ISZERO PUSH2 0x10 JUMPI PUSH1 0x0 DUP1 REVERT JUMPDEST POP PUSH1 0x4 CALLDATASIZE LT PUSH2 0x173 JUMPI PUSH1 0x0 CALLDATALOAD PUSH1 0xE0 SHR DUP1 PUSH4 0x70A08231 GT PUSH2 0xDE JUMPI DUP1 PUSH4 0xA22CB465 GT PUSH2 0x97 JUMPI DUP1 PUSH4 0xC87B56DD GT PUSH2 0x71 JUMPI DUP1 PUSH4 0xC87B56DD EQ PUSH2 0x31D JUMPI DUP1 PUSH4 0xCFB981FA EQ PUSH2 0x330 JUMPI DUP1 PUSH4 0xE985E9C5 EQ PUSH2 0x343 JUMPI DUP1 PUSH4 0xF2FDE38B EQ PUSH2 0x356 JUMPI PUSH1 0x0 DUP1 REVERT JUMPDEST DUP1 PUSH4 0xA22CB465 EQ PUSH2 0x2E4 JUMPI DUP1 PUSH4 0xB88D4FDE EQ PUSH2 0x2F7 JUMPI DUP1 PUSH4 0xBC36D586 EQ PUSH2 0x30A JUMPI PUSH1 0x0 DUP1 REVERT JUMPDEST DUP1 PUSH4 0x70A08231 EQ PUSH2 0x288 JUMPI DUP1 PUSH4 0x715018A6 EQ PUSH2 0x29B JUMPI DUP1 PUSH4 0x8456CB59 EQ PUSH2 0x2A3 JUMPI DUP1 PUSH4 0x8DA5CB5B EQ PUSH2 0x2AB JUMPI DUP1 PUSH4 0x95D89B41 EQ PUSH2 0x2BC JUMPI DUP1 PUSH4 0x9C2DBFD9 EQ PUSH2 0x2C4 JUMPI PUSH1 0x0 DUP1 REVERT JUMPDEST DUP1 PUSH4 0x3F4BA83A GT PUSH2 0x130 JUMPI DUP1 PUSH4 0x3F4BA83A EQ PUSH2 0x229 JUMPI DUP1 PUSH4 0x42842E0E EQ PUSH2 0x231 JUMPI DUP1 PUSH4 0x53C8388E EQ PUSH2 0x244 JUMPI DUP1 PUSH4 0x5C975ABB EQ PUSH2 0x257 JUMPI DUP1 PUSH4 0x6032ABFA EQ PUSH2 0x262 JUMPI DUP1 PUSH4 0x6352211E EQ PUSH2 0x275 JUMPI PUSH1 0x0 DUP1 REVERT JUMPDEST DUP1 PUSH4 0x1FFC9A7 EQ PUSH2 0x178 JUMPI DUP1 PUSH4 0x6FDDE03 EQ PUSH2 0x1A0 JUMPI DUP1 PUSH4 0x81812FC EQ PUSH2 0x1B5 JUMPI DUP1 PUSH4 0x95EA7B3 EQ PUSH2 0x1E0 JUMPI DUP1 PUSH4 0x23B872DD EQ PUSH2 0x1F5 JUMPI DUP1 PUSH4 0x3024B59A EQ PUSH2 0x208 JUMPI JUMPDEST PUSH1 0x0 DUP1 REVERT JUMPDEST PUSH2 0x18B PUSH2 0x186 CALLDATASIZE PUSH1 0x4 PUSH2 0x1C20 JUMP JUMPDEST PUSH2 0x369 JUMP JUMPDEST PUSH1 0x40 MLOAD SWAP1 ISZERO ISZERO DUP2 MSTORE PUSH1 0x20 ADD JUMPDEST PUSH1 0x40 MLOAD DUP1 SWAP2 SUB SWAP1 RETURN JUMPDEST PUSH2 0x1A8 PUSH2 0x3BB JUMP JUMPDEST PUSH1 0x40 MLOAD PUSH2 0x197 SWAP2 SWAP1 PUSH2 0x1C8D JUMP JUMPDEST PUSH2 0x1C8 PUSH2 0x1C3 CALLDATASIZE PUSH1 0x4 PUSH2 0x1CA0 JUMP JUMPDEST PUSH2 0x44D JUMP JUMPDEST PUSH1 0x40 MLOAD PUSH1 0x1 PUSH1 0x1 PUSH1 0xA0 SHL SUB SWAP1 SWAP2 AND DUP2 MSTORE PUSH1 0x20 ADD PUSH2 0x197 JUMP JUMPDEST PUSH2 0x1F3 PUSH2 0x1EE CALLDATASIZE PUSH1 0x4 PUSH2 0x1CD5 JUMP JUMPDEST PUSH2 0x474 JUMP JUMPDEST STOP JUMPDEST PUSH2 0x1F3 PUSH2 0x203 CALLDATASIZE PUSH1 0x4 PUSH2 0x1CFF JUMP JUMPDEST PUSH2 0x58E JUMP JUMPDEST PUSH2 0x21B PUSH2 0x216 CALLDATASIZE PUSH1 0x4 PUSH2 0x1DEC JUMP JUMPDEST PUSH2 0x5BF JUMP JUMPDEST PUSH1 0x40 MLOAD SWAP1 DUP2 MSTORE PUSH1 0x20 ADD PUSH2 0x197 JUMP JUMPDEST PUSH2 0x1F3 PUSH2 0x914 JUMP JUMPDEST PUSH2 0x1F3 PUSH2 0x23F CALLDATASIZE PUSH1 0x4 PUSH2 0x1CFF JUMP JUMPDEST PUSH2 0x926 JUMP JUMPDEST PUSH2 0x1F3 PUSH2 0x252 CALLDATASIZE PUSH1 0x4 PUSH2 0x1E4A JUMP JUMPDEST PUSH2 0x941 JUMP JUMPDEST PUSH1 0x8 SLOAD PUSH1 0xFF AND PUSH2 0x18B JUMP JUMPDEST PUSH2 0x1F3 PUSH2 0x270 CALLDATASIZE PUSH1 0x4 PUSH2 0x1CA0 JUMP JUMPDEST PUSH2 0x9E8 JUMP JUMPDEST PUSH2 0x1C8 PUSH2 0x283 CALLDATASIZE PUSH1 0x4 PUSH2 0x1CA0 JUMP JUMPDEST PUSH2 0xB29 JUMP JUMPDEST PUSH2 0x21B PUSH2 0x296 CALLDATASIZE PUSH1 0x4 PUSH2 0x1E91 JUMP JUMPDEST PUSH2 0xB89 JUMP JUMPDEST PUSH2 0x1F3 PUSH2 0xC0F JUMP JUMPDEST PUSH2 0x1F3 PUSH2 0xC21 JUMP JUMPDEST PUSH1 0x6 SLOAD PUSH1 0x1 PUSH1 0x1 PUSH1 0xA0 SHL SUB AND PUSH2 0x1C8 JUMP JUMPDEST PUSH2 0x1A8 PUSH2 0xC31 JUMP JUMPDEST PUSH2 0x2D7 PUSH2 0x2D2 CALLDATASIZE PUSH1 0x4 PUSH2 0x1CA0 JUMP JUMPDEST PUSH2 0xC40 JUMP JUMPDEST PUSH1 0x40 MLOAD PUSH2 0x197 SWAP2 SWAP1 PUSH2 0x1EAC JUMP JUMPDEST PUSH2 0x1F3 PUSH2 0x2F2 CALLDATASIZE PUSH1 0x4 PUSH2 0x1F4D JUMP JUMPDEST PUSH2 0xE5F JUMP JUMPDEST PUSH2 0x1F3 PUSH2 0x305 CALLDATASIZE PUSH1 0x4 PUSH2 0x1F89 JUMP JUMPDEST PUSH2 0xE6A JUMP JUMPDEST PUSH2 0x1F3 PUSH2 0x318 CALLDATASIZE PUSH1 0x4 PUSH2 0x1CA0 JUMP JUMPDEST PUSH2 0xEA2 JUMP JUMPDEST PUSH2 0x1A8 PUSH2 0x32B CALLDATASIZE PUSH1 0x4 PUSH2 0x1CA0 JUMP JUMPDEST PUSH2 0xFAC JUMP JUMPDEST PUSH2 0x1F3 PUSH2 0x33E CALLDATASIZE PUSH1 0x4 PUSH2 0x2005 JUMP JUMPDEST PUSH2 0x1020 JUMP JUMPDEST PUSH2 0x18B PUSH2 0x351 CALLDATASIZE PUSH1 0x4 PUSH2 0x2027 JUMP JUMPDEST PUSH2 0x1159 JUMP JUMPDEST PUSH2 0x1F3 PUSH2 0x364 CALLDATASIZE PUSH1 0x4 PUSH2 0x1E91 JUMP JUMPDEST PUSH2 0x1187 JUMP JUMPDEST PUSH1 0x0 PUSH1 0x1 PUSH1 0x1 PUSH1 0xE0 SHL SUB NOT DUP3 AND PUSH4 0x80AC58CD PUSH1 0xE0 SHL EQ DUP1 PUSH2 0x39A JUMPI POP PUSH1 0x1 PUSH1 0x1 PUSH1 0xE0 SHL SUB NOT DUP3 AND PUSH4 0x5B5E139F PUSH1 0xE0 SHL EQ JUMPDEST DUP1 PUSH2 0x3B5 JUMPI POP PUSH4 0x1FFC9A7 PUSH1 0xE0 SHL PUSH1 0x1 PUSH1 0x1 PUSH1 0xE0 SHL SUB NOT DUP4 AND EQ JUMPDEST SWAP3 SWAP2 POP POP JUMP JUMPDEST PUSH1 0x60 PUSH1 0x0 DUP1 SLOAD PUSH2 0x3CA SWAP1 PUSH2 0x205A JUMP JUMPDEST DUP1 PUSH1 0x1F ADD PUSH1 0x20 DUP1 SWAP2 DIV MUL PUSH1 0x20 ADD PUSH1 0x40 MLOAD SWAP1 DUP2 ADD PUSH1 0x40 MSTORE DUP1 SWAP3 SWAP2 SWAP1 DUP2 DUP2 MSTORE PUSH1 0x20 ADD DUP3 DUP1 SLOAD PUSH2 0x3F6 SWAP1 PUSH2 0x205A JUMP JUMPDEST DUP1 ISZERO PUSH2 0x443 JUMPI DUP1 PUSH1 0x1F LT PUSH2 0x418 JUMPI PUSH2 0x100 DUP1 DUP4 SLOAD DIV MUL DUP4 MSTORE SWAP2 PUSH1 0x20 ADD SWAP2 PUSH2 0x443 JUMP JUMPDEST DUP3 ADD SWAP2 SWAP1 PUSH1 0x0 MSTORE PUSH1 0x20 PUSH1 0x0 KECCAK256 SWAP1 JUMPDEST DUP2 SLOAD DUP2 MSTORE SWAP1 PUSH1 0x1 ADD SWAP1 PUSH1 0x20 ADD DUP1 DUP4 GT PUSH2 0x426 JUMPI DUP3 SWAP1 SUB PUSH1 0x1F AND DUP3 ADD SWAP2 JUMPDEST POP POP POP POP POP SWAP1 POP SWAP1 JUMP JUMPDEST PUSH1 0x0 PUSH2 0x458 DUP3 PUSH2 0x11FD JUMP JUMPDEST POP PUSH1 0x0 SWAP1 DUP2 MSTORE PUSH1 0x4 PUSH1 0x20 MSTORE PUSH1 0x40 SWAP1 KECCAK256 SLOAD PUSH1 0x1 PUSH1 0x1 PUSH1 0xA0 SHL SUB AND SWAP1 JUMP JUMPDEST PUSH1 0x0 PUSH2 0x47F DUP3 PUSH2 0xB29 JUMP JUMPDEST SWAP1 POP DUP1 PUSH1 0x1 PUSH1 0x1 PUSH1 0xA0 SHL SUB AND DUP4 PUSH1 0x1 PUSH1 0x1 PUSH1 0xA0 SHL SUB AND SUB PUSH2 0x4F1 JUMPI PUSH1 0x40 MLOAD PUSH3 0x461BCD PUSH1 0xE5 SHL DUP2 MSTORE PUSH1 0x20 PUSH1 0x4 DUP3 ADD MSTORE PUSH1 0x21 PUSH1 0x24 DUP3 ADD MSTORE PUSH32 0x4552433732313A20617070726F76616C20746F2063757272656E74206F776E65 PUSH1 0x44 DUP3 ADD MSTORE PUSH1 0x39 PUSH1 0xF9 SHL PUSH1 0x64 DUP3 ADD MSTORE PUSH1 0x84 ADD JUMPDEST PUSH1 0x40 MLOAD DUP1 SWAP2 SUB SWAP1 REVERT JUMPDEST CALLER PUSH1 0x1 PUSH1 0x1 PUSH1 0xA0 SHL SUB DUP3 AND EQ DUP1 PUSH2 0x50D JUMPI POP PUSH2 0x50D DUP2 CALLER PUSH2 0x1159 JUMP JUMPDEST PUSH2 0x57F JUMPI PUSH1 0x40 MLOAD PUSH3 0x461BCD PUSH1 0xE5 SHL DUP2 MSTORE PUSH1 0x20 PUSH1 0x4 DUP3 ADD MSTORE PUSH1 0x3D PUSH1 0x24 DUP3 ADD MSTORE PUSH32 0x4552433732313A20617070726F76652063616C6C6572206973206E6F7420746F PUSH1 0x44 DUP3 ADD MSTORE PUSH32 0x6B656E206F776E6572206F7220617070726F76656420666F7220616C6C000000 PUSH1 0x64 DUP3 ADD MSTORE PUSH1 0x84 ADD PUSH2 0x4E8 JUMP JUMPDEST PUSH2 0x589 DUP4 DUP4 PUSH2 0x124D JUMP JUMPDEST POP POP POP JUMP JUMPDEST PUSH2 0x598 CALLER DUP3 PUSH2 0x12BB JUMP JUMPDEST PUSH2 0x5B4 JUMPI PUSH1 0x40 MLOAD PUSH3 0x461BCD PUSH1 0xE5 SHL DUP2 MSTORE PUSH1 0x4 ADD PUSH2 0x4E8 SWAP1 PUSH2 0x2094 JUMP JUMPDEST PUSH2 0x589 DUP4 DUP4 DUP4 PUSH2 0x1319 JUMP JUMPDEST PUSH1 0x0 PUSH2 0x5C9 PUSH2 0x148A JUMP JUMPDEST PUSH2 0x5D1 PUSH2 0x14E4 JUMP JUMPDEST CALLER PUSH1 0x0 SWAP1 DUP2 MSTORE PUSH1 0xC PUSH1 0x20 MSTORE PUSH1 0x40 SWAP1 KECCAK256 SLOAD PUSH2 0xE10 SWAP1 PUSH2 0x5EF SWAP1 TIMESTAMP PUSH2 0x20F7 JUMP JUMPDEST LT ISZERO DUP1 PUSH2 0x60B JUMPI POP CALLER PUSH1 0x0 SWAP1 DUP2 MSTORE PUSH1 0xB PUSH1 0x20 MSTORE PUSH1 0x40 SWAP1 KECCAK256 SLOAD PUSH1 0x64 GT JUMPDEST PUSH2 0x64D JUMPI PUSH1 0x40 MLOAD PUSH3 0x461BCD PUSH1 0xE5 SHL DUP2 MSTORE PUSH1 0x20 PUSH1 0x4 DUP3 ADD MSTORE PUSH1 0x13 PUSH1 0x24 DUP3 ADD MSTORE PUSH19 0x14985D19481B1A5B5A5D08195E18D959591959 PUSH1 0x6A SHL PUSH1 0x44 DUP3 ADD MSTORE PUSH1 0x64 ADD PUSH2 0x4E8 JUMP JUMPDEST PUSH1 0x0 DUP3 DUP2 MSTORE PUSH1 0xD PUSH1 0x20 MSTORE PUSH1 0x40 SWAP1 KECCAK256 SLOAD DUP3 SWAP1 PUSH1 0xFF AND ISZERO PUSH2 0x6AE JUMPI PUSH1 0x40 MLOAD PUSH3 0x461BCD PUSH1 0xE5 SHL DUP2 MSTORE PUSH1 0x20 PUSH1 0x4 DUP3 ADD MSTORE PUSH1 0x1E PUSH1 0x24 DUP3 ADD MSTORE PUSH32 0x5175616E74756D207369676E617475726520616C726561647920757365640000 PUSH1 0x44 DUP3 ADD MSTORE PUSH1 0x64 ADD PUSH2 0x4E8 JUMP JUMPDEST PUSH1 0x0 DUP2 DUP2 MSTORE PUSH1 0xD PUSH1 0x20 MSTORE PUSH1 0x40 SWAP1 KECCAK256 DUP1 SLOAD PUSH1 0xFF NOT AND PUSH1 0x1 OR SWAP1 SSTORE PUSH1 0x1 PUSH1 0x1 PUSH1 0xA0 SHL SUB DUP7 AND PUSH2 0x70F JUMPI PUSH1 0x40 MLOAD PUSH3 0x461BCD PUSH1 0xE5 SHL DUP2 MSTORE PUSH1 0x20 PUSH1 0x4 DUP3 ADD MSTORE PUSH1 0xF PUSH1 0x24 DUP3 ADD MSTORE PUSH15 0x496E76616C69642061646472657373 PUSH1 0x88 SHL PUSH1 0x44 DUP3 ADD MSTORE PUSH1 0x64 ADD PUSH2 0x4E8 JUMP JUMPDEST PUSH3 0xF4240 DUP5 GT ISZERO PUSH2 0x75E JUMPI PUSH1 0x40 MLOAD PUSH3 0x461BCD PUSH1 0xE5 SHL DUP2 MSTORE PUSH1 0x20 PUSH1 0x4 DUP3 ADD MSTORE PUSH1 0x19 PUSH1 0x24 DUP3 ADD MSTORE PUSH25 0x8AF0C6CACAC8E640DAC2F0D2DAEADA40C4C2DCC8EED2C8E8D PUSH1 0x3B SHL PUSH1 0x44 DUP3 ADD MSTORE PUSH1 0x64 ADD PUSH2 0x4E8 JUMP JUMPDEST PUSH2 0x76C PUSH1 0x9 DUP1 SLOAD PUSH1 0x1 ADD SWAP1 SSTORE JUMP JUMPDEST PUSH1 0x0 PUSH2 0x777 PUSH1 0x9 SLOAD SWAP1 JUMP JUMPDEST SWAP1 POP PUSH2 0x783 DUP8 DUP3 PUSH2 0x153D JUMP JUMPDEST PUSH1 0x40 DUP1 MLOAD PUSH2 0x120 DUP2 ADD DUP3 MSTORE DUP3 DUP2 MSTORE PUSH1 0x1 PUSH1 0x1 PUSH1 0xA0 SHL SUB DUP10 DUP2 AND PUSH1 0x20 DUP1 DUP5 ADD SWAP2 DUP3 MSTORE DUP5 MLOAD DUP1 DUP7 ADD DUP7 MSTORE PUSH1 0x7 DUP2 MSTORE PUSH7 0x50656E64696E67 PUSH1 0xC8 SHL DUP2 DUP4 ADD MSTORE DUP5 DUP7 ADD SWAP1 DUP2 MSTORE PUSH1 0x60 DUP6 ADD DUP13 SWAP1 MSTORE PUSH1 0x80 DUP6 ADD DUP12 SWAP1 MSTORE TIMESTAMP PUSH1 0xA0 DUP7 ADD MSTORE PUSH1 0xC0 DUP6 ADD DUP11 SWAP1 MSTORE PUSH1 0x0 PUSH1 0xE0 DUP7 ADD DUP2 SWAP1 MSTORE PUSH2 0x100 DUP7 ADD DUP2 SWAP1 MSTORE DUP8 DUP2 MSTORE PUSH1 0xA SWAP1 SWAP3 MSTORE SWAP5 SWAP1 KECCAK256 DUP4 MLOAD DUP2 SSTORE SWAP1 MLOAD PUSH1 0x1 DUP3 ADD DUP1 SLOAD PUSH1 0x1 PUSH1 0x1 PUSH1 0xA0 SHL SUB NOT AND SWAP2 SWAP1 SWAP4 AND OR SWAP1 SWAP2 SSTORE SWAP2 MLOAD SWAP1 SWAP2 SWAP1 PUSH1 0x2 DUP3 ADD SWAP1 PUSH2 0x82D SWAP1 DUP3 PUSH2 0x2158 JUMP JUMPDEST POP PUSH1 0x60 DUP3 ADD MLOAD PUSH1 0x3 DUP3 ADD SWAP1 PUSH2 0x842 SWAP1 DUP3 PUSH2 0x2158 JUMP JUMPDEST POP PUSH1 0x80 DUP3 ADD MLOAD PUSH1 0x4 DUP3 ADD SSTORE PUSH1 0xA0 DUP3 ADD MLOAD PUSH1 0x5 DUP3 ADD SSTORE PUSH1 0xC0 DUP3 ADD MLOAD PUSH1 0x6 DUP3 ADD SSTORE PUSH1 0xE0 DUP3 ADD MLOAD PUSH1 0x7 DUP3 ADD SSTORE PUSH2 0x100 SWAP1 SWAP2 ADD MLOAD PUSH1 0x8 SWAP1 SWAP2 ADD DUP1 SLOAD PUSH1 0xFF NOT AND SWAP2 ISZERO ISZERO SWAP2 SWAP1 SWAP2 OR SWAP1 SSTORE CALLER PUSH1 0x0 SWAP1 DUP2 MSTORE PUSH1 0xB PUSH1 0x20 MSTORE PUSH1 0x40 DUP2 KECCAK256 DUP1 SLOAD SWAP2 PUSH2 0x8A1 DUP4 PUSH2 0x2217 JUMP JUMPDEST SWAP1 SWAP2 SSTORE POP POP CALLER PUSH1 0x0 SWAP1 DUP2 MSTORE PUSH1 0xC PUSH1 0x20 MSTORE PUSH1 0x40 SWAP1 DUP2 SWAP1 KECCAK256 TIMESTAMP SWAP1 SSTORE MLOAD PUSH1 0x1 PUSH1 0x1 PUSH1 0xA0 SHL SUB DUP9 AND SWAP1 DUP3 SWAP1 PUSH32 0x230B3E875A62C594BFF4EDA93FC8FDF5EC428291651796B51B992FE7536247DA SWAP1 PUSH2 0x8F7 SWAP1 DUP10 DUP2 MSTORE PUSH1 0x20 ADD SWAP1 JUMP JUMPDEST PUSH1 0x40 MLOAD DUP1 SWAP2 SUB SWAP1 LOG3 SWAP2 POP POP PUSH2 0x90C PUSH1 0x1 PUSH1 0x7 SSTORE JUMP JUMPDEST SWAP5 SWAP4 POP POP POP POP JUMP JUMPDEST PUSH2 0x91C PUSH2 0x148A JUMP JUMPDEST PUSH2 0x924 PUSH2 0x1557 JUMP JUMPDEST JUMP JUMPDEST PUSH2 0x589 DUP4 DUP4 DUP4 PUSH1 0x40 MLOAD DUP1 PUSH1 0x20 ADD PUSH1 0x40 MSTORE DUP1 PUSH1 0x0 DUP2 MSTORE POP PUSH2 0xE6A JUMP JUMPDEST PUSH2 0x949 PUSH2 0x14E4 JUMP JUMPDEST CALLER PUSH2 0x953 DUP4 PUSH2 0xB29 JUMP JUMPDEST PUSH1 0x1 PUSH1 0x1 PUSH1 0xA0 SHL SUB AND EQ PUSH2 0x999 JUMPI PUSH1 0x40 MLOAD PUSH3 0x461BCD PUSH1 0xE5 SHL DUP2 MSTORE PUSH1 0x20 PUSH1 0x4 DUP3 ADD MSTORE PUSH1 0xD PUSH1 0x24 DUP3 ADD MSTORE PUSH13 0x2737BA103A34329037BBB732B9 PUSH1 0x99 SHL PUSH1 0x44 DUP3 ADD MSTORE PUSH1 0x64 ADD PUSH2 0x4E8 JUMP JUMPDEST PUSH2 0x9A2 DUP3 PUSH2 0x15A9 JUMP JUMPDEST PUSH2 0x9BE JUMPI PUSH1 0x40 MLOAD PUSH3 0x461BCD PUSH1 0xE5 SHL DUP2 MSTORE PUSH1 0x4 ADD PUSH2 0x4E8 SWAP1 PUSH2 0x2230 JUMP JUMPDEST PUSH1 0x0 DUP3 DUP2 MSTORE PUSH1 0xA PUSH1 0x20 MSTORE PUSH1 0x40 SWAP1 KECCAK256 PUSH1 0x3 ADD PUSH2 0x9D9 DUP3 DUP3 PUSH2 0x2158 JUMP JUMPDEST POP PUSH2 0x9E4 PUSH1 0x1 PUSH1 0x7 SSTORE JUMP JUMPDEST POP POP JUMP JUMPDEST PUSH2 0x9F0 PUSH2 0x14E4 JUMP JUMPDEST PUSH2 0x9F8 PUSH2 0x148A JUMP JUMPDEST PUSH2 0xA01 DUP2 PUSH2 0x15A9 JUMP JUMPDEST PUSH2 0xA1D JUMPI PUSH1 0x40 MLOAD PUSH3 0x461BCD PUSH1 0xE5 SHL DUP2 MSTORE PUSH1 0x4 ADD PUSH2 0x4E8 SWAP1 PUSH2 0x2230 JUMP JUMPDEST PUSH1 0x0 DUP2 DUP2 MSTORE PUSH1 0xA PUSH1 0x20 MSTORE PUSH1 0x40 SWAP1 KECCAK256 PUSH1 0x8 ADD SLOAD PUSH1 0xFF AND ISZERO PUSH2 0xA75 JUMPI PUSH1 0x40 MLOAD PUSH3 0x461BCD PUSH1 0xE5 SHL DUP2 MSTORE PUSH1 0x20 PUSH1 0x4 DUP3 ADD MSTORE PUSH1 0x13 PUSH1 0x24 DUP3 ADD MSTORE PUSH19 0x4553494D20616C726561647920616374697665 PUSH1 0x68 SHL PUSH1 0x44 DUP3 ADD MSTORE PUSH1 0x64 ADD PUSH2 0x4E8 JUMP JUMPDEST PUSH1 0x0 DUP2 DUP2 MSTORE PUSH1 0xA PUSH1 0x20 DUP2 DUP2 MSTORE PUSH1 0x40 DUP1 DUP5 KECCAK256 PUSH1 0x8 DUP2 ADD DUP1 SLOAD PUSH1 0xFF NOT AND PUSH1 0x1 OR SWAP1 SSTORE DUP2 MLOAD DUP1 DUP4 ADD SWAP1 SWAP3 MSTORE PUSH1 0x6 DUP3 MSTORE PUSH6 0x416374697665 PUSH1 0xD0 SHL DUP3 DUP5 ADD MSTORE SWAP4 DUP6 SWAP1 MSTORE SWAP2 SWAP1 MSTORE PUSH1 0x2 SWAP1 SWAP2 ADD SWAP1 PUSH2 0xAC6 SWAP1 DUP3 PUSH2 0x2158 JUMP JUMPDEST POP TIMESTAMP PUSH1 0xA PUSH1 0x0 DUP4 DUP2 MSTORE PUSH1 0x20 ADD SWAP1 DUP2 MSTORE PUSH1 0x20 ADD PUSH1 0x0 KECCAK256 PUSH1 0x7 ADD DUP2 SWAP1 SSTORE POP DUP1 PUSH32 0x796D76A3970AD840ABA394C5B7AFD41A98A2866FF309FBC799FD49E1CDE0C0AB TIMESTAMP PUSH1 0x40 MLOAD PUSH2 0xB14 SWAP2 DUP2 MSTORE PUSH1 0x20 ADD SWAP1 JUMP JUMPDEST PUSH1 0x40 MLOAD DUP1 SWAP2 SUB SWAP1 LOG2 PUSH2 0xB26 PUSH1 0x1 PUSH1 0x7 SSTORE JUMP JUMPDEST POP JUMP JUMPDEST PUSH1 0x0 DUP2 DUP2 MSTORE PUSH1 0x2 PUSH1 0x20 MSTORE PUSH1 0x40 DUP2 KECCAK256 SLOAD PUSH1 0x1 PUSH1 0x1 PUSH1 0xA0 SHL SUB AND DUP1 PUSH2 0x3B5 JUMPI PUSH1 0x40 MLOAD PUSH3 0x461BCD PUSH1 0xE5 SHL DUP2 MSTORE PUSH1 0x20 PUSH1 0x4 DUP3 ADD MSTORE PUSH1 0x18 PUSH1 0x24 DUP3 ADD MSTORE PUSH24 0x115490CDCC8C4E881A5B9D985B1A59081D1BDAD95B881251 PUSH1 0x42 SHL PUSH1 0x44 DUP3 ADD MSTORE PUSH1 0x64 ADD PUSH2 0x4E8 JUMP JUMPDEST PUSH1 0x0 PUSH1 0x1 PUSH1 0x1 PUSH1 0xA0 SHL SUB DUP3 AND PUSH2 0xBF3 JUMPI PUSH1 0x40 MLOAD PUSH3 0x461BCD PUSH1 0xE5 SHL DUP2 MSTORE PUSH1 0x20 PUSH1 0x4 DUP3 ADD MSTORE PUSH1 0x29 PUSH1 0x24 DUP3 ADD MSTORE PUSH32 0x4552433732313A2061646472657373207A65726F206973206E6F742061207661 PUSH1 0x44 DUP3 ADD MSTORE PUSH9 0x3634B21037BBB732B9 PUSH1 0xB9 SHL PUSH1 0x64 DUP3 ADD MSTORE PUSH1 0x84 ADD PUSH2 0x4E8 JUMP JUMPDEST POP PUSH1 0x1 PUSH1 0x1 PUSH1 0xA0 SHL SUB AND PUSH1 0x0 SWAP1 DUP2 MSTORE PUSH1 0x3 PUSH1 0x20 MSTORE PUSH1 0x40 SWAP1 KECCAK256 SLOAD SWAP1 JUMP JUMPDEST PUSH2 0xC17 PUSH2 0x148A JUMP JUMPDEST PUSH2 0x924 PUSH1 0x0 PUSH2 0x15C6 JUMP JUMPDEST PUSH2 0xC29 PUSH2 0x148A JUMP JUMPDEST PUSH2 0x924 PUSH2 0x1618 JUMP JUMPDEST PUSH1 0x60 PUSH1 0x1 DUP1 SLOAD PUSH2 0x3CA SWAP1 PUSH2 0x205A JUMP JUMPDEST PUSH2 0xC9D PUSH1 0x40 MLOAD DUP1 PUSH2 0x120 ADD PUSH1 0x40 MSTORE DUP1 PUSH1 0x0 DUP2 MSTORE PUSH1 0x20 ADD PUSH1 0x0 PUSH1 0x1 PUSH1 0x1 PUSH1 0xA0 SHL SUB AND DUP2 MSTORE PUSH1 0x20 ADD PUSH1 0x60 DUP2 MSTORE PUSH1 0x20 ADD PUSH1 0x60 DUP2 MSTORE PUSH1 0x20 ADD PUSH1 0x0 DUP2 MSTORE PUSH1 0x20 ADD PUSH1 0x0 DUP2 MSTORE PUSH1 0x20 ADD PUSH1 0x0 DUP1 NOT AND DUP2 MSTORE PUSH1 0x20 ADD PUSH1 0x0 DUP2 MSTORE PUSH1 0x20 ADD PUSH1 0x0 ISZERO ISZERO DUP2 MSTORE POP SWAP1 JUMP JUMPDEST PUSH2 0xCA6 DUP3 PUSH2 0x15A9 JUMP JUMPDEST PUSH2 0xCC2 JUMPI PUSH1 0x40 MLOAD PUSH3 0x461BCD PUSH1 0xE5 SHL DUP2 MSTORE PUSH1 0x4 ADD PUSH2 0x4E8 SWAP1 PUSH2 0x2230 JUMP JUMPDEST PUSH1 0x0 DUP3 DUP2 MSTORE PUSH1 0xA PUSH1 0x20 SWAP1 DUP2 MSTORE PUSH1 0x40 SWAP2 DUP3 SWAP1 KECCAK256 DUP3 MLOAD PUSH2 0x120 DUP2 ADD DUP5 MSTORE DUP2 SLOAD DUP2 MSTORE PUSH1 0x1 DUP3 ADD SLOAD PUSH1 0x1 PUSH1 0x1 PUSH1 0xA0 SHL SUB AND SWAP3 DUP2 ADD SWAP3 SWAP1 SWAP3 MSTORE PUSH1 0x2 DUP2 ADD DUP1 SLOAD SWAP3 SWAP4 SWAP2 SWAP3 SWAP2 DUP5 ADD SWAP2 PUSH2 0xD0D SWAP1 PUSH2 0x205A JUMP JUMPDEST DUP1 PUSH1 0x1F ADD PUSH1 0x20 DUP1 SWAP2 DIV MUL PUSH1 0x20 ADD PUSH1 0x40 MLOAD SWAP1 DUP2 ADD PUSH1 0x40 MSTORE DUP1 SWAP3 SWAP2 SWAP1 DUP2 DUP2 MSTORE PUSH1 0x20 ADD DUP3 DUP1 SLOAD PUSH2 0xD39 SWAP1 PUSH2 0x205A JUMP JUMPDEST DUP1 ISZERO PUSH2 0xD86 JUMPI DUP1 PUSH1 0x1F LT PUSH2 0xD5B JUMPI PUSH2 0x100 DUP1 DUP4 SLOAD DIV MUL DUP4 MSTORE SWAP2 PUSH1 0x20 ADD SWAP2 PUSH2 0xD86 JUMP JUMPDEST DUP3 ADD SWAP2 SWAP1 PUSH1 0x0 MSTORE PUSH1 0x20 PUSH1 0x0 KECCAK256 SWAP1 JUMPDEST DUP2 SLOAD DUP2 MSTORE SWAP1 PUSH1 0x1 ADD SWAP1 PUSH1 0x20 ADD DUP1 DUP4 GT PUSH2 0xD69 JUMPI DUP3 SWAP1 SUB PUSH1 0x1F AND DUP3 ADD SWAP2 JUMPDEST POP POP POP POP POP DUP2 MSTORE PUSH1 0x20 ADD PUSH1 0x3 DUP3 ADD DUP1 SLOAD PUSH2 0xD9F SWAP1 PUSH2 0x205A JUMP JUMPDEST DUP1 PUSH1 0x1F ADD PUSH1 0x20 DUP1 SWAP2 DIV MUL PUSH1 0x20 ADD PUSH1 0x40 MLOAD SWAP1 DUP2 ADD PUSH1 0x40 MSTORE DUP1 SWAP3 SWAP2 SWAP1 DUP2 DUP2 MSTORE PUSH1 0x20 ADD DUP3 DUP1 SLOAD PUSH2 0xDCB SWAP1 PUSH2 0x205A JUMP JUMPDEST DUP1 ISZERO PUSH2 0xE18 JUMPI DUP1 PUSH1 0x1F LT PUSH2 0xDED JUMPI PUSH2 0x100 DUP1 DUP4 SLOAD DIV MUL DUP4 MSTORE SWAP2 PUSH1 0x20 ADD SWAP2 PUSH2 0xE18 JUMP JUMPDEST DUP3 ADD SWAP2 SWAP1 PUSH1 0x0 MSTORE PUSH1 0x20 PUSH1 0x0 KECCAK256 SWAP1 JUMPDEST DUP2 SLOAD DUP2 MSTORE SWAP1 PUSH1 0x1 ADD SWAP1 PUSH1 0x20 ADD DUP1 DUP4 GT PUSH2 0xDFB JUMPI DUP3 SWAP1 SUB PUSH1 0x1F AND DUP3 ADD SWAP2 JUMPDEST POP POP POP SWAP2 DUP4 MSTORE POP POP PUSH1 0x4 DUP3 ADD SLOAD PUSH1 0x20 DUP3 ADD MSTORE PUSH1 0x5 DUP3 ADD SLOAD PUSH1 0x40 DUP3 ADD MSTORE PUSH1 0x6 DUP3 ADD SLOAD PUSH1 0x60 DUP3 ADD MSTORE PUSH1 0x7 DUP3 ADD SLOAD PUSH1 0x80 DUP3 ADD MSTORE PUSH1 0x8 SWAP1 SWAP2 ADD SLOAD PUSH1 0xFF AND ISZERO ISZERO PUSH1 0xA0 SWAP1 SWAP2 ADD MSTORE SWAP3 SWAP2 POP POP JUMP JUMPDEST PUSH2 0x9E4 CALLER DUP4 DUP4 PUSH2 0x1655 JUMP JUMPDEST PUSH2 0xE74 CALLER DUP4 PUSH2 0x12BB JUMP JUMPDEST PUSH2 0xE90 JUMPI PUSH1 0x40 MLOAD PUSH3 0x461BCD PUSH1 0xE5 SHL DUP2 MSTORE PUSH1 0x4 ADD PUSH2 0x4E8 SWAP1 PUSH2 0x2094 JUMP JUMPDEST PUSH2 0xE9C DUP5 DUP5 DUP5 DUP5 PUSH2 0x1723 JUMP JUMPDEST POP POP POP POP JUMP JUMPDEST PUSH2 0xEAA PUSH2 0x14E4 JUMP JUMPDEST PUSH2 0xEB2 PUSH2 0x148A JUMP JUMPDEST PUSH2 0xEBB DUP2 PUSH2 0x15A9 JUMP JUMPDEST PUSH2 0xED7 JUMPI PUSH1 0x40 MLOAD PUSH3 0x461BCD PUSH1 0xE5 SHL DUP2 MSTORE PUSH1 0x4 ADD PUSH2 0x4E8 SWAP1 PUSH2 0x2230 JUMP JUMPDEST PUSH1 0x0 DUP2 DUP2 MSTORE PUSH1 0xA PUSH1 0x20 MSTORE PUSH1 0x40 SWAP1 KECCAK256 PUSH1 0x8 ADD SLOAD PUSH1 0xFF AND PUSH2 0xF2A JUMPI PUSH1 0x40 MLOAD PUSH3 0x461BCD PUSH1 0xE5 SHL DUP2 MSTORE PUSH1 0x20 PUSH1 0x4 DUP3 ADD MSTORE PUSH1 0xF PUSH1 0x24 DUP3 ADD MSTORE PUSH15 0x4553494D206E6F7420616374697665 PUSH1 0x88 SHL PUSH1 0x44 DUP3 ADD MSTORE PUSH1 0x64 ADD PUSH2 0x4E8 JUMP JUMPDEST PUSH1 0x0 DUP2 DUP2 MSTORE PUSH1 0xA PUSH1 0x20 DUP2 DUP2 MSTORE PUSH1 0x40 DUP1 DUP5 KECCAK256 PUSH1 0x8 DUP1 DUP3 ADD DUP1 SLOAD PUSH1 0xFF NOT AND SWAP1 SSTORE DUP3 MLOAD DUP1 DUP5 ADD SWAP1 SWAP4 MSTORE DUP3 MSTORE PUSH8 0x496E616374697665 PUSH1 0xC0 SHL DUP3 DUP5 ADD MSTORE SWAP4 DUP6 SWAP1 MSTORE SWAP2 SWAP1 MSTORE PUSH1 0x2 SWAP1 SWAP2 ADD SWAP1 PUSH2 0xF79 SWAP1 DUP3 PUSH2 0x2158 JUMP JUMPDEST POP DUP1 PUSH32 0xF7080B744EFB6B2270F0F4BF35B316B7CA46B1F43E1D182799AE2EEB24848DDB TIMESTAMP PUSH1 0x40 MLOAD PUSH2 0xB14 SWAP2 DUP2 MSTORE PUSH1 0x20 ADD SWAP1 JUMP JUMPDEST PUSH1 0x60 PUSH2 0xFB7 DUP3 PUSH2 0x11FD JUMP JUMPDEST PUSH1 0x0 PUSH2 0xFCE PUSH1 0x40 DUP1 MLOAD PUSH1 0x20 DUP2 ADD SWAP1 SWAP2 MSTORE PUSH1 0x0 DUP2 MSTORE SWAP1 JUMP JUMPDEST SWAP1 POP PUSH1 0x0 DUP2 MLOAD GT PUSH2 0xFEE JUMPI PUSH1 0x40 MLOAD DUP1 PUSH1 0x20 ADD PUSH1 0x40 MSTORE DUP1 PUSH1 0x0 DUP2 MSTORE POP PUSH2 0x1019 JUMP JUMPDEST DUP1 PUSH2 0xFF8 DUP5 PUSH2 0x1756 JUMP JUMPDEST PUSH1 0x40 MLOAD PUSH1 0x20 ADD PUSH2 0x1009 SWAP3 SWAP2 SWAP1 PUSH2 0x225D JUMP JUMPDEST PUSH1 0x40 MLOAD PUSH1 0x20 DUP2 DUP4 SUB SUB DUP2 MSTORE SWAP1 PUSH1 0x40 MSTORE JUMPDEST SWAP4 SWAP3 POP POP POP JUMP JUMPDEST PUSH2 0x1028 PUSH2 0x14E4 JUMP JUMPDEST PUSH2 0x1030 PUSH2 0x148A JUMP JUMPDEST PUSH2 0x1039 DUP3 PUSH2 0x15A9 JUMP JUMPDEST PUSH2 0x1055 JUMPI PUSH1 0x40 MLOAD PUSH3 0x461BCD PUSH1 0xE5 SHL DUP2 MSTORE PUSH1 0x4 ADD PUSH2 0x4E8 SWAP1 PUSH2 0x2230 JUMP JUMPDEST PUSH1 0x0 DUP3 DUP2 MSTORE PUSH1 0xA PUSH1 0x20 MSTORE PUSH1 0x40 SWAP1 KECCAK256 PUSH1 0x8 ADD SLOAD PUSH1 0xFF AND PUSH2 0x10A8 JUMPI PUSH1 0x40 MLOAD PUSH3 0x461BCD PUSH1 0xE5 SHL DUP2 MSTORE PUSH1 0x20 PUSH1 0x4 DUP3 ADD MSTORE PUSH1 0xF PUSH1 0x24 DUP3 ADD MSTORE PUSH15 0x4553494D206E6F7420616374697665 PUSH1 0x88 SHL PUSH1 0x44 DUP3 ADD MSTORE PUSH1 0x64 ADD PUSH2 0x4E8 JUMP JUMPDEST PUSH3 0xF4240 DUP2 GT ISZERO PUSH2 0x10F7 JUMPI PUSH1 0x40 MLOAD PUSH3 0x461BCD PUSH1 0xE5 SHL DUP2 MSTORE PUSH1 0x20 PUSH1 0x4 DUP3 ADD MSTORE PUSH1 0x19 PUSH1 0x24 DUP3 ADD MSTORE PUSH25 0x8AF0C6CACAC8E640DAC2F0D2DAEADA40C4C2DCC8EED2C8E8D PUSH1 0x3B SHL PUSH1 0x44 DUP3 ADD MSTORE PUSH1 0x64 ADD PUSH2 0x4E8 JUMP JUMPDEST PUSH1 0x0 DUP3 DUP2 MSTORE PUSH1 0xA PUSH1 0x20 MSTORE PUSH1 0x40 SWAP1 DUP2 SWAP1 KECCAK256 PUSH1 0x4 DUP2 ADD DUP4 SWAP1 SSTORE TIMESTAMP PUSH1 0x5 SWAP1 SWAP2 ADD SSTORE MLOAD DUP3 SWAP1 PUSH32 0x105351C8CCACD7F383AC84E1CACCBA99DDDD64C870A7DE228B145D974B3040A2 SWAP1 PUSH2 0x1147 SWAP1 DUP5 DUP2 MSTORE PUSH1 0x20 ADD SWAP1 JUMP JUMPDEST PUSH1 0x40 MLOAD DUP1 SWAP2 SUB SWAP1 LOG2 PUSH2 0x9E4 PUSH1 0x1 PUSH1 0x7 SSTORE JUMP JUMPDEST PUSH1 0x1 PUSH1 0x1 PUSH1 0xA0 SHL SUB SWAP2 DUP3 AND PUSH1 0x0 SWAP1 DUP2 MSTORE PUSH1 0x5 PUSH1 0x20 SWAP1 DUP2 MSTORE PUSH1 0x40 DUP1 DUP4 KECCAK256 SWAP4 SWAP1 SWAP5 AND DUP3 MSTORE SWAP2 SWAP1 SWAP2 MSTORE KECCAK256 SLOAD PUSH1 0xFF AND SWAP1 JUMP JUMPDEST PUSH2 0x118F PUSH2 0x148A JUMP JUMPDEST PUSH1 0x1 PUSH1 0x1 PUSH1 0xA0 SHL SUB DUP2 AND PUSH2 0x11F4 JUMPI PUSH1 0x40 MLOAD PUSH3 0x461BCD PUSH1 0xE5 SHL DUP2 MSTORE PUSH1 0x20 PUSH1 0x4 DUP3 ADD MSTORE PUSH1 0x26 PUSH1 0x24 DUP3 ADD MSTORE PUSH32 0x4F776E61626C653A206E6577206F776E657220697320746865207A65726F2061 PUSH1 0x44 DUP3 ADD MSTORE PUSH6 0x646472657373 PUSH1 0xD0 SHL PUSH1 0x64 DUP3 ADD MSTORE PUSH1 0x84 ADD PUSH2 0x4E8 JUMP JUMPDEST PUSH2 0xB26 DUP2 PUSH2 0x15C6 JUMP JUMPDEST PUSH2 0x1206 DUP2 PUSH2 0x15A9 JUMP JUMPDEST PUSH2 0xB26 JUMPI PUSH1 0x40 MLOAD PUSH3 0x461BCD PUSH1 0xE5 SHL DUP2 MSTORE PUSH1 0x20 PUSH1 0x4 DUP3 ADD MSTORE PUSH1 0x18 PUSH1 0x24 DUP3 ADD MSTORE PUSH24 0x115490CDCC8C4E881A5B9D985B1A59081D1BDAD95B881251 PUSH1 0x42 SHL PUSH1 0x44 DUP3 ADD MSTORE PUSH1 0x64 ADD PUSH2 0x4E8 JUMP JUMPDEST PUSH1 0x0 DUP2 DUP2 MSTORE PUSH1 0x4 PUSH1 0x20 MSTORE PUSH1 0x40 SWAP1 KECCAK256 DUP1 SLOAD PUSH1 0x1 PUSH1 0x1 PUSH1 0xA0 SHL SUB NOT AND PUSH1 0x1 PUSH1 0x1 PUSH1 0xA0 SHL SUB DUP5 AND SWAP1 DUP2 OR SWAP1 SWAP2 SSTORE DUP2 SWAP1 PUSH2 0x1282 DUP3 PUSH2 0xB29 JUMP JUMPDEST PUSH1 0x1 PUSH1 0x1 PUSH1 0xA0 SHL SUB AND PUSH32 0x8C5BE1E5EBEC7D5BD14F71427D1E84F3DD0314C0F7B2291E5B200AC8C7C3B925 PUSH1 0x40 MLOAD PUSH1 0x40 MLOAD DUP1 SWAP2 SUB SWAP1 LOG4 POP POP JUMP JUMPDEST PUSH1 0x0 DUP1 PUSH2 0x12C7 DUP4 PUSH2 0xB29 JUMP JUMPDEST SWAP1 POP DUP1 PUSH1 0x1 PUSH1 0x1 PUSH1 0xA0 SHL SUB AND DUP5 PUSH1 0x1 PUSH1 0x1 PUSH1 0xA0 SHL SUB AND EQ DUP1 PUSH2 0x12EE JUMPI POP PUSH2 0x12EE DUP2 DUP6 PUSH2 0x1159 JUMP JUMPDEST DUP1 PUSH2 0x90C JUMPI POP DUP4 PUSH1 0x1 PUSH1 0x1 PUSH1 0xA0 SHL SUB AND PUSH2 0x1307 DUP5 PUSH2 0x44D JUMP JUMPDEST PUSH1 0x1 PUSH1 0x1 PUSH1 0xA0 SHL SUB AND EQ SWAP5 SWAP4 POP POP POP POP JUMP JUMPDEST DUP3 PUSH1 0x1 PUSH1 0x1 PUSH1 0xA0 SHL SUB AND PUSH2 0x132C DUP3 PUSH2 0xB29 JUMP JUMPDEST PUSH1 0x1 PUSH1 0x1 PUSH1 0xA0 SHL SUB AND EQ PUSH2 0x1352 JUMPI PUSH1 0x40 MLOAD PUSH3 0x461BCD PUSH1 0xE5 SHL DUP2 MSTORE PUSH1 0x4 ADD PUSH2 0x4E8 SWAP1 PUSH2 0x228C JUMP JUMPDEST PUSH1 0x1 PUSH1 0x1 PUSH1 0xA0 SHL SUB DUP3 AND PUSH2 0x13B4 JUMPI PUSH1 0x40 MLOAD PUSH3 0x461BCD PUSH1 0xE5 SHL DUP2 MSTORE PUSH1 0x20 PUSH1 0x4 DUP3 ADD MSTORE PUSH1 0x24 DUP1 DUP3 ADD MSTORE PUSH32 0x4552433732313A207472616E7366657220746F20746865207A65726F20616464 PUSH1 0x44 DUP3 ADD MSTORE PUSH4 0x72657373 PUSH1 0xE0 SHL PUSH1 0x64 DUP3 ADD MSTORE PUSH1 0x84 ADD PUSH2 0x4E8 JUMP JUMPDEST PUSH2 0x13C1 DUP4 DUP4 DUP4 PUSH1 0x1 PUSH2 0x17EA JUMP JUMPDEST DUP3 PUSH1 0x1 PUSH1 0x1 PUSH1 0xA0 SHL SUB AND PUSH2 0x13D4 DUP3 PUSH2 0xB29 JUMP JUMPDEST PUSH1 0x1 PUSH1 0x1 PUSH1 0xA0 SHL SUB AND EQ PUSH2 0x13FA JUMPI PUSH1 0x40 MLOAD PUSH3 0x461BCD PUSH1 0xE5 SHL DUP2 MSTORE PUSH1 0x4 ADD PUSH2 0x4E8 SWAP1 PUSH2 0x228C JUMP JUMPDEST PUSH1 0x0 DUP2 DUP2 MSTORE PUSH1 0x4 PUSH1 0x20 SWAP1 DUP2 MSTORE PUSH1 0x40 DUP1 DUP4 KECCAK256 DUP1 SLOAD PUSH1 0x1 PUSH1 0x1 PUSH1 0xA0 SHL SUB NOT SWAP1 DUP2 AND SWAP1 SWAP2 SSTORE PUSH1 0x1 PUSH1 0x1 PUSH1 0xA0 SHL SUB DUP8 DUP2 AND DUP1 DUP7 MSTORE PUSH1 0x3 DUP6 MSTORE DUP4 DUP7 KECCAK256 DUP1 SLOAD PUSH1 0x0 NOT ADD SWAP1 SSTORE SWAP1 DUP8 AND DUP1 DUP7 MSTORE DUP4 DUP7 KECCAK256 DUP1 SLOAD PUSH1 0x1 ADD SWAP1 SSTORE DUP7 DUP7 MSTORE PUSH1 0x2 SWAP1 SWAP5 MSTORE DUP3 DUP6 KECCAK256 DUP1 SLOAD SWAP1 SWAP3 AND DUP5 OR SWAP1 SWAP2 SSTORE SWAP1 MLOAD DUP5 SWAP4 PUSH32 0xDDF252AD1BE2C89B69C2B068FC378DAA952BA7F163C4A11628F55A4DF523B3EF SWAP2 LOG4 POP POP POP JUMP JUMPDEST PUSH1 0x6 SLOAD PUSH1 0x1 PUSH1 0x1 PUSH1 0xA0 SHL SUB AND CALLER EQ PUSH2 0x924 JUMPI PUSH1 0x40 MLOAD PUSH3 0x461BCD PUSH1 0xE5 SHL DUP2 MSTORE PUSH1 0x20 PUSH1 0x4 DUP3 ADD DUP2 SWAP1 MSTORE PUSH1 0x24 DUP3 ADD MSTORE PUSH32 0x4F776E61626C653A2063616C6C6572206973206E6F7420746865206F776E6572 PUSH1 0x44 DUP3 ADD MSTORE PUSH1 0x64 ADD PUSH2 0x4E8 JUMP JUMPDEST PUSH1 0x2 PUSH1 0x7 SLOAD SUB PUSH2 0x1536 JUMPI PUSH1 0x40 MLOAD PUSH3 0x461BCD PUSH1 0xE5 SHL DUP2 MSTORE PUSH1 0x20 PUSH1 0x4 DUP3 ADD MSTORE PUSH1 0x1F PUSH1 0x24 DUP3 ADD MSTORE PUSH32 0x5265656E7472616E637947756172643A207265656E7472616E742063616C6C00 PUSH1 0x44 DUP3 ADD MSTORE PUSH1 0x64 ADD PUSH2 0x4E8 JUMP JUMPDEST PUSH1 0x2 PUSH1 0x7 SSTORE JUMP JUMPDEST PUSH2 0x9E4 DUP3 DUP3 PUSH1 0x40 MLOAD DUP1 PUSH1 0x20 ADD PUSH1 0x40 MSTORE DUP1 PUSH1 0x0 DUP2 MSTORE POP PUSH2 0x17F7 JUMP JUMPDEST PUSH2 0x155F PUSH2 0x182A JUMP JUMPDEST PUSH1 0x8 DUP1 SLOAD PUSH1 0xFF NOT AND SWAP1 SSTORE PUSH32 0x5DB9EE0A495BF2E6FF9C91A7834C1BA4FDD244A5E8AA4E537BD38AEAE4B073AA CALLER JUMPDEST PUSH1 0x40 MLOAD PUSH1 0x1 PUSH1 0x1 PUSH1 0xA0 SHL SUB SWAP1 SWAP2 AND DUP2 MSTORE PUSH1 0x20 ADD PUSH1 0x40 MLOAD DUP1 SWAP2 SUB SWAP1 LOG1 JUMP JUMPDEST PUSH1 0x0 SWAP1 DUP2 MSTORE PUSH1 0x2 PUSH1 0x20 MSTORE PUSH1 0x40 SWAP1 KECCAK256 SLOAD PUSH1 0x1 PUSH1 0x1 PUSH1 0xA0 SHL SUB AND ISZERO ISZERO SWAP1 JUMP JUMPDEST PUSH1 0x6 DUP1 SLOAD PUSH1 0x1 PUSH1 0x1 PUSH1 0xA0 SHL SUB DUP4 DUP2 AND PUSH1 0x1 PUSH1 0x1 PUSH1 0xA0 SHL SUB NOT DUP4 AND DUP2 OR SWAP1 SWAP4 SSTORE PUSH1 0x40 MLOAD SWAP2 AND SWAP2 SWAP1 DUP3 SWAP1 PUSH32 0x8BE0079C531659141344CD1FD0A4F28419497F9722A3DAAFE3B4186F6B6457E0 SWAP1 PUSH1 0x0 SWAP1 LOG3 POP POP JUMP JUMPDEST PUSH2 0x1620 PUSH2 0x1873 JUMP JUMPDEST PUSH1 0x8 DUP1 SLOAD PUSH1 0xFF NOT AND PUSH1 0x1 OR SWAP1 SSTORE PUSH32 0x62E78CEA01BEE320CD4E420270B5EA74000D11B0C9F74754EBDBFC544B05A258 PUSH2 0x158C CALLER SWAP1 JUMP JUMPDEST DUP2 PUSH1 0x1 PUSH1 0x1 PUSH1 0xA0 SHL SUB AND DUP4 PUSH1 0x1 PUSH1 0x1 PUSH1 0xA0 SHL SUB AND SUB PUSH2 0x16B6 JUMPI PUSH1 0x40 MLOAD PUSH3 0x461BCD PUSH1 0xE5 SHL DUP2 MSTORE PUSH1 0x20 PUSH1 0x4 DUP3 ADD MSTORE PUSH1 0x19 PUSH1 0x24 DUP3 ADD MSTORE PUSH32 0x4552433732313A20617070726F766520746F2063616C6C657200000000000000 PUSH1 0x44 DUP3 ADD MSTORE PUSH1 0x64 ADD PUSH2 0x4E8 JUMP JUMPDEST PUSH1 0x1 PUSH1 0x1 PUSH1 0xA0 SHL SUB DUP4 DUP2 AND PUSH1 0x0 DUP2 DUP2 MSTORE PUSH1 0x5 PUSH1 0x20 SWAP1 DUP2 MSTORE PUSH1 0x40 DUP1 DUP4 KECCAK256 SWAP5 DUP8 AND DUP1 DUP5 MSTORE SWAP5 DUP3 MSTORE SWAP2 DUP3 SWAP1 KECCAK256 DUP1 SLOAD PUSH1 0xFF NOT AND DUP7 ISZERO ISZERO SWAP1 DUP2 OR SWAP1 SWAP2 SSTORE SWAP2 MLOAD SWAP2 DUP3 MSTORE PUSH32 0x17307EAB39AB6107E8899845AD3D59BD9653F200F220920489CA2B5937696C31 SWAP2 ADD PUSH1 0x40 MLOAD DUP1 SWAP2 SUB SWAP1 LOG3 POP POP POP JUMP JUMPDEST PUSH2 0x172E DUP5 DUP5 DUP5 PUSH2 0x1319 JUMP JUMPDEST PUSH2 0x173A DUP5 DUP5 DUP5 DUP5 PUSH2 0x18B9 JUMP JUMPDEST PUSH2 0xE9C JUMPI PUSH1 0x40 MLOAD PUSH3 0x461BCD PUSH1 0xE5 SHL DUP2 MSTORE PUSH1 0x4 ADD PUSH2 0x4E8 SWAP1 PUSH2 0x22D1 JUMP JUMPDEST PUSH1 0x60 PUSH1 0x0 PUSH2 0x1763 DUP4 PUSH2 0x19B7 JUMP JUMPDEST PUSH1 0x1 ADD SWAP1 POP PUSH1 0x0 DUP2 PUSH8 0xFFFFFFFFFFFFFFFF DUP2 GT ISZERO PUSH2 0x1783 JUMPI PUSH2 0x1783 PUSH2 0x1D3C JUMP JUMPDEST PUSH1 0x40 MLOAD SWAP1 DUP1 DUP3 MSTORE DUP1 PUSH1 0x1F ADD PUSH1 0x1F NOT AND PUSH1 0x20 ADD DUP3 ADD PUSH1 0x40 MSTORE DUP1 ISZERO PUSH2 0x17AD JUMPI PUSH1 0x20 DUP3 ADD DUP2 DUP1 CALLDATASIZE DUP4 CALLDATACOPY ADD SWAP1 POP JUMPDEST POP SWAP1 POP DUP2 DUP2 ADD PUSH1 0x20 ADD JUMPDEST PUSH1 0x0 NOT ADD PUSH16 0x181899199A1A9B1B9C1CB0B131B232B3 PUSH1 0x81 SHL PUSH1 0xA DUP7 MOD BYTE DUP2 MSTORE8 PUSH1 0xA DUP6 DIV SWAP5 POP DUP5 PUSH2 0x17B7 JUMPI JUMPDEST POP SWAP4 SWAP3 POP POP POP JUMP JUMPDEST PUSH2 0x17F2 PUSH2 0x1873 JUMP JUMPDEST PUSH2 0xE9C JUMP JUMPDEST PUSH2 0x1801 DUP4 DUP4 PUSH2 0x1A8F JUMP JUMPDEST PUSH2 0x180E PUSH1 0x0 DUP5 DUP5 DUP5 PUSH2 0x18B9 JUMP JUMPDEST PUSH2 0x589 JUMPI PUSH1 0x40 MLOAD PUSH3 0x461BCD PUSH1 0xE5 SHL DUP2 MSTORE PUSH1 0x4 ADD PUSH2 0x4E8 SWAP1 PUSH2 0x22D1 JUMP JUMPDEST PUSH1 0x8 SLOAD PUSH1 0xFF AND PUSH2 0x924 JUMPI PUSH1 0x40 MLOAD PUSH3 0x461BCD PUSH1 0xE5 SHL DUP2 MSTORE PUSH1 0x20 PUSH1 0x4 DUP3 ADD MSTORE PUSH1 0x14 PUSH1 0x24 DUP3 ADD MSTORE PUSH20 0x14185D5CD8589B194E881B9BDD081C185D5CD959 PUSH1 0x62 SHL PUSH1 0x44 DUP3 ADD MSTORE PUSH1 0x64 ADD PUSH2 0x4E8 JUMP JUMPDEST PUSH1 0x8 SLOAD PUSH1 0xFF AND ISZERO PUSH2 0x924 JUMPI PUSH1 0x40 MLOAD PUSH3 0x461BCD PUSH1 0xE5 SHL DUP2 MSTORE PUSH1 0x20 PUSH1 0x4 DUP3 ADD MSTORE PUSH1 0x10 PUSH1 0x24 DUP3 ADD MSTORE PUSH16 0x14185D5CD8589B194E881C185D5CD959 PUSH1 0x82 SHL PUSH1 0x44 DUP3 ADD MSTORE PUSH1 0x64 ADD PUSH2 0x4E8 JUMP JUMPDEST PUSH1 0x0 PUSH1 0x1 PUSH1 0x1 PUSH1 0xA0 SHL SUB DUP5 AND EXTCODESIZE ISZERO PUSH2 0x19AF JUMPI PUSH1 0x40 MLOAD PUSH4 0xA85BD01 PUSH1 0xE1 SHL DUP2 MSTORE PUSH1 0x1 PUSH1 0x1 PUSH1 0xA0 SHL SUB DUP6 AND SWAP1 PUSH4 0x150B7A02 SWAP1 PUSH2 0x18FD SWAP1 CALLER SWAP1 DUP10 SWAP1 DUP9 SWAP1 DUP9 SWAP1 PUSH1 0x4 ADD PUSH2 0x2323 JUMP JUMPDEST PUSH1 0x20 PUSH1 0x40 MLOAD DUP1 DUP4 SUB DUP2 PUSH1 0x0 DUP8 GAS CALL SWAP3 POP POP POP DUP1 ISZERO PUSH2 0x1938 JUMPI POP PUSH1 0x40 DUP1 MLOAD PUSH1 0x1F RETURNDATASIZE SWAP1 DUP2 ADD PUSH1 0x1F NOT AND DUP3 ADD SWAP1 SWAP3 MSTORE PUSH2 0x1935 SWAP2 DUP2 ADD SWAP1 PUSH2 0x2360 JUMP JUMPDEST PUSH1 0x1 JUMPDEST PUSH2 0x1995 JUMPI RETURNDATASIZE DUP1 DUP1 ISZERO PUSH2 0x1966 JUMPI PUSH1 0x40 MLOAD SWAP2 POP PUSH1 0x1F NOT PUSH1 0x3F RETURNDATASIZE ADD AND DUP3 ADD PUSH1 0x40 MSTORE RETURNDATASIZE DUP3 MSTORE RETURNDATASIZE PUSH1 0x0 PUSH1 0x20 DUP5 ADD RETURNDATACOPY PUSH2 0x196B JUMP JUMPDEST PUSH1 0x60 SWAP2 POP JUMPDEST POP DUP1 MLOAD PUSH1 0x0 SUB PUSH2 0x198D JUMPI PUSH1 0x40 MLOAD PUSH3 0x461BCD PUSH1 0xE5 SHL DUP2 MSTORE PUSH1 0x4 ADD PUSH2 0x4E8 SWAP1 PUSH2 0x22D1 JUMP JUMPDEST DUP1 MLOAD DUP2 PUSH1 0x20 ADD REVERT JUMPDEST PUSH1 0x1 PUSH1 0x1 PUSH1 0xE0 SHL SUB NOT AND PUSH4 0xA85BD01 PUSH1 0xE1 SHL EQ SWAP1 POP PUSH2 0x90C JUMP JUMPDEST POP PUSH1 0x1 PUSH2 0x90C JUMP JUMPDEST PUSH1 0x0 DUP1 PUSH19 0x184F03E93FF9F4DAA797ED6E38ED64BF6A1F01 PUSH1 0x40 SHL DUP4 LT PUSH2 0x19F6 JUMPI PUSH19 0x184F03E93FF9F4DAA797ED6E38ED64BF6A1F01 PUSH1 0x40 SHL DUP4 DIV SWAP3 POP PUSH1 0x40 ADD JUMPDEST PUSH14 0x4EE2D6D415B85ACEF8100000000 DUP4 LT PUSH2 0x1A22 JUMPI PUSH14 0x4EE2D6D415B85ACEF8100000000 DUP4 DIV SWAP3 POP PUSH1 0x20 ADD JUMPDEST PUSH7 0x2386F26FC10000 DUP4 LT PUSH2 0x1A40 JUMPI PUSH7 0x2386F26FC10000 DUP4 DIV SWAP3 POP PUSH1 0x10 ADD JUMPDEST PUSH4 0x5F5E100 DUP4 LT PUSH2 0x1A58 JUMPI PUSH4 0x5F5E100 DUP4 DIV SWAP3 POP PUSH1 0x8 ADD JUMPDEST PUSH2 0x2710 DUP4 LT PUSH2 0x1A6C JUMPI PUSH2 0x2710 DUP4 DIV SWAP3 POP PUSH1 0x4 ADD JUMPDEST PUSH1 0x64 DUP4 LT PUSH2 0x1A7E JUMPI PUSH1 0x64 DUP4 DIV SWAP3 POP PUSH1 0x2 ADD JUMPDEST PUSH1 0xA DUP4 LT PUSH2 0x3B5 JUMPI PUSH1 0x1 ADD SWAP3 SWAP2 POP POP JUMP JUMPDEST PUSH1 0x1 PUSH1 0x1 PUSH1 0xA0 SHL SUB DUP3 AND PUSH2 0x1AE5 JUMPI PUSH1 0x40 MLOAD PUSH3 0x461BCD PUSH1 0xE5 SHL DUP2 MSTORE PUSH1 0x20 PUSH1 0x4 DUP3 ADD DUP2 SWAP1 MSTORE PUSH1 0x24 DUP3 ADD MSTORE PUSH32 0x4552433732313A206D696E7420746F20746865207A65726F2061646472657373 PUSH1 0x44 DUP3 ADD MSTORE PUSH1 0x64 ADD PUSH2 0x4E8 JUMP JUMPDEST PUSH2 0x1AEE DUP2 PUSH2 0x15A9 JUMP JUMPDEST ISZERO PUSH2 0x1B3B JUMPI PUSH1 0x40 MLOAD PUSH3 0x461BCD PUSH1 0xE5 SHL DUP2 MSTORE PUSH1 0x20 PUSH1 0x4 DUP3 ADD MSTORE PUSH1 0x1C PUSH1 0x24 DUP3 ADD MSTORE PUSH32 0x4552433732313A20746F6B656E20616C7265616479206D696E74656400000000 PUSH1 0x44 DUP3 ADD MSTORE PUSH1 0x64 ADD PUSH2 0x4E8 JUMP JUMPDEST PUSH2 0x1B49 PUSH1 0x0 DUP4 DUP4 PUSH1 0x1 PUSH2 0x17EA JUMP JUMPDEST PUSH2 0x1B52 DUP2 PUSH2 0x15A9 JUMP JUMPDEST ISZERO PUSH2 0x1B9F JUMPI PUSH1 0x40 MLOAD PUSH3 0x461BCD PUSH1 0xE5 SHL DUP2 MSTORE PUSH1 0x20 PUSH1 0x4 DUP3 ADD MSTORE PUSH1 0x1C PUSH1 0x24 DUP3 ADD MSTORE PUSH32 0x4552433732313A20746F6B656E20616C7265616479206D696E74656400000000 PUSH1 0x44 DUP3 ADD MSTORE PUSH1 0x64 ADD PUSH2 0x4E8 JUMP JUMPDEST PUSH1 0x1 PUSH1 0x1 PUSH1 0xA0 SHL SUB DUP3 AND PUSH1 0x0 DUP2 DUP2 MSTORE PUSH1 0x3 PUSH1 0x20 SWAP1 DUP2 MSTORE PUSH1 0x40 DUP1 DUP4 KECCAK256 DUP1 SLOAD PUSH1 0x1 ADD SWAP1 SSTORE DUP5 DUP4 MSTORE PUSH1 0x2 SWAP1 SWAP2 MSTORE DUP1 DUP3 KECCAK256 DUP1 SLOAD PUSH1 0x1 PUSH1 0x1 PUSH1 0xA0 SHL SUB NOT AND DUP5 OR SWAP1 SSTORE MLOAD DUP4 SWAP3 SWAP2 SWAP1 PUSH32 0xDDF252AD1BE2C89B69C2B068FC378DAA952BA7F163C4A11628F55A4DF523B3EF SWAP1 DUP3 SWAP1 LOG4 POP POP JUMP JUMPDEST PUSH1 0x1 PUSH1 0x1 PUSH1 0xE0 SHL SUB NOT DUP2 AND DUP2 EQ PUSH2 0xB26 JUMPI PUSH1 0x0 DUP1 REVERT JUMPDEST PUSH1 0x0 PUSH1 0x20 DUP3 DUP5 SUB SLT ISZERO PUSH2 0x1C32 JUMPI PUSH1 0x0 DUP1 REVERT JUMPDEST DUP2 CALLDATALOAD PUSH2 0x1019 DUP2 PUSH2 0x1C0A JUMP JUMPDEST PUSH1 0x0 JUMPDEST DUP4 DUP2 LT ISZERO PUSH2 0x1C58 JUMPI DUP2 DUP2 ADD MLOAD DUP4 DUP3 ADD MSTORE PUSH1 0x20 ADD PUSH2 0x1C40 JUMP JUMPDEST POP POP PUSH1 0x0 SWAP2 ADD MSTORE JUMP JUMPDEST PUSH1 0x0 DUP2 MLOAD DUP1 DUP5 MSTORE PUSH2 0x1C79 DUP2 PUSH1 0x20 DUP7 ADD PUSH1 0x20 DUP7 ADD PUSH2 0x1C3D JUMP JUMPDEST PUSH1 0x1F ADD PUSH1 0x1F NOT AND SWAP3 SWAP1 SWAP3 ADD PUSH1 0x20 ADD SWAP3 SWAP2 POP POP JUMP JUMPDEST PUSH1 0x20 DUP2 MSTORE PUSH1 0x0 PUSH2 0x1019 PUSH1 0x20 DUP4 ADD DUP5 PUSH2 0x1C61 JUMP JUMPDEST PUSH1 0x0 PUSH1 0x20 DUP3 DUP5 SUB SLT ISZERO PUSH2 0x1CB2 JUMPI PUSH1 0x0 DUP1 REVERT JUMPDEST POP CALLDATALOAD SWAP2 SWAP1 POP JUMP JUMPDEST DUP1 CALLDATALOAD PUSH1 0x1 PUSH1 0x1 PUSH1 0xA0 SHL SUB DUP2 AND DUP2 EQ PUSH2 0x1CD0 JUMPI PUSH1 0x0 DUP1 REVERT JUMPDEST SWAP2 SWAP1 POP JUMP JUMPDEST PUSH1 0x0 DUP1 PUSH1 0x40 DUP4 DUP6 SUB SLT ISZERO PUSH2 0x1CE8 JUMPI PUSH1 0x0 DUP1 REVERT JUMPDEST PUSH2 0x1CF1 DUP4 PUSH2 0x1CB9 JUMP JUMPDEST SWAP5 PUSH1 0x20 SWAP4 SWAP1 SWAP4 ADD CALLDATALOAD SWAP4 POP POP POP JUMP JUMPDEST PUSH1 0x0 DUP1 PUSH1 0x0 PUSH1 0x60 DUP5 DUP7 SUB SLT ISZERO PUSH2 0x1D14 JUMPI PUSH1 0x0 DUP1 REVERT JUMPDEST PUSH2 0x1D1D DUP5 PUSH2 0x1CB9 JUMP JUMPDEST SWAP3 POP PUSH2 0x1D2B PUSH1 0x20 DUP6 ADD PUSH2 0x1CB9 JUMP JUMPDEST SWAP3 SWAP6 SWAP3 SWAP5 POP POP POP PUSH1 0x40 SWAP2 SWAP1 SWAP2 ADD CALLDATALOAD SWAP1 JUMP JUMPDEST PUSH4 0x4E487B71 PUSH1 0xE0 SHL PUSH1 0x0 MSTORE PUSH1 0x41 PUSH1 0x4 MSTORE PUSH1 0x24 PUSH1 0x0 REVERT JUMPDEST PUSH1 0x0 DUP1 PUSH8 0xFFFFFFFFFFFFFFFF DUP5 GT ISZERO PUSH2 0x1D6D JUMPI PUSH2 0x1D6D PUSH2 0x1D3C JUMP JUMPDEST POP PUSH1 0x40 MLOAD PUSH1 0x1F NOT PUSH1 0x1F DUP6 ADD DUP2 AND PUSH1 0x3F ADD AND DUP2 ADD DUP2 DUP2 LT PUSH8 0xFFFFFFFFFFFFFFFF DUP3 GT OR ISZERO PUSH2 0x1D9C JUMPI PUSH2 0x1D9C PUSH2 0x1D3C JUMP JUMPDEST PUSH1 0x40 MSTORE DUP4 DUP2 MSTORE SWAP1 POP DUP1 DUP3 DUP5 ADD DUP6 LT ISZERO PUSH2 0x1DB4 JUMPI PUSH1 0x0 DUP1 REVERT JUMPDEST DUP4 DUP4 PUSH1 0x20 DUP4 ADD CALLDATACOPY PUSH1 0x0 PUSH1 0x20 DUP6 DUP4 ADD ADD MSTORE POP SWAP4 SWAP3 POP POP POP JUMP JUMPDEST PUSH1 0x0 DUP3 PUSH1 0x1F DUP4 ADD SLT PUSH2 0x1DDD JUMPI PUSH1 0x0 DUP1 REVERT JUMPDEST PUSH2 0x1019 DUP4 DUP4 CALLDATALOAD PUSH1 0x20 DUP6 ADD PUSH2 0x1D52 JUMP JUMPDEST PUSH1 0x0 DUP1 PUSH1 0x0 DUP1 PUSH1 0x80 DUP6 DUP8 SUB SLT ISZERO PUSH2 0x1E02 JUMPI PUSH1 0x0 DUP1 REVERT JUMPDEST PUSH2 0x1E0B DUP6 PUSH2 0x1CB9 JUMP JUMPDEST SWAP4 POP PUSH1 0x20 DUP6 ADD CALLDATALOAD PUSH8 0xFFFFFFFFFFFFFFFF DUP2 GT ISZERO PUSH2 0x1E27 JUMPI PUSH1 0x0 DUP1 REVERT JUMPDEST PUSH2 0x1E33 DUP8 DUP3 DUP9 ADD PUSH2 0x1DCC JUMP JUMPDEST SWAP5 SWAP8 SWAP5 SWAP7 POP POP POP POP PUSH1 0x40 DUP4 ADD CALLDATALOAD SWAP3 PUSH1 0x60 ADD CALLDATALOAD SWAP2 SWAP1 POP JUMP JUMPDEST PUSH1 0x0 DUP1 PUSH1 0x40 DUP4 DUP6 SUB SLT ISZERO PUSH2 0x1E5D JUMPI PUSH1 0x0 DUP1 REVERT JUMPDEST DUP3 CALLDATALOAD SWAP2 POP PUSH1 0x20 DUP4 ADD CALLDATALOAD PUSH8 0xFFFFFFFFFFFFFFFF DUP2 GT ISZERO PUSH2 0x1E7B JUMPI PUSH1 0x0 DUP1 REVERT JUMPDEST PUSH2 0x1E87 DUP6 DUP3 DUP7 ADD PUSH2 0x1DCC JUMP JUMPDEST SWAP2 POP POP SWAP3 POP SWAP3 SWAP1 POP JUMP JUMPDEST PUSH1 0x0 PUSH1 0x20 DUP3 DUP5 SUB SLT ISZERO PUSH2 0x1EA3 JUMPI PUSH1 0x0 DUP1 REVERT JUMPDEST PUSH2 0x1019 DUP3 PUSH2 0x1CB9 JUMP JUMPDEST PUSH1 0x20 DUP2 MSTORE DUP2 MLOAD PUSH1 0x20 DUP3 ADD MSTORE PUSH1 0x0 PUSH1 0x20 DUP4 ADD MLOAD PUSH2 0x1ED3 PUSH1 0x40 DUP5 ADD DUP3 PUSH1 0x1 PUSH1 0x1 PUSH1 0xA0 SHL SUB AND SWAP1 MSTORE JUMP JUMPDEST POP PUSH1 0x40 DUP4 ADD MLOAD PUSH2 0x120 PUSH1 0x60 DUP5 ADD MSTORE PUSH2 0x1EEF PUSH2 0x140 DUP5 ADD DUP3 PUSH2 0x1C61 JUMP JUMPDEST SWAP1 POP PUSH1 0x60 DUP5 ADD MLOAD PUSH1 0x1F NOT DUP5 DUP4 SUB ADD PUSH1 0x80 DUP6 ADD MSTORE PUSH2 0x1F0C DUP3 DUP3 PUSH2 0x1C61 JUMP JUMPDEST SWAP2 POP POP PUSH1 0x80 DUP5 ADD MLOAD PUSH1 0xA0 DUP5 ADD MSTORE PUSH1 0xA0 DUP5 ADD MLOAD PUSH1 0xC0 DUP5 ADD MSTORE PUSH1 0xC0 DUP5 ADD MLOAD PUSH1 0xE0 DUP5 ADD MSTORE PUSH1 0xE0 DUP5 ADD MLOAD PUSH2 0x100 DUP5 ADD MSTORE PUSH2 0x100 DUP5 ADD MLOAD PUSH2 0x17E2 PUSH2 0x120 DUP6 ADD DUP3 ISZERO ISZERO SWAP1 MSTORE JUMP JUMPDEST PUSH1 0x0 DUP1 PUSH1 0x40 DUP4 DUP6 SUB SLT ISZERO PUSH2 0x1F60 JUMPI PUSH1 0x0 DUP1 REVERT JUMPDEST PUSH2 0x1F69 DUP4 PUSH2 0x1CB9 JUMP JUMPDEST SWAP2 POP PUSH1 0x20 DUP4 ADD CALLDATALOAD DUP1 ISZERO ISZERO DUP2 EQ PUSH2 0x1F7E JUMPI PUSH1 0x0 DUP1 REVERT JUMPDEST DUP1 SWAP2 POP POP SWAP3 POP SWAP3 SWAP1 POP JUMP JUMPDEST PUSH1 0x0 DUP1 PUSH1 0x0 DUP1 PUSH1 0x80 DUP6 DUP8 SUB SLT ISZERO PUSH2 0x1F9F JUMPI PUSH1 0x0 DUP1 REVERT JUMPDEST PUSH2 0x1FA8 DUP6 PUSH2 0x1CB9 JUMP JUMPDEST SWAP4 POP PUSH2 0x1FB6 PUSH1 0x20 DUP7 ADD PUSH2 0x1CB9 JUMP JUMPDEST SWAP3 POP PUSH1 0x40 DUP6 ADD CALLDATALOAD SWAP2 POP PUSH1 0x60 DUP6 ADD CALLDATALOAD PUSH8 0xFFFFFFFFFFFFFFFF DUP2 GT ISZERO PUSH2 0x1FD9 JUMPI PUSH1 0x0 DUP1 REVERT JUMPDEST DUP6 ADD PUSH1 0x1F DUP2 ADD DUP8 SGT PUSH2 0x1FEA JUMPI PUSH1 0x0 DUP1 REVERT JUMPDEST PUSH2 0x1FF9 DUP8 DUP3 CALLDATALOAD PUSH1 0x20 DUP5 ADD PUSH2 0x1D52 JUMP JUMPDEST SWAP2 POP POP SWAP3 SWAP6 SWAP2 SWAP5 POP SWAP3 POP JUMP JUMPDEST PUSH1 0x0 DUP1 PUSH1 0x40 DUP4 DUP6 SUB SLT ISZERO PUSH2 0x2018 JUMPI PUSH1 0x0 DUP1 REVERT JUMPDEST POP POP DUP1 CALLDATALOAD SWAP3 PUSH1 0x20 SWAP1 SWAP2 ADD CALLDATALOAD SWAP2 POP JUMP JUMPDEST PUSH1 0x0 DUP1 PUSH1 0x40 DUP4 DUP6 SUB SLT ISZERO PUSH2 0x203A JUMPI PUSH1 0x0 DUP1 REVERT JUMPDEST PUSH2 0x2043 DUP4 PUSH2 0x1CB9 JUMP JUMPDEST SWAP2 POP PUSH2 0x2051 PUSH1 0x20 DUP5 ADD PUSH2 0x1CB9 JUMP JUMPDEST SWAP1 POP SWAP3 POP SWAP3 SWAP1 POP JUMP JUMPDEST PUSH1 0x1 DUP2 DUP2 SHR SWAP1 DUP3 AND DUP1 PUSH2 0x206E JUMPI PUSH1 0x7F DUP3 AND SWAP2 POP JUMPDEST PUSH1 0x20 DUP3 LT DUP2 SUB PUSH2 0x208E JUMPI PUSH4 0x4E487B71 PUSH1 0xE0 SHL PUSH1 0x0 MSTORE PUSH1 0x22 PUSH1 0x4 MSTORE PUSH1 0x24 PUSH1 0x0 REVERT JUMPDEST POP SWAP2 SWAP1 POP JUMP JUMPDEST PUSH1 0x20 DUP1 DUP3 MSTORE PUSH1 0x2D SWAP1 DUP3 ADD MSTORE PUSH32 0x4552433732313A2063616C6C6572206973206E6F7420746F6B656E206F776E65 PUSH1 0x40 DUP3 ADD MSTORE PUSH13 0x1C881BDC88185C1C1C9BDD9959 PUSH1 0x9A SHL PUSH1 0x60 DUP3 ADD MSTORE PUSH1 0x80 ADD SWAP1 JUMP JUMPDEST PUSH4 0x4E487B71 PUSH1 0xE0 SHL PUSH1 0x0 MSTORE PUSH1 0x11 PUSH1 0x4 MSTORE PUSH1 0x24 PUSH1 0x0 REVERT JUMPDEST DUP2 DUP2 SUB DUP2 DUP2 GT ISZERO PUSH2 0x3B5 JUMPI PUSH2 0x3B5 PUSH2 0x20E1 JUMP JUMPDEST PUSH1 0x1F DUP3 GT ISZERO PUSH2 0x589 JUMPI DUP1 PUSH1 0x0 MSTORE PUSH1 0x20 PUSH1 0x0 KECCAK256 PUSH1 0x1F DUP5 ADD PUSH1 0x5 SHR DUP2 ADD PUSH1 0x20 DUP6 LT ISZERO PUSH2 0x2131 JUMPI POP DUP1 JUMPDEST PUSH1 0x1F DUP5 ADD PUSH1 0x5 SHR DUP3 ADD SWAP2 POP JUMPDEST DUP2 DUP2 LT ISZERO PUSH2 0x2151 JUMPI PUSH1 0x0 DUP2 SSTORE PUSH1 0x1 ADD PUSH2 0x213D JUMP JUMPDEST POP POP POP POP POP JUMP JUMPDEST DUP2 MLOAD PUSH8 0xFFFFFFFFFFFFFFFF DUP2 GT ISZERO PUSH2 0x2172 JUMPI PUSH2 0x2172 PUSH2 0x1D3C JUMP JUMPDEST PUSH2 0x2186 DUP2 PUSH2 0x2180 DUP5 SLOAD PUSH2 0x205A JUMP JUMPDEST DUP5 PUSH2 0x210A JUMP JUMPDEST PUSH1 0x20 PUSH1 0x1F DUP3 GT PUSH1 0x1 DUP2 EQ PUSH2 0x21BA JUMPI PUSH1 0x0 DUP4 ISZERO PUSH2 0x21A2 JUMPI POP DUP5 DUP3 ADD MLOAD JUMPDEST PUSH1 0x0 NOT PUSH1 0x3 DUP6 SWAP1 SHL SHR NOT AND PUSH1 0x1 DUP5 SWAP1 SHL OR DUP5 SSTORE PUSH2 0x2151 JUMP JUMPDEST PUSH1 0x0 DUP5 DUP2 MSTORE PUSH1 0x20 DUP2 KECCAK256 PUSH1 0x1F NOT DUP6 AND SWAP2 JUMPDEST DUP3 DUP2 LT ISZERO PUSH2 0x21EA JUMPI DUP8 DUP6 ADD MLOAD DUP3 SSTORE PUSH1 0x20 SWAP5 DUP6 ADD SWAP5 PUSH1 0x1 SWAP1 SWAP3 ADD SWAP2 ADD PUSH2 0x21CA JUMP JUMPDEST POP DUP5 DUP3 LT ISZERO PUSH2 0x2208 JUMPI DUP7 DUP5 ADD MLOAD PUSH1 0x0 NOT PUSH1 0x3 DUP8 SWAP1 SHL PUSH1 0xF8 AND SHR NOT AND DUP2 SSTORE JUMPDEST POP POP POP POP PUSH1 0x1 SWAP1 DUP2 SHL ADD SWAP1 SSTORE POP JUMP JUMPDEST PUSH1 0x0 PUSH1 0x1 DUP3 ADD PUSH2 0x2229 JUMPI PUSH2 0x2229 PUSH2 0x20E1 JUMP JUMPDEST POP PUSH1 0x1 ADD SWAP1 JUMP JUMPDEST PUSH1 0x20 DUP1 DUP3 MSTORE PUSH1 0x13 SWAP1 DUP3 ADD MSTORE PUSH19 0x1154D25348191BD95CC81B9BDD08195E1A5CDD PUSH1 0x6A SHL PUSH1 0x40 DUP3 ADD MSTORE PUSH1 0x60 ADD SWAP1 JUMP JUMPDEST PUSH1 0x0 DUP4 MLOAD PUSH2 0x226F DUP2 DUP5 PUSH1 0x20 DUP9 ADD PUSH2 0x1C3D JUMP JUMPDEST DUP4 MLOAD SWAP1 DUP4 ADD SWAP1 PUSH2 0x2283 DUP2 DUP4 PUSH1 0x20 DUP9 ADD PUSH2 0x1C3D JUMP JUMPDEST ADD SWAP5 SWAP4 POP POP POP POP JUMP JUMPDEST PUSH1 0x20 DUP1 DUP3 MSTORE PUSH1 0x25 SWAP1 DUP3 ADD MSTORE PUSH32 0x4552433732313A207472616E736665722066726F6D20696E636F727265637420 PUSH1 0x40 DUP3 ADD MSTORE PUSH5 0x37BBB732B9 PUSH1 0xD9 SHL PUSH1 0x60 DUP3 ADD MSTORE PUSH1 0x80 ADD SWAP1 JUMP JUMPDEST PUSH1 0x20 DUP1 DUP3 MSTORE PUSH1 0x32 SWAP1 DUP3 ADD MSTORE PUSH32 0x4552433732313A207472616E7366657220746F206E6F6E204552433732315265 PUSH1 0x40 DUP3 ADD MSTORE PUSH18 0x31B2B4BB32B91034B6B83632B6B2B73A32B9 PUSH1 0x71 SHL PUSH1 0x60 DUP3 ADD MSTORE PUSH1 0x80 ADD SWAP1 JUMP JUMPDEST PUSH1 0x1 PUSH1 0x1 PUSH1 0xA0 SHL SUB DUP6 DUP2 AND DUP3 MSTORE DUP5 AND PUSH1 0x20 DUP3 ADD MSTORE PUSH1 0x40 DUP2 ADD DUP4 SWAP1 MSTORE PUSH1 0x80 PUSH1 0x60 DUP3 ADD DUP2 SWAP1 MSTORE PUSH1 0x0 SWAP1 PUSH2 0x2356 SWAP1 DUP4 ADD DUP5 PUSH2 0x1C61 JUMP JUMPDEST SWAP7 SWAP6 POP POP POP POP POP POP JUMP JUMPDEST PUSH1 0x0 PUSH1 0x20 DUP3 DUP5 SUB SLT ISZERO PUSH2 0x2372 JUMPI PUSH1 0x0 DUP1 REVERT JUMPDEST DUP2 MLOAD PUSH2 0x1019 DUP2 PUSH2 0x1C0A JUMP INVALID LOG2 PUSH5 0x6970667358 0x22 SLT KECCAK256 DUP16 BLOBBASEFEE 0xC4 SGT 0xAC 0xE8 0x4E MUL PUSH3 0x9253FE PUSH29 0x5D1F58ED8FFC41742F22AEF367AAAB969B18A364736F6C634300081C00 CALLER "},"methodIdentifiers":{"activateESIM(uint256)":"6032abfa","allocateBandwidth(uint256,uint256)":"cfb981fa","approve(address,uint256)":"095ea7b3","balanceOf(address)":"70a08231","deactivateESIM(uint256)":"bc36d586","getApproved(uint256)":"081812fc","getESIM(uint256)":"9c2dbfd9","isApprovedForAll(address,address)":"e985e9c5","mintESIM(address,string,uint256,bytes32)":"3024b59a","name()":"06fdde03","owner()":"8da5cb5b","ownerOf(uint256)":"6352211e","pause()":"8456cb59","paused()":"5c975abb","renounceOwnership()":"715018a6","safeTransferFrom(address,address,uint256)":"42842e0e","safeTransferFrom(address,address,uint256,bytes)":"b88d4fde","setApprovalForAll(address,bool)":"a22cb465","supportsInterface(bytes4)":"01ffc9a7","symbol()":"95d89b41","tokenURI(uint256)":"c87b56dd","transferFrom(address,address,uint256)":"23b872dd","transferOwnership(address)":"f2fde38b","unpause()":"3f4ba83a","updateMetadata(uint256,string)":"53c8388e"}},"storageLayout":{"storage":[{"astId":700,"contract":"contracts/EnhancedDynamicESIMNFT.sol:EnhancedDynamicESIMNFT","label":"_name","offset":0,"slot":"0","type":"t_string_storage"},{"astId":702,"contract":"contracts/EnhancedDynamicESIMNFT.sol:EnhancedDynamicESIMNFT","label":"_symbol","offset":0,"slot":"1","type":"t_string_storage"},{"astId":706,"contract":"contracts/EnhancedDynamicESIMNFT.sol:EnhancedDynamicESIMNFT","label":"_owners","offset":0,"slot":"2","type":"t_mapping(t_uint256,t_address)"},{"astId":710,"contract":"contracts/EnhancedDynamicESIMNFT.sol:EnhancedDynamicESIMNFT","label":"_balances","offset":0,"slot":"3","type":"t_mapping(t_address,t_uint256)"},{"astId":714,"contract":"contracts/EnhancedDynamicESIMNFT.sol:EnhancedDynamicESIMNFT","label":"_tokenApprovals","offset":0,"slot":"4","type":"t_mapping(t_uint256,t_address)"},{"astId":720,"contract":"contracts/EnhancedDynamicESIMNFT.sol:EnhancedDynamicESIMNFT","label":"_operatorApprovals","offset":0,"slot":"5","type":"t_mapping(t_address,t_mapping(t_address,t_bool))"},{"astId":396,"contract":"contracts/EnhancedDynamicESIMNFT.sol:EnhancedDynamicESIMNFT","label":"_owner","offset":0,"slot":"6","type":"t_address"},{"astId":620,"contract":"contracts/EnhancedDynamicESIMNFT.sol:EnhancedDynamicESIMNFT","label":"_status","offset":0,"slot":"7","type":"t_uint256"},{"astId":519,"contract":"contracts/EnhancedDynamicESIMNFT.sol:EnhancedDynamicESIMNFT","label":"_paused","offset":0,"slot":"8","type":"t_bool"},{"astId":3925,"contract":"contracts/EnhancedDynamicESIMNFT.sol:EnhancedDynamicESIMNFT","label":"_tokenIds","offset":0,"slot":"9","type":"t_struct(Counter)2128_storage"},{"astId":3958,"contract":"contracts/EnhancedDynamicESIMNFT.sol:EnhancedDynamicESIMNFT","label":"esims","offset":0,"slot":"10","type":"t_mapping(t_uint256,t_struct(ESIM)3953_storage)"},{"astId":3962,"contract":"contracts/EnhancedDynamicESIMNFT.sol:EnhancedDynamicESIMNFT","label":"mintingHistory","offset":0,"slot":"11","type":"t_mapping(t_address,t_uint256)"},{"astId":3966,"contract":"contracts/EnhancedDynamicESIMNFT.sol:EnhancedDynamicESIMNFT","label":"lastMintTimestamp","offset":0,"slot":"12","type":"t_mapping(t_address,t_uint256)"},{"astId":3970,"contract":"contracts/EnhancedDynamicESIMNFT.sol:EnhancedDynamicESIMNFT","label":"usedQuantumSignatures","offset":0,"slot":"13","type":"t_mapping(t_bytes32,t_bool)"}],"types":{"t_address":{"encoding":"inplace","label":"address","numberOfBytes":"20"},"t_bool":{"encoding":"inplace","label":"bool","numberOfBytes":"1"},"t_bytes32":{"encoding":"inplace","label":"bytes32","numberOfBytes":"32"},"t_mapping(t_address,t_bool)":{"encoding":"mapping","key":"t_address","label":"mapping(address => bool)","numberOfBytes":"32","value":"t_bool"},"t_mapping(t_address,t_mapping(t_address,t_bool))":{"encoding":"mapping","key":"t_address","label":"mapping(address => mapping(address => bool))","numberOfBytes":"32","value":"t_mapping(t_address,t_bool)"},"t_mapping(t_address,t_uint256)":{"encoding":"mapping","key":"t_address","label":"mapping(address => uint256)","numberOfBytes":"32","value":"t_uint256"},"t_mapping(t_bytes32,t_bool)":{"encoding":"mapping","key":"t_bytes32","label":"mapping(bytes32 => bool)","numberOfBytes":"32","value":"t_bool"},"t_mapping(t_uint256,t_address)":{"encoding":"mapping","key":"t_uint256","label":"mapping(uint256 => address)","numberOfBytes":"32","value":"t_address"},"t_mapping(t_uint256,t_struct(ESIM)3953_storage)":{"encoding":"mapping","key":"t_uint256","label":"mapping(uint256 => struct EnhancedDynamicESIMNFT.ESIM)","numberOfBytes":"32","value":"t_struct(ESIM)3953_storage"},"t_string_storage":{"encoding":"bytes","label":"string","numberOfBytes":"32"},"t_struct(Counter)2128_storage":{"encoding":"inplace","label":"struct Counters.Counter","members":[{"astId":2127,"contract":"contracts/EnhancedDynamicESIMNFT.sol:EnhancedDynamicESIMNFT","label":"_value","offset":0,"slot":"0","type":"t_uint256"}],"numberOfBytes":"32"},"t_struct(ESIM)3953_storage":{"encoding":"inplace","label":"struct EnhancedDynamicESIMNFT.ESIM","members":[{"astId":3936,"contract":"contracts/EnhancedDynamicESIMNFT.sol:EnhancedDynamicESIMNFT","label":"id","offset":0,"slot":"0","type":"t_uint256"},{"astId":3938,"contract":"contracts/EnhancedDynamicESIMNFT.sol:EnhancedDynamicESIMNFT","label":"owner","offset":0,"slot":"1","type":"t_address"},{"astId":3940,"contract":"contracts/EnhancedDynamicESIMNFT.sol:EnhancedDynamicESIMNFT","label":"status","offset":0,"slot":"2","type":"t_string_storage"},{"astId":3942,"contract":"contracts/EnhancedDynamicESIMNFT.sol:EnhancedDynamicESIMNFT","label":"metadata","offset":0,"slot":"3","type":"t_string_storage"},{"astId":3944,"contract":"contracts/EnhancedDynamicESIMNFT.sol:EnhancedDynamicESIMNFT","label":"bandwidth","offset":0,"slot":"4","type":"t_uint256"},{"astId":3946,"contract":"contracts/EnhancedDynamicESIMNFT.sol:EnhancedDynamicESIMNFT","label":"lastUpdated","offset":0,"slot":"5","type":"t_uint256"},{"astId":3948,"contract":"contracts/EnhancedDynamicESIMNFT.sol:EnhancedDynamicESIMNFT","label":"quantumSignature","offset":0,"slot":"6","type":"t_bytes32"},{"astId":3950,"contract":"contracts/EnhancedDynamicESIMNFT.sol:EnhancedDynamicESIMNFT","label":"activationTimestamp","offset":0,"slot":"7","type":"t_uint256"},{"astId":3952,"contract":"contracts/EnhancedDynamicESIMNFT.sol:EnhancedDynamicESIMNFT","label":"isActive","offset":0,"slot":"8","type":"t_bool"}],"numberOfBytes":"288"},"t_uint256":{"encoding":"inplace","label":"uint256","numberOfBytes":"32"}}}}}}