{
  "_format": "hh-sol-artifact-1",
  "contractName": "ESIMManager",
  "sourceName": "contracts/ESIM.sol",
  "abi": [
    {
      "inputs": [
        {
          "internalType": "address",
          "name": "_owner",
          "type": "address"
        }
      ],
      "stateMutability": "nonpayable",
      "type": "constructor"
    },
    {
      "anonymous": false,
      "inputs": [
        {
          "indexed": false,
          "internalType": "uint256",
          "name": "id",
          "type": "uint256"
        },
        {
          "indexed": false,
          "internalType": "uint256",
          "name": "amount",
          "type": "uint256"
        }
      ],
      "name": "DataBalanceToppedUp",
      "type": "event"
    },
    {
      "anonymous": false,
      "inputs": [
        {
          "indexed": false,
          "internalType": "uint256",
          "name": "id",
          "type": "uint256"
        },
        {
          "indexed": false,
          "internalType": "string",
          "name": "imsi",
          "type": "string"
        },
        {
          "indexed": false,
          "internalType": "address",
          "name": "owner",
          "type": "address"
        }
      ],
      "name": "ESIMMinted",
      "type": "event"
    },
    {
      "anonymous": false,
      "inputs": [
        {
          "indexed": false,
          "internalType": "uint256",
          "name": "id",
          "type": "uint256"
        },
        {
          "indexed": false,
          "internalType": "address",
          "name": "newOwner",
          "type": "address"
        }
      ],
      "name": "ESIMTransferred",
      "type": "event"
    },
    {
      "inputs": [
        {
          "internalType": "uint256",
          "name": "",
          "type": "uint256"
        }
      ],
      "name": "esims",
      "outputs": [
        {
          "internalType": "uint256",
          "name": "id",
          "type": "uint256"
        },
        {
          "internalType": "string",
          "name": "imsi",
          "type": "string"
        },
        {
          "internalType": "address",
          "name": "owner",
          "type": "address"
        },
        {
          "internalType": "uint256",
          "name": "dataBalance",
          "type": "uint256"
        }
      ],
      "stateMutability": "view",
      "type": "function"
    },
    {
      "inputs": [],
      "name": "maxDataBalance",
      "outputs": [
        {
          "internalType": "uint256",
          "name": "",
          "type": "uint256"
        }
      ],
      "stateMutability": "view",
      "type": "function"
    },
    {
      "inputs": [
        {
          "internalType": "uint256",
          "name": "_id",
          "type": "uint256"
        },
        {
          "internalType": "string",
          "name": "_imsi",
          "type": "string"
        }
      ],
      "name": "mintESIM",
      "outputs": [],
      "stateMutability": "nonpayable",
      "type": "function"
    },
    {
      "inputs": [],
      "name": "owner",
      "outputs": [
        {
          "internalType": "address",
          "name": "",
          "type": "address"
        }
      ],
      "stateMutability": "view",
      "type": "function"
    },
    {
      "inputs": [
        {
          "internalType": "uint256",
          "name": "_id",
          "type": "uint256"
        },
        {
          "internalType": "uint256",
          "name": "_amount",
          "type": "uint256"
        }
      ],
      "name": "topUp",
      "outputs": [],
      "stateMutability": "nonpayable",
      "type": "function"
    },
    {
      "inputs": [
        {
          "internalType": "uint256",
          "name": "_id",
          "type": "uint256"
        },
        {
          "internalType": "address",
          "name": "_newOwner",
          "type": "address"
        }
      ],
      "name": "transferESIM",
      "outputs": [],
      "stateMutability": "nonpayable",
      "type": "function"
    }
  ],
  "bytecode": "0x6080604052620186a0600155348015601657600080fd5b506040516109983803806109988339810160408190526033916057565b600080546001600160a01b0319166001600160a01b03929092169190911790556085565b600060208284031215606857600080fd5b81516001600160a01b0381168114607e57600080fd5b9392505050565b610904806100946000396000f3fe608060405234801561001057600080fd5b50600436106100625760003560e01c80631f00ae61146100675780638da5cb5b14610093578063a31842dc146100be578063ce2560cf146100d5578063de643a71146100ea578063df7da0ea146100fd575b600080fd5b61007a610075366004610563565b610110565b60405161008a94939291906105c2565b60405180910390f35b6000546100a6906001600160a01b031681565b6040516001600160a01b03909116815260200161008a565b6100c760015481565b60405190815260200161008a565b6100e86100e33660046105f7565b6101cb565b005b6100e86100f8366004610633565b610294565b6100e861010b36600461066b565b610401565b600260205260009081526040902080546001820180549192916101329061072e565b80601f016020809104026020016040519081016040528092919081815260200182805461015e9061072e565b80156101ab5780601f10610180576101008083540402835291602001916101ab565b820191906000526020600020905b81548152906001019060200180831161018e57829003601f168201915b50505050600283015460039093015491926001600160a01b031691905084565b600082815260026020819052604090912001546001600160a01b0316331461022a5760405162461bcd60e51b815260206004820152600d60248201526c2737ba103a34329037bbb732b960991b60448201526064015b60405180910390fd5b60008281526002602081815260409283902090910180546001600160a01b0319166001600160a01b0385169081179091558251858152918201527f04cfc69f2e810091f127fbef4f9b9888f514c95935a3c8088a2c27b080aa009f91015b60405180910390a15050565b60008281526002602052604081205490036102e75760405162461bcd60e51b81526020600482015260136024820152721954d25348191bd95cc81b9bdd08195e1a5cdd606a1b6044820152606401610221565b600081116103375760405162461bcd60e51b815260206004820152601d60248201527f416d6f756e74206d7573742062652067726561746572207468616e20300000006044820152606401610221565b600154600083815260026020526040902060030154610357908390610768565b11156103a55760405162461bcd60e51b815260206004820152601a60248201527f446174612062616c616e63652065786365656473206c696d69740000000000006044820152606401610221565b600082815260026020526040812060030180548392906103c6908490610768565b909155505060408051838152602081018390527fdb9a256683762bd49606875c98e07efb9a71cdced169174a2cd1e6cb54f314d19101610288565b6000546001600160a01b031633146104655760405162461bcd60e51b815260206004820152602160248201527f4f6e6c79206f776e65722063616e2063616c6c20746869732066756e6374696f6044820152603760f91b6064820152608401610221565b600082815260026020526040902054156104b75760405162461bcd60e51b81526020600482015260136024820152726553494d20616c72656164792065786973747360681b6044820152606401610221565b6040805160808101825283815260208082018481523383850152600060608401819052868152600290925292902081518155915190919060018201906104fd90826107de565b506040828101516002830180546001600160a01b0319166001600160a01b03909216919091179055606090920151600390910155517f2deb612532ac4570cce6168d0fe577d994e0bb5bc6669b26de325e19fb79ce65906102889084908490339061089d565b60006020828403121561057557600080fd5b5035919050565b6000815180845260005b818110156105a257602081850181015186830182015201610586565b506000602082860101526020601f19601f83011685010191505092915050565b8481526080602082015260006105db608083018661057c565b6001600160a01b03949094166040830152506060015292915050565b6000806040838503121561060a57600080fd5b8235915060208301356001600160a01b038116811461062857600080fd5b809150509250929050565b6000806040838503121561064657600080fd5b50508035926020909101359150565b634e487b7160e01b600052604160045260246000fd5b6000806040838503121561067e57600080fd5b82359150602083013567ffffffffffffffff81111561069c57600080fd5b8301601f810185136106ad57600080fd5b803567ffffffffffffffff8111156106c7576106c7610655565b604051601f8201601f19908116603f0116810167ffffffffffffffff811182821017156106f6576106f6610655565b60405281815282820160200187101561070e57600080fd5b816020840160208301376000602083830101528093505050509250929050565b600181811c9082168061074257607f821691505b60208210810361076257634e487b7160e01b600052602260045260246000fd5b50919050565b8082018082111561078957634e487b7160e01b600052601160045260246000fd5b92915050565b601f8211156107d957806000526020600020601f840160051c810160208510156107b65750805b601f840160051c820191505b818110156107d657600081556001016107c2565b50505b505050565b815167ffffffffffffffff8111156107f8576107f8610655565b61080c81610806845461072e565b8461078f565b6020601f82116001811461084057600083156108285750848201515b600019600385901b1c1916600184901b1784556107d6565b600084815260208120601f198516915b828110156108705787850151825560209485019460019092019101610850565b508482101561088e5786840151600019600387901b60f8161c191681555b50505050600190811b01905550565b8381526060602082015260006108b6606083018561057c565b905060018060a01b038316604083015294935050505056fea2646970667358221220799bb19b8c19f26ded74d59871fdde0e962db70ded26dc5bb377d8522d13f8b964736f6c634300081c0033",
  "linkReferences": {},
  "deployedLinkReferences": {}
}