{
  "_format": "hh-sol-artifact-1",
  "contractName": "ESIMManager",
  "sourceName": "contracts/ESIM.sol",
  "abi": [
    {
      "inputs": [
        {
          "internalType": "uint256",
          "name": "",
          "type": "uint256"
        }
      ],
      "name": "esims",
      "outputs": [
        {
          "internalType": "uint256",
          "name": "id",
          "type": "uint256"
        },
        {
          "internalType": "string",
          "name": "imsi",
          "type": "string"
        },
        {
          "internalType": "address",
          "name": "owner",
          "type": "address"
        },
        {
          "internalType": "uint256",
          "name": "dataBalance",
          "type": "uint256"
        }
      ],
      "stateMutability": "view",
      "type": "function"
    },
    {
      "inputs": [
        {
          "internalType": "uint256",
          "name": "_id",
          "type": "uint256"
        },
        {
          "internalType": "string",
          "name": "_imsi",
          "type": "string"
        }
      ],
      "name": "mintESIM",
      "outputs": [],
      "stateMutability": "nonpayable",
      "type": "function"
    },
    {
      "inputs": [
        {
          "internalType": "uint256",
          "name": "_id",
          "type": "uint256"
        },
        {
          "internalType": "uint256",
          "name": "_amount",
          "type": "uint256"
        }
      ],
      "name": "topUp",
      "outputs": [],
      "stateMutability": "nonpayable",
      "type": "function"
    },
    {
      "inputs": [
        {
          "internalType": "uint256",
          "name": "_id",
          "type": "uint256"
        },
        {
          "internalType": "address",
          "name": "_newOwner",
          "type": "address"
        }
      ],
      "name": "transferESIM",
      "outputs": [],
      "stateMutability": "nonpayable",
      "type": "function"
    }
  ],
  "bytecode": "0x6080604052348015600f57600080fd5b506106af8061001f6000396000f3fe608060405234801561001057600080fd5b506004361061004c5760003560e01c80631f00ae6114610051578063ce2560cf1461007d578063de643a7114610092578063df7da0ea146100a5575b600080fd5b61006461005f36600461034d565b6100b8565b6040516100749493929190610366565b60405180910390f35b61009061008b3660046103d3565b610173565b005b6100906100a036600461040f565b610202565b6100906100b3366004610447565b61027f565b600060208190529081526040902080546001820180549192916100da9061050a565b80601f01602080910402602001604051908101604052809291908181526020018280546101069061050a565b80156101535780601f1061012857610100808354040283529160200191610153565b820191906000526020600020905b81548152906001019060200180831161013657829003601f168201915b50505050600283015460039093015491926001600160a01b031691905084565b6000828152602081905260409020600201546001600160a01b031633146101d15760405162461bcd60e51b815260206004820152600d60248201526c2737ba103a34329037bbb732b960991b60448201526064015b60405180910390fd5b60009182526020829052604090912060020180546001600160a01b0319166001600160a01b03909216919091179055565b60008281526020819052604081205490036102555760405162461bcd60e51b81526020600482015260136024820152721954d25348191bd95cc81b9bdd08195e1a5cdd606a1b60448201526064016101c8565b60008281526020819052604081206003018054839290610276908490610544565b90915550505050565b600082815260208190526040902054156102d15760405162461bcd60e51b81526020600482015260136024820152726553494d20616c72656164792065786973747360681b60448201526064016101c8565b604080516080810182528381526020808201848152338385015260006060840181905286815291829052929020815181559151909190600182019061031690826105ba565b5060408201516002820180546001600160a01b0319166001600160a01b039092169190911790556060909101516003909101555050565b60006020828403121561035f57600080fd5b5035919050565b848152608060208201526000845180608084015260005b8181101561039a57602081880181015160a086840101520161037d565b50600060a08285018101919091526001600160a01b03959095166040840152606083019390935250601f909101601f1916010192915050565b600080604083850312156103e657600080fd5b8235915060208301356001600160a01b038116811461040457600080fd5b809150509250929050565b6000806040838503121561042257600080fd5b50508035926020909101359150565b634e487b7160e01b600052604160045260246000fd5b6000806040838503121561045a57600080fd5b82359150602083013567ffffffffffffffff81111561047857600080fd5b8301601f8101851361048957600080fd5b803567ffffffffffffffff8111156104a3576104a3610431565b604051601f8201601f19908116603f0116810167ffffffffffffffff811182821017156104d2576104d2610431565b6040528181528282016020018710156104ea57600080fd5b816020840160208301376000602083830101528093505050509250929050565b600181811c9082168061051e57607f821691505b60208210810361053e57634e487b7160e01b600052602260045260246000fd5b50919050565b8082018082111561056557634e487b7160e01b600052601160045260246000fd5b92915050565b601f8211156105b557806000526020600020601f840160051c810160208510156105925750805b601f840160051c820191505b818110156105b2576000815560010161059e565b50505b505050565b815167ffffffffffffffff8111156105d4576105d4610431565b6105e8816105e2845461050a565b8461056b565b6020601f82116001811461061c57600083156106045750848201515b600019600385901b1c1916600184901b1784556105b2565b600084815260208120601f198516915b8281101561064c578785015182556020948501946001909201910161062c565b508482101561066a5786840151600019600387901b60f8161c191681555b50505050600190811b0190555056fea2646970667358221220059663c87c5ad3a9d4262836bef9f6ec0abc395128ca5686a48e6add355cc78764736f6c634300081c0033",
  "linkReferences": {},
  "deployedLinkReferences": {}
}