{
  "_format": "hh-sol-artifact-1",
  "contractName": "EnhancedDynamicESIMNFT",
  "sourceName": "contracts/EnhancedDynamicESIMNFT.sol",
  "abi": [
    {
      "inputs": [],
      "stateMutability": "nonpayable",
      "type": "constructor"
    },
    {
      "anonymous": false,
      "inputs": [
        {
          "indexed": true,
          "internalType": "address",
          "name": "owner",
          "type": "address"
        },
        {
          "indexed": true,
          "internalType": "address",
          "name": "approved",
          "type": "address"
        },
        {
          "indexed": true,
          "internalType": "uint256",
          "name": "tokenId",
          "type": "uint256"
        }
      ],
      "name": "Approval",
      "type": "event"
    },
    {
      "anonymous": false,
      "inputs": [
        {
          "indexed": true,
          "internalType": "address",
          "name": "owner",
          "type": "address"
        },
        {
          "indexed": true,
          "internalType": "address",
          "name": "operator",
          "type": "address"
        },
        {
          "indexed": false,
          "internalType": "bool",
          "name": "approved",
          "type": "bool"
        }
      ],
      "name": "ApprovalForAll",
      "type": "event"
    },
    {
      "anonymous": false,
      "inputs": [
        {
          "indexed": true,
          "internalType": "uint256",
          "name": "tokenId",
          "type": "uint256"
        },
        {
          "indexed": false,
          "internalType": "uint256",
          "name": "amount",
          "type": "uint256"
        }
      ],
      "name": "BandwidthAllocated",
      "type": "event"
    },
    {
      "anonymous": false,
      "inputs": [
        {
          "indexed": true,
          "internalType": "uint256",
          "name": "tokenId",
          "type": "uint256"
        },
        {
          "indexed": false,
          "internalType": "uint256",
          "name": "timestamp",
          "type": "uint256"
        }
      ],
      "name": "ESIMActivated",
      "type": "event"
    },
    {
      "anonymous": false,
      "inputs": [
        {
          "indexed": true,
          "internalType": "uint256",
          "name": "tokenId",
          "type": "uint256"
        },
        {
          "indexed": false,
          "internalType": "uint256",
          "name": "timestamp",
          "type": "uint256"
        }
      ],
      "name": "ESIMDeactivated",
      "type": "event"
    },
    {
      "anonymous": false,
      "inputs": [
        {
          "indexed": true,
          "internalType": "uint256",
          "name": "tokenId",
          "type": "uint256"
        },
        {
          "indexed": true,
          "internalType": "address",
          "name": "owner",
          "type": "address"
        },
        {
          "indexed": false,
          "internalType": "uint256",
          "name": "bandwidth",
          "type": "uint256"
        }
      ],
      "name": "ESIMMinted",
      "type": "event"
    },
    {
      "anonymous": false,
      "inputs": [
        {
          "indexed": true,
          "internalType": "uint256",
          "name": "tokenId",
          "type": "uint256"
        },
        {
          "indexed": false,
          "internalType": "string",
          "name": "newStatus",
          "type": "string"
        }
      ],
      "name": "ESIMStatusUpdated",
      "type": "event"
    },
    {
      "anonymous": false,
      "inputs": [
        {
          "indexed": true,
          "internalType": "address",
          "name": "previousOwner",
          "type": "address"
        },
        {
          "indexed": true,
          "internalType": "address",
          "name": "newOwner",
          "type": "address"
        }
      ],
      "name": "OwnershipTransferred",
      "type": "event"
    },
    {
      "anonymous": false,
      "inputs": [
        {
          "indexed": false,
          "internalType": "address",
          "name": "account",
          "type": "address"
        }
      ],
      "name": "Paused",
      "type": "event"
    },
    {
      "anonymous": false,
      "inputs": [
        {
          "indexed": true,
          "internalType": "address",
          "name": "from",
          "type": "address"
        },
        {
          "indexed": true,
          "internalType": "address",
          "name": "to",
          "type": "address"
        },
        {
          "indexed": true,
          "internalType": "uint256",
          "name": "tokenId",
          "type": "uint256"
        }
      ],
      "name": "Transfer",
      "type": "event"
    },
    {
      "anonymous": false,
      "inputs": [
        {
          "indexed": false,
          "internalType": "address",
          "name": "account",
          "type": "address"
        }
      ],
      "name": "Unpaused",
      "type": "event"
    },
    {
      "inputs": [
        {
          "internalType": "uint256",
          "name": "tokenId",
          "type": "uint256"
        }
      ],
      "name": "activateESIM",
      "outputs": [],
      "stateMutability": "nonpayable",
      "type": "function"
    },
    {
      "inputs": [
        {
          "internalType": "uint256",
          "name": "tokenId",
          "type": "uint256"
        },
        {
          "internalType": "uint256",
          "name": "amount",
          "type": "uint256"
        }
      ],
      "name": "allocateBandwidth",
      "outputs": [],
      "stateMutability": "nonpayable",
      "type": "function"
    },
    {
      "inputs": [
        {
          "internalType": "address",
          "name": "to",
          "type": "address"
        },
        {
          "internalType": "uint256",
          "name": "tokenId",
          "type": "uint256"
        }
      ],
      "name": "approve",
      "outputs": [],
      "stateMutability": "nonpayable",
      "type": "function"
    },
    {
      "inputs": [
        {
          "internalType": "address",
          "name": "owner",
          "type": "address"
        }
      ],
      "name": "balanceOf",
      "outputs": [
        {
          "internalType": "uint256",
          "name": "",
          "type": "uint256"
        }
      ],
      "stateMutability": "view",
      "type": "function"
    },
    {
      "inputs": [
        {
          "internalType": "uint256",
          "name": "tokenId",
          "type": "uint256"
        }
      ],
      "name": "deactivateESIM",
      "outputs": [],
      "stateMutability": "nonpayable",
      "type": "function"
    },
    {
      "inputs": [
        {
          "internalType": "uint256",
          "name": "tokenId",
          "type": "uint256"
        }
      ],
      "name": "getApproved",
      "outputs": [
        {
          "internalType": "address",
          "name": "",
          "type": "address"
        }
      ],
      "stateMutability": "view",
      "type": "function"
    },
    {
      "inputs": [
        {
          "internalType": "uint256",
          "name": "tokenId",
          "type": "uint256"
        }
      ],
      "name": "getESIM",
      "outputs": [
        {
          "components": [
            {
              "internalType": "uint256",
              "name": "id",
              "type": "uint256"
            },
            {
              "internalType": "address",
              "name": "owner",
              "type": "address"
            },
            {
              "internalType": "string",
              "name": "status",
              "type": "string"
            },
            {
              "internalType": "string",
              "name": "metadata",
              "type": "string"
            },
            {
              "internalType": "uint256",
              "name": "bandwidth",
              "type": "uint256"
            },
            {
              "internalType": "uint256",
              "name": "lastUpdated",
              "type": "uint256"
            },
            {
              "internalType": "bytes32",
              "name": "quantumSignature",
              "type": "bytes32"
            },
            {
              "internalType": "uint256",
              "name": "activationTimestamp",
              "type": "uint256"
            },
            {
              "internalType": "bool",
              "name": "isActive",
              "type": "bool"
            }
          ],
          "internalType": "struct EnhancedDynamicESIMNFT.ESIM",
          "name": "",
          "type": "tuple"
        }
      ],
      "stateMutability": "view",
      "type": "function"
    },
    {
      "inputs": [
        {
          "internalType": "address",
          "name": "owner",
          "type": "address"
        },
        {
          "internalType": "address",
          "name": "operator",
          "type": "address"
        }
      ],
      "name": "isApprovedForAll",
      "outputs": [
        {
          "internalType": "bool",
          "name": "",
          "type": "bool"
        }
      ],
      "stateMutability": "view",
      "type": "function"
    },
    {
      "inputs": [
        {
          "internalType": "address",
          "name": "to",
          "type": "address"
        },
        {
          "internalType": "string",
          "name": "metadata",
          "type": "string"
        },
        {
          "internalType": "uint256",
          "name": "initialBandwidth",
          "type": "uint256"
        },
        {
          "internalType": "bytes32",
          "name": "quantumSignature",
          "type": "bytes32"
        }
      ],
      "name": "mintESIM",
      "outputs": [
        {
          "internalType": "uint256",
          "name": "",
          "type": "uint256"
        }
      ],
      "stateMutability": "nonpayable",
      "type": "function"
    },
    {
      "inputs": [],
      "name": "name",
      "outputs": [
        {
          "internalType": "string",
          "name": "",
          "type": "string"
        }
      ],
      "stateMutability": "view",
      "type": "function"
    },
    {
      "inputs": [],
      "name": "owner",
      "outputs": [
        {
          "internalType": "address",
          "name": "",
          "type": "address"
        }
      ],
      "stateMutability": "view",
      "type": "function"
    },
    {
      "inputs": [
        {
          "internalType": "uint256",
          "name": "tokenId",
          "type": "uint256"
        }
      ],
      "name": "ownerOf",
      "outputs": [
        {
          "internalType": "address",
          "name": "",
          "type": "address"
        }
      ],
      "stateMutability": "view",
      "type": "function"
    },
    {
      "inputs": [],
      "name": "pause",
      "outputs": [],
      "stateMutability": "nonpayable",
      "type": "function"
    },
    {
      "inputs": [],
      "name": "paused",
      "outputs": [
        {
          "internalType": "bool",
          "name": "",
          "type": "bool"
        }
      ],
      "stateMutability": "view",
      "type": "function"
    },
    {
      "inputs": [],
      "name": "renounceOwnership",
      "outputs": [],
      "stateMutability": "nonpayable",
      "type": "function"
    },
    {
      "inputs": [
        {
          "internalType": "address",
          "name": "from",
          "type": "address"
        },
        {
          "internalType": "address",
          "name": "to",
          "type": "address"
        },
        {
          "internalType": "uint256",
          "name": "tokenId",
          "type": "uint256"
        }
      ],
      "name": "safeTransferFrom",
      "outputs": [],
      "stateMutability": "nonpayable",
      "type": "function"
    },
    {
      "inputs": [
        {
          "internalType": "address",
          "name": "from",
          "type": "address"
        },
        {
          "internalType": "address",
          "name": "to",
          "type": "address"
        },
        {
          "internalType": "uint256",
          "name": "tokenId",
          "type": "uint256"
        },
        {
          "internalType": "bytes",
          "name": "data",
          "type": "bytes"
        }
      ],
      "name": "safeTransferFrom",
      "outputs": [],
      "stateMutability": "nonpayable",
      "type": "function"
    },
    {
      "inputs": [
        {
          "internalType": "address",
          "name": "operator",
          "type": "address"
        },
        {
          "internalType": "bool",
          "name": "approved",
          "type": "bool"
        }
      ],
      "name": "setApprovalForAll",
      "outputs": [],
      "stateMutability": "nonpayable",
      "type": "function"
    },
    {
      "inputs": [
        {
          "internalType": "bytes4",
          "name": "interfaceId",
          "type": "bytes4"
        }
      ],
      "name": "supportsInterface",
      "outputs": [
        {
          "internalType": "bool",
          "name": "",
          "type": "bool"
        }
      ],
      "stateMutability": "view",
      "type": "function"
    },
    {
      "inputs": [],
      "name": "symbol",
      "outputs": [
        {
          "internalType": "string",
          "name": "",
          "type": "string"
        }
      ],
      "stateMutability": "view",
      "type": "function"
    },
    {
      "inputs": [
        {
          "internalType": "uint256",
          "name": "tokenId",
          "type": "uint256"
        }
      ],
      "name": "tokenURI",
      "outputs": [
        {
          "internalType": "string",
          "name": "",
          "type": "string"
        }
      ],
      "stateMutability": "view",
      "type": "function"
    },
    {
      "inputs": [
        {
          "internalType": "address",
          "name": "from",
          "type": "address"
        },
        {
          "internalType": "address",
          "name": "to",
          "type": "address"
        },
        {
          "internalType": "uint256",
          "name": "tokenId",
          "type": "uint256"
        }
      ],
      "name": "transferFrom",
      "outputs": [],
      "stateMutability": "nonpayable",
      "type": "function"
    },
    {
      "inputs": [
        {
          "internalType": "address",
          "name": "newOwner",
          "type": "address"
        }
      ],
      "name": "transferOwnership",
      "outputs": [],
      "stateMutability": "nonpayable",
      "type": "function"
    },
    {
      "inputs": [],
      "name": "unpause",
      "outputs": [],
      "stateMutability": "nonpayable",
      "type": "function"
    },
    {
      "inputs": [
        {
          "internalType": "uint256",
          "name": "tokenId",
          "type": "uint256"
        },
        {
          "internalType": "string",
          "name": "newMetadata",
          "type": "string"
        }
      ],
      "name": "updateMetadata",
      "outputs": [],
      "stateMutability": "nonpayable",
      "type": "function"
    }
  ],
  "bytecode": "0x608060405234801561001057600080fd5b506040518060400160405280600e81526020016d111e5b985b5a58d154d25353919560921b81525060405180604001604052806005815260200164444553494d60d81b81525081600090816100659190610194565b5060016100728282610194565b50505061008b61008661009f60201b60201c565b6100a3565b60016007556008805460ff19169055610252565b3390565b600680546001600160a01b038381166001600160a01b0319831681179093556040519116919082907f8be0079c531659141344cd1fd0a4f28419497f9722a3daafe3b4186f6b6457e090600090a35050565b634e487b7160e01b600052604160045260246000fd5b600181811c9082168061011f57607f821691505b60208210810361013f57634e487b7160e01b600052602260045260246000fd5b50919050565b601f82111561018f57806000526020600020601f840160051c8101602085101561016c5750805b601f840160051c820191505b8181101561018c5760008155600101610178565b50505b505050565b81516001600160401b038111156101ad576101ad6100f5565b6101c1816101bb845461010b565b84610145565b6020601f8211600181146101f557600083156101dd5750848201515b600019600385901b1c1916600184901b17845561018c565b600084815260208120601f198516915b828110156102255787850151825560209485019460019092019101610205565b50848210156102435786840151600019600387901b60f8161c191681555b50505050600190811b01905550565b6123b3806102616000396000f3fe608060405234801561001057600080fd5b50600436106101735760003560e01c806370a08231116100de578063a22cb46511610097578063c87b56dd11610071578063c87b56dd1461031d578063cfb981fa14610330578063e985e9c514610343578063f2fde38b1461035657600080fd5b8063a22cb465146102e4578063b88d4fde146102f7578063bc36d5861461030a57600080fd5b806370a0823114610288578063715018a61461029b5780638456cb59146102a35780638da5cb5b146102ab57806395d89b41146102bc5780639c2dbfd9146102c457600080fd5b80633f4ba83a116101305780633f4ba83a1461022957806342842e0e1461023157806353c8388e146102445780635c975abb146102575780636032abfa146102625780636352211e1461027557600080fd5b806301ffc9a71461017857806306fdde03146101a0578063081812fc146101b5578063095ea7b3146101e057806323b872dd146101f55780633024b59a14610208575b600080fd5b61018b610186366004611c20565b610369565b60405190151581526020015b60405180910390f35b6101a86103bb565b6040516101979190611c8d565b6101c86101c3366004611ca0565b61044d565b6040516001600160a01b039091168152602001610197565b6101f36101ee366004611cd5565b610474565b005b6101f3610203366004611cff565b61058e565b61021b610216366004611dec565b6105bf565b604051908152602001610197565b6101f3610914565b6101f361023f366004611cff565b610926565b6101f3610252366004611e4a565b610941565b60085460ff1661018b565b6101f3610270366004611ca0565b6109e8565b6101c8610283366004611ca0565b610b29565b61021b610296366004611e91565b610b89565b6101f3610c0f565b6101f3610c21565b6006546001600160a01b03166101c8565b6101a8610c31565b6102d76102d2366004611ca0565b610c40565b6040516101979190611eac565b6101f36102f2366004611f4d565b610e5f565b6101f3610305366004611f89565b610e6a565b6101f3610318366004611ca0565b610ea2565b6101a861032b366004611ca0565b610fac565b6101f361033e366004612005565b611020565b61018b610351366004612027565b611159565b6101f3610364366004611e91565b611187565b60006001600160e01b031982166380ac58cd60e01b148061039a57506001600160e01b03198216635b5e139f60e01b145b806103b557506301ffc9a760e01b6001600160e01b03198316145b92915050565b6060600080546103ca9061205a565b80601f01602080910402602001604051908101604052809291908181526020018280546103f69061205a565b80156104435780601f1061041857610100808354040283529160200191610443565b820191906000526020600020905b81548152906001019060200180831161042657829003601f168201915b5050505050905090565b6000610458826111fd565b506000908152600460205260409020546001600160a01b031690565b600061047f82610b29565b9050806001600160a01b0316836001600160a01b0316036104f15760405162461bcd60e51b815260206004820152602160248201527f4552433732313a20617070726f76616c20746f2063757272656e74206f776e656044820152603960f91b60648201526084015b60405180910390fd5b336001600160a01b038216148061050d575061050d8133611159565b61057f5760405162461bcd60e51b815260206004820152603d60248201527f4552433732313a20617070726f76652063616c6c6572206973206e6f7420746f60448201527f6b656e206f776e6572206f7220617070726f76656420666f7220616c6c00000060648201526084016104e8565b610589838361124d565b505050565b61059833826112bb565b6105b45760405162461bcd60e51b81526004016104e890612094565b610589838383611319565b60006105c961148a565b6105d16114e4565b336000908152600c6020526040902054610e10906105ef90426120f7565b10158061060b5750336000908152600b60205260409020546064115b61064d5760405162461bcd60e51b815260206004820152601360248201527214985d19481b1a5b5a5d08195e18d959591959606a1b60448201526064016104e8565b6000828152600d6020526040902054829060ff16156106ae5760405162461bcd60e51b815260206004820152601e60248201527f5175616e74756d207369676e617475726520616c72656164792075736564000060448201526064016104e8565b6000818152600d60205260409020805460ff191660011790556001600160a01b03861661070f5760405162461bcd60e51b815260206004820152600f60248201526e496e76616c6964206164647265737360881b60448201526064016104e8565b620f424084111561075e5760405162461bcd60e51b815260206004820152601960248201527808af0c6cacac8e640dac2f0d2daeada40c4c2dcc8eed2c8e8d603b1b60448201526064016104e8565b61076c600980546001019055565b600061077760095490565b9050610783878261153d565b60408051610120810182528281526001600160a01b03898116602080840191825284518086018652600781526650656e64696e6760c81b81830152848601908152606085018c9052608085018b90524260a086015260c085018a9052600060e086018190526101008601819052878152600a9092529490208351815590516001820180546001600160a01b03191691909316179091559151909190600282019061082d9082612158565b50606082015160038201906108429082612158565b506080820151600482015560a0820151600582015560c0820151600682015560e08201516007820155610100909101516008909101805460ff1916911515919091179055336000908152600b602052604081208054916108a183612217565b9091555050336000908152600c602052604090819020429055516001600160a01b0388169082907f230b3e875a62c594bff4eda93fc8fdf5ec428291651796b51b992fe7536247da906108f79089815260200190565b60405180910390a391505061090c6001600755565b949350505050565b61091c61148a565b610924611557565b565b61058983838360405180602001604052806000815250610e6a565b6109496114e4565b3361095383610b29565b6001600160a01b0316146109995760405162461bcd60e51b815260206004820152600d60248201526c2737ba103a34329037bbb732b960991b60448201526064016104e8565b6109a2826115a9565b6109be5760405162461bcd60e51b81526004016104e890612230565b6000828152600a602052604090206003016109d98282612158565b506109e46001600755565b5050565b6109f06114e4565b6109f861148a565b610a01816115a9565b610a1d5760405162461bcd60e51b81526004016104e890612230565b6000818152600a602052604090206008015460ff1615610a755760405162461bcd60e51b81526020600482015260136024820152724553494d20616c72656164792061637469766560681b60448201526064016104e8565b6000818152600a6020818152604080842060088101805460ff191660011790558151808301909252600682526541637469766560d01b8284015293859052919052600290910190610ac69082612158565b5042600a600083815260200190815260200160002060070181905550807f796d76a3970ad840aba394c5b7afd41a98a2866ff309fbc799fd49e1cde0c0ab42604051610b1491815260200190565b60405180910390a2610b266001600755565b50565b6000818152600260205260408120546001600160a01b0316806103b55760405162461bcd60e51b8152602060048201526018602482015277115490cdcc8c4e881a5b9d985b1a59081d1bdad95b88125160421b60448201526064016104e8565b60006001600160a01b038216610bf35760405162461bcd60e51b815260206004820152602960248201527f4552433732313a2061646472657373207a65726f206973206e6f7420612076616044820152683634b21037bbb732b960b91b60648201526084016104e8565b506001600160a01b031660009081526003602052604090205490565b610c1761148a565b61092460006115c6565b610c2961148a565b610924611618565b6060600180546103ca9061205a565b610c9d6040518061012001604052806000815260200160006001600160a01b031681526020016060815260200160608152602001600081526020016000815260200160008019168152602001600081526020016000151581525090565b610ca6826115a9565b610cc25760405162461bcd60e51b81526004016104e890612230565b6000828152600a60209081526040918290208251610120810184528154815260018201546001600160a01b0316928101929092526002810180549293919291840191610d0d9061205a565b80601f0160208091040260200160405190810160405280929190818152602001828054610d399061205a565b8015610d865780601f10610d5b57610100808354040283529160200191610d86565b820191906000526020600020905b815481529060010190602001808311610d6957829003601f168201915b50505050508152602001600382018054610d9f9061205a565b80601f0160208091040260200160405190810160405280929190818152602001828054610dcb9061205a565b8015610e185780601f10610ded57610100808354040283529160200191610e18565b820191906000526020600020905b815481529060010190602001808311610dfb57829003601f168201915b50505091835250506004820154602082015260058201546040820152600682015460608201526007820154608082015260089091015460ff16151560a09091015292915050565b6109e4338383611655565b610e7433836112bb565b610e905760405162461bcd60e51b81526004016104e890612094565b610e9c84848484611723565b50505050565b610eaa6114e4565b610eb261148a565b610ebb816115a9565b610ed75760405162461bcd60e51b81526004016104e890612230565b6000818152600a602052604090206008015460ff16610f2a5760405162461bcd60e51b815260206004820152600f60248201526e4553494d206e6f742061637469766560881b60448201526064016104e8565b6000818152600a602081815260408084206008808201805460ff191690558251808401909352825267496e61637469766560c01b8284015293859052919052600290910190610f799082612158565b50807ff7080b744efb6b2270f0f4bf35b316b7ca46b1f43e1d182799ae2eeb24848ddb42604051610b1491815260200190565b6060610fb7826111fd565b6000610fce60408051602081019091526000815290565b90506000815111610fee5760405180602001604052806000815250611019565b80610ff884611756565b60405160200161100992919061225d565b6040516020818303038152906040525b9392505050565b6110286114e4565b61103061148a565b611039826115a9565b6110555760405162461bcd60e51b81526004016104e890612230565b6000828152600a602052604090206008015460ff166110a85760405162461bcd60e51b815260206004820152600f60248201526e4553494d206e6f742061637469766560881b60448201526064016104e8565b620f42408111156110f75760405162461bcd60e51b815260206004820152601960248201527808af0c6cacac8e640dac2f0d2daeada40c4c2dcc8eed2c8e8d603b1b60448201526064016104e8565b6000828152600a60205260409081902060048101839055426005909101555182907f105351c8ccacd7f383ac84e1caccba99dddd64c870a7de228b145d974b3040a2906111479084815260200190565b60405180910390a26109e46001600755565b6001600160a01b03918216600090815260056020908152604080832093909416825291909152205460ff1690565b61118f61148a565b6001600160a01b0381166111f45760405162461bcd60e51b815260206004820152602660248201527f4f776e61626c653a206e6577206f776e657220697320746865207a65726f206160448201526564647265737360d01b60648201526084016104e8565b610b26816115c6565b611206816115a9565b610b265760405162461bcd60e51b8152602060048201526018602482015277115490cdcc8c4e881a5b9d985b1a59081d1bdad95b88125160421b60448201526064016104e8565b600081815260046020526040902080546001600160a01b0319166001600160a01b038416908117909155819061128282610b29565b6001600160a01b03167f8c5be1e5ebec7d5bd14f71427d1e84f3dd0314c0f7b2291e5b200ac8c7c3b92560405160405180910390a45050565b6000806112c783610b29565b9050806001600160a01b0316846001600160a01b031614806112ee57506112ee8185611159565b8061090c5750836001600160a01b03166113078461044d565b6001600160a01b031614949350505050565b826001600160a01b031661132c82610b29565b6001600160a01b0316146113525760405162461bcd60e51b81526004016104e89061228c565b6001600160a01b0382166113b45760405162461bcd60e51b8152602060048201526024808201527f4552433732313a207472616e7366657220746f20746865207a65726f206164646044820152637265737360e01b60648201526084016104e8565b6113c183838360016117ea565b826001600160a01b03166113d482610b29565b6001600160a01b0316146113fa5760405162461bcd60e51b81526004016104e89061228c565b600081815260046020908152604080832080546001600160a01b03199081169091556001600160a01b0387811680865260038552838620805460001901905590871680865283862080546001019055868652600290945282852080549092168417909155905184937fddf252ad1be2c89b69c2b068fc378daa952ba7f163c4a11628f55a4df523b3ef91a4505050565b6006546001600160a01b031633146109245760405162461bcd60e51b815260206004820181905260248201527f4f776e61626c653a2063616c6c6572206973206e6f7420746865206f776e657260448201526064016104e8565b6002600754036115365760405162461bcd60e51b815260206004820152601f60248201527f5265656e7472616e637947756172643a207265656e7472616e742063616c6c0060448201526064016104e8565b6002600755565b6109e48282604051806020016040528060008152506117f7565b61155f61182a565b6008805460ff191690557f5db9ee0a495bf2e6ff9c91a7834c1ba4fdd244a5e8aa4e537bd38aeae4b073aa335b6040516001600160a01b03909116815260200160405180910390a1565b6000908152600260205260409020546001600160a01b0316151590565b600680546001600160a01b038381166001600160a01b0319831681179093556040519116919082907f8be0079c531659141344cd1fd0a4f28419497f9722a3daafe3b4186f6b6457e090600090a35050565b611620611873565b6008805460ff191660011790557f62e78cea01bee320cd4e420270b5ea74000d11b0c9f74754ebdbfc544b05a25861158c3390565b816001600160a01b0316836001600160a01b0316036116b65760405162461bcd60e51b815260206004820152601960248201527f4552433732313a20617070726f766520746f2063616c6c65720000000000000060448201526064016104e8565b6001600160a01b03838116600081815260056020908152604080832094871680845294825291829020805460ff191686151590811790915591519182527f17307eab39ab6107e8899845ad3d59bd9653f200f220920489ca2b5937696c31910160405180910390a3505050565b61172e848484611319565b61173a848484846118b9565b610e9c5760405162461bcd60e51b81526004016104e8906122d1565b60606000611763836119b7565b600101905060008167ffffffffffffffff81111561178357611783611d3c565b6040519080825280601f01601f1916602001820160405280156117ad576020820181803683370190505b5090508181016020015b600019016f181899199a1a9b1b9c1cb0b131b232b360811b600a86061a8153600a85049450846117b7575b509392505050565b6117f2611873565b610e9c565b6118018383611a8f565b61180e60008484846118b9565b6105895760405162461bcd60e51b81526004016104e8906122d1565b60085460ff166109245760405162461bcd60e51b815260206004820152601460248201527314185d5cd8589b194e881b9bdd081c185d5cd95960621b60448201526064016104e8565b60085460ff16156109245760405162461bcd60e51b815260206004820152601060248201526f14185d5cd8589b194e881c185d5cd95960821b60448201526064016104e8565b60006001600160a01b0384163b156119af57604051630a85bd0160e11b81526001600160a01b0385169063150b7a02906118fd903390899088908890600401612323565b6020604051808303816000875af1925050508015611938575060408051601f3d908101601f1916820190925261193591810190612360565b60015b611995573d808015611966576040519150601f19603f3d011682016040523d82523d6000602084013e61196b565b606091505b50805160000361198d5760405162461bcd60e51b81526004016104e8906122d1565b805181602001fd5b6001600160e01b031916630a85bd0160e11b14905061090c565b50600161090c565b60008072184f03e93ff9f4daa797ed6e38ed64bf6a1f0160401b83106119f65772184f03e93ff9f4daa797ed6e38ed64bf6a1f0160401b830492506040015b6d04ee2d6d415b85acef81000000008310611a22576d04ee2d6d415b85acef8100000000830492506020015b662386f26fc100008310611a4057662386f26fc10000830492506010015b6305f5e1008310611a58576305f5e100830492506008015b6127108310611a6c57612710830492506004015b60648310611a7e576064830492506002015b600a83106103b55760010192915050565b6001600160a01b038216611ae55760405162461bcd60e51b815260206004820181905260248201527f4552433732313a206d696e7420746f20746865207a65726f206164647265737360448201526064016104e8565b611aee816115a9565b15611b3b5760405162461bcd60e51b815260206004820152601c60248201527f4552433732313a20746f6b656e20616c7265616479206d696e7465640000000060448201526064016104e8565b611b496000838360016117ea565b611b52816115a9565b15611b9f5760405162461bcd60e51b815260206004820152601c60248201527f4552433732313a20746f6b656e20616c7265616479206d696e7465640000000060448201526064016104e8565b6001600160a01b038216600081815260036020908152604080832080546001019055848352600290915280822080546001600160a01b0319168417905551839291907fddf252ad1be2c89b69c2b068fc378daa952ba7f163c4a11628f55a4df523b3ef908290a45050565b6001600160e01b031981168114610b2657600080fd5b600060208284031215611c3257600080fd5b813561101981611c0a565b60005b83811015611c58578181015183820152602001611c40565b50506000910152565b60008151808452611c79816020860160208601611c3d565b601f01601f19169290920160200192915050565b6020815260006110196020830184611c61565b600060208284031215611cb257600080fd5b5035919050565b80356001600160a01b0381168114611cd057600080fd5b919050565b60008060408385031215611ce857600080fd5b611cf183611cb9565b946020939093013593505050565b600080600060608486031215611d1457600080fd5b611d1d84611cb9565b9250611d2b60208501611cb9565b929592945050506040919091013590565b634e487b7160e01b600052604160045260246000fd5b60008067ffffffffffffffff841115611d6d57611d6d611d3c565b50604051601f19601f85018116603f0116810181811067ffffffffffffffff82111715611d9c57611d9c611d3c565b604052838152905080828401851015611db457600080fd5b83836020830137600060208583010152509392505050565b600082601f830112611ddd57600080fd5b61101983833560208501611d52565b60008060008060808587031215611e0257600080fd5b611e0b85611cb9565b9350602085013567ffffffffffffffff811115611e2757600080fd5b611e3387828801611dcc565b949794965050505060408301359260600135919050565b60008060408385031215611e5d57600080fd5b82359150602083013567ffffffffffffffff811115611e7b57600080fd5b611e8785828601611dcc565b9150509250929050565b600060208284031215611ea357600080fd5b61101982611cb9565b602081528151602082015260006020830151611ed360408401826001600160a01b03169052565b5060408301516101206060840152611eef610140840182611c61565b90506060840151601f19848303016080850152611f0c8282611c61565b915050608084015160a084015260a084015160c084015260c084015160e084015260e08401516101008401526101008401516117e261012085018215159052565b60008060408385031215611f6057600080fd5b611f6983611cb9565b915060208301358015158114611f7e57600080fd5b809150509250929050565b60008060008060808587031215611f9f57600080fd5b611fa885611cb9565b9350611fb660208601611cb9565b925060408501359150606085013567ffffffffffffffff811115611fd957600080fd5b8501601f81018713611fea57600080fd5b611ff987823560208401611d52565b91505092959194509250565b6000806040838503121561201857600080fd5b50508035926020909101359150565b6000806040838503121561203a57600080fd5b61204383611cb9565b915061205160208401611cb9565b90509250929050565b600181811c9082168061206e57607f821691505b60208210810361208e57634e487b7160e01b600052602260045260246000fd5b50919050565b6020808252602d908201527f4552433732313a2063616c6c6572206973206e6f7420746f6b656e206f776e6560408201526c1c881bdc88185c1c1c9bdd9959609a1b606082015260800190565b634e487b7160e01b600052601160045260246000fd5b818103818111156103b5576103b56120e1565b601f82111561058957806000526020600020601f840160051c810160208510156121315750805b601f840160051c820191505b81811015612151576000815560010161213d565b5050505050565b815167ffffffffffffffff81111561217257612172611d3c565b61218681612180845461205a565b8461210a565b6020601f8211600181146121ba57600083156121a25750848201515b600019600385901b1c1916600184901b178455612151565b600084815260208120601f198516915b828110156121ea57878501518255602094850194600190920191016121ca565b50848210156122085786840151600019600387901b60f8161c191681555b50505050600190811b01905550565b600060018201612229576122296120e1565b5060010190565b6020808252601390820152721154d25348191bd95cc81b9bdd08195e1a5cdd606a1b604082015260600190565b6000835161226f818460208801611c3d565b835190830190612283818360208801611c3d565b01949350505050565b60208082526025908201527f4552433732313a207472616e736665722066726f6d20696e636f72726563742060408201526437bbb732b960d91b606082015260800190565b60208082526032908201527f4552433732313a207472616e7366657220746f206e6f6e20455243373231526560408201527131b2b4bb32b91034b6b83632b6b2b73a32b960711b606082015260800190565b6001600160a01b038581168252841660208201526040810183905260806060820181905260009061235690830184611c61565b9695505050505050565b60006020828403121561237257600080fd5b815161101981611c0a56fea26469706673582212208f4ac413ace84e02629253fe7c5d1f58ed8ffc41742f22aef367aaab969b18a364736f6c634300081c0033",
  "linkReferences": {},
  "deployedLinkReferences": {}
}