{
  "_format": "hh-sol-artifact-1",
  "contractName": "DynamicESIMNFT",
  "sourceName": "contracts/DynamicESIMNFT.sol",
  "abi": [
    {
      "inputs": [
        {
          "internalType": "uint256",
          "name": "",
          "type": "uint256"
        }
      ],
      "name": "esims",
      "outputs": [
        {
          "internalType": "uint256",
          "name": "id",
          "type": "uint256"
        },
        {
          "internalType": "address",
          "name": "owner",
          "type": "address"
        },
        {
          "internalType": "string",
          "name": "status",
          "type": "string"
        },
        {
          "internalType": "string",
          "name": "data",
          "type": "string"
        }
      ],
      "stateMutability": "view",
      "type": "function"
    },
    {
      "inputs": [
        {
          "internalType": "uint256",
          "name": "_id",
          "type": "uint256"
        },
        {
          "internalType": "address",
          "name": "_owner",
          "type": "address"
        }
      ],
      "name": "mintESIM",
      "outputs": [],
      "stateMutability": "nonpayable",
      "type": "function"
    },
    {
      "inputs": [
        {
          "internalType": "uint256",
          "name": "_id",
          "type": "uint256"
        },
        {
          "internalType": "string",
          "name": "_newData",
          "type": "string"
        }
      ],
      "name": "updateData",
      "outputs": [],
      "stateMutability": "nonpayable",
      "type": "function"
    },
    {
      "inputs": [
        {
          "internalType": "uint256",
          "name": "_id",
          "type": "uint256"
        },
        {
          "internalType": "address",
          "name": "_owner",
          "type": "address"
        },
        {
          "internalType": "string",
          "name": "_newStatus",
          "type": "string"
        }
      ],
      "name": "updateStatus",
      "outputs": [],
      "stateMutability": "nonpayable",
      "type": "function"
    }
  ],
  "bytecode": "0x6080604052348015600f57600080fd5b506107958061001f6000396000f3fe608060405234801561001057600080fd5b506004361061004c5760003560e01c806302fbd90f146100515780631f00ae611461006657806389a8e2a714610092578063ba6bc4c6146100a5575b600080fd5b61006461005f36600461040a565b6100b8565b005b610079610074366004610436565b6101bb565b6040516100899493929190610495565b60405180910390f35b6100646100a0366004610581565b6102fe565b6100646100b33660046105c8565b610371565b6000828152602081905260409020541561010f5760405162461bcd60e51b81526020600482015260136024820152724553494d20616c72656164792065786973747360681b60448201526064015b60405180910390fd5b604080516080810182528381526001600160a01b038381166020808401918252845180860186526007815266125b9d985b1a5960ca1b818301528486019081528551808301875260008082526060870191909152888152918290529490208351815590516001820180546001600160a01b03191691909316179091559151909190600282019061019f90826106a0565b50606082015160038201906101b490826106a0565b5050505050565b60006020819052908152604090208054600182015460028301805492936001600160a01b03909216926101ed9061061f565b80601f01602080910402602001604051908101604052809291908181526020018280546102199061061f565b80156102665780601f1061023b57610100808354040283529160200191610266565b820191906000526020600020905b81548152906001019060200180831161024957829003601f168201915b50505050509080600301805461027b9061061f565b80601f01602080910402602001604051908101604052809291908181526020018280546102a79061061f565b80156102f45780601f106102c9576101008083540402835291602001916102f4565b820191906000526020600020905b8154815290600101906020018083116102d757829003601f168201915b5050505050905084565b60008281526020819052604081205490036103515760405162461bcd60e51b81526020600482015260136024820152721154d25348191bd95cc81b9bdd08195e1a5cdd606a1b6044820152606401610106565b600082815260208190526040902060030161036c82826106a0565b505050565b6000838152602081905260409020600101546001600160a01b038381169116146103cd5760405162461bcd60e51b815260206004820152600d60248201526c2737ba103a34329037bbb732b960991b6044820152606401610106565b60008381526020819052604090206002016103e882826106a0565b50505050565b80356001600160a01b038116811461040557600080fd5b919050565b6000806040838503121561041d57600080fd5b8235915061042d602084016103ee565b90509250929050565b60006020828403121561044857600080fd5b5035919050565b6000815180845260005b8181101561047557602081850181015186830182015201610459565b506000602082860101526020601f19601f83011685010191505092915050565b8481526001600160a01b03841660208201526080604082018190526000906104bf9083018561044f565b82810360608401526104d1818561044f565b979650505050505050565b634e487b7160e01b600052604160045260246000fd5b600082601f83011261050357600080fd5b813567ffffffffffffffff81111561051d5761051d6104dc565b604051601f8201601f19908116603f0116810167ffffffffffffffff8111828210171561054c5761054c6104dc565b60405281815283820160200185101561056457600080fd5b816020850160208301376000918101602001919091529392505050565b6000806040838503121561059457600080fd5b82359150602083013567ffffffffffffffff8111156105b257600080fd5b6105be858286016104f2565b9150509250929050565b6000806000606084860312156105dd57600080fd5b833592506105ed602085016103ee565b9150604084013567ffffffffffffffff81111561060957600080fd5b610615868287016104f2565b9150509250925092565b600181811c9082168061063357607f821691505b60208210810361065357634e487b7160e01b600052602260045260246000fd5b50919050565b601f82111561036c57806000526020600020601f840160051c810160208510156106805750805b601f840160051c820191505b818110156101b4576000815560010161068c565b815167ffffffffffffffff8111156106ba576106ba6104dc565b6106ce816106c8845461061f565b84610659565b6020601f82116001811461070257600083156106ea5750848201515b600019600385901b1c1916600184901b1784556101b4565b600084815260208120601f198516915b828110156107325787850151825560209485019460019092019101610712565b50848210156107505786840151600019600387901b60f8161c191681555b50505050600190811b0190555056fea2646970667358221220f4fe9dd42ec13f9372afe744e1067af88a7a1e511b92759a93bd911aec57065364736f6c634300081c0033",
  "linkReferences": {},
  "deployedLinkReferences": {}
}