{
  "_format": "hh-sol-artifact-1",
  "contractName": "FundraisingNFT",
  "sourceName": "contracts/FundraisingNFT.sol",
  "abi": [
    {
      "inputs": [],
      "stateMutability": "nonpayable",
      "type": "constructor"
    },
    {
      "anonymous": false,
      "inputs": [
        {
          "indexed": true,
          "internalType": "address",
          "name": "owner",
          "type": "address"
        },
        {
          "indexed": true,
          "internalType": "address",
          "name": "approved",
          "type": "address"
        },
        {
          "indexed": true,
          "internalType": "uint256",
          "name": "tokenId",
          "type": "uint256"
        }
      ],
      "name": "Approval",
      "type": "event"
    },
    {
      "anonymous": false,
      "inputs": [
        {
          "indexed": true,
          "internalType": "address",
          "name": "owner",
          "type": "address"
        },
        {
          "indexed": true,
          "internalType": "address",
          "name": "operator",
          "type": "address"
        },
        {
          "indexed": false,
          "internalType": "bool",
          "name": "approved",
          "type": "bool"
        }
      ],
      "name": "ApprovalForAll",
      "type": "event"
    },
    {
      "anonymous": false,
      "inputs": [
        {
          "indexed": false,
          "internalType": "address",
          "name": "contributor",
          "type": "address"
        },
        {
          "indexed": false,
          "internalType": "uint256",
          "name": "amount",
          "type": "uint256"
        },
        {
          "indexed": false,
          "internalType": "enum FundraisingNFT.Tier",
          "name": "tier",
          "type": "uint8"
        }
      ],
      "name": "ContributionMade",
      "type": "event"
    },
    {
      "anonymous": false,
      "inputs": [
        {
          "indexed": true,
          "internalType": "address",
          "name": "previousOwner",
          "type": "address"
        },
        {
          "indexed": true,
          "internalType": "address",
          "name": "newOwner",
          "type": "address"
        }
      ],
      "name": "OwnershipTransferred",
      "type": "event"
    },
    {
      "anonymous": false,
      "inputs": [
        {
          "indexed": false,
          "internalType": "address",
          "name": "claimer",
          "type": "address"
        },
        {
          "indexed": false,
          "internalType": "uint256",
          "name": "tokenId",
          "type": "uint256"
        },
        {
          "indexed": false,
          "internalType": "enum FundraisingNFT.Tier",
          "name": "tier",
          "type": "uint8"
        }
      ],
      "name": "RewardClaimed",
      "type": "event"
    },
    {
      "anonymous": false,
      "inputs": [
        {
          "indexed": true,
          "internalType": "address",
          "name": "from",
          "type": "address"
        },
        {
          "indexed": true,
          "internalType": "address",
          "name": "to",
          "type": "address"
        },
        {
          "indexed": true,
          "internalType": "uint256",
          "name": "tokenId",
          "type": "uint256"
        }
      ],
      "name": "Transfer",
      "type": "event"
    },
    {
      "inputs": [
        {
          "internalType": "address",
          "name": "to",
          "type": "address"
        },
        {
          "internalType": "uint256",
          "name": "tokenId",
          "type": "uint256"
        }
      ],
      "name": "approve",
      "outputs": [],
      "stateMutability": "nonpayable",
      "type": "function"
    },
    {
      "inputs": [
        {
          "internalType": "address",
          "name": "owner",
          "type": "address"
        }
      ],
      "name": "balanceOf",
      "outputs": [
        {
          "internalType": "uint256",
          "name": "",
          "type": "uint256"
        }
      ],
      "stateMutability": "view",
      "type": "function"
    },
    {
      "inputs": [
        {
          "internalType": "uint256",
          "name": "tokenId",
          "type": "uint256"
        }
      ],
      "name": "claimReward",
      "outputs": [],
      "stateMutability": "nonpayable",
      "type": "function"
    },
    {
      "inputs": [],
      "name": "contribute",
      "outputs": [],
      "stateMutability": "payable",
      "type": "function"
    },
    {
      "inputs": [],
      "name": "currentCampaign",
      "outputs": [
        {
          "internalType": "uint256",
          "name": "goal",
          "type": "uint256"
        },
        {
          "internalType": "uint256",
          "name": "raised",
          "type": "uint256"
        },
        {
          "internalType": "uint256",
          "name": "startTime",
          "type": "uint256"
        },
        {
          "internalType": "uint256",
          "name": "endTime",
          "type": "uint256"
        },
        {
          "internalType": "bool",
          "name": "isActive",
          "type": "bool"
        }
      ],
      "stateMutability": "view",
      "type": "function"
    },
    {
      "inputs": [
        {
          "internalType": "uint256",
          "name": "tokenId",
          "type": "uint256"
        }
      ],
      "name": "getApproved",
      "outputs": [
        {
          "internalType": "address",
          "name": "",
          "type": "address"
        }
      ],
      "stateMutability": "view",
      "type": "function"
    },
    {
      "inputs": [
        {
          "internalType": "address",
          "name": "owner",
          "type": "address"
        },
        {
          "internalType": "address",
          "name": "operator",
          "type": "address"
        }
      ],
      "name": "isApprovedForAll",
      "outputs": [
        {
          "internalType": "bool",
          "name": "",
          "type": "bool"
        }
      ],
      "stateMutability": "view",
      "type": "function"
    },
    {
      "inputs": [],
      "name": "name",
      "outputs": [
        {
          "internalType": "string",
          "name": "",
          "type": "string"
        }
      ],
      "stateMutability": "view",
      "type": "function"
    },
    {
      "inputs": [],
      "name": "owner",
      "outputs": [
        {
          "internalType": "address",
          "name": "",
          "type": "address"
        }
      ],
      "stateMutability": "view",
      "type": "function"
    },
    {
      "inputs": [
        {
          "internalType": "uint256",
          "name": "tokenId",
          "type": "uint256"
        }
      ],
      "name": "ownerOf",
      "outputs": [
        {
          "internalType": "address",
          "name": "",
          "type": "address"
        }
      ],
      "stateMutability": "view",
      "type": "function"
    },
    {
      "inputs": [],
      "name": "refund",
      "outputs": [],
      "stateMutability": "nonpayable",
      "type": "function"
    },
    {
      "inputs": [],
      "name": "renounceOwnership",
      "outputs": [],
      "stateMutability": "nonpayable",
      "type": "function"
    },
    {
      "inputs": [
        {
          "internalType": "address",
          "name": "from",
          "type": "address"
        },
        {
          "internalType": "address",
          "name": "to",
          "type": "address"
        },
        {
          "internalType": "uint256",
          "name": "tokenId",
          "type": "uint256"
        }
      ],
      "name": "safeTransferFrom",
      "outputs": [],
      "stateMutability": "nonpayable",
      "type": "function"
    },
    {
      "inputs": [
        {
          "internalType": "address",
          "name": "from",
          "type": "address"
        },
        {
          "internalType": "address",
          "name": "to",
          "type": "address"
        },
        {
          "internalType": "uint256",
          "name": "tokenId",
          "type": "uint256"
        },
        {
          "internalType": "bytes",
          "name": "data",
          "type": "bytes"
        }
      ],
      "name": "safeTransferFrom",
      "outputs": [],
      "stateMutability": "nonpayable",
      "type": "function"
    },
    {
      "inputs": [
        {
          "internalType": "address",
          "name": "operator",
          "type": "address"
        },
        {
          "internalType": "bool",
          "name": "approved",
          "type": "bool"
        }
      ],
      "name": "setApprovalForAll",
      "outputs": [],
      "stateMutability": "nonpayable",
      "type": "function"
    },
    {
      "inputs": [
        {
          "internalType": "uint256",
          "name": "_goal",
          "type": "uint256"
        },
        {
          "internalType": "uint256",
          "name": "_durationDays",
          "type": "uint256"
        }
      ],
      "name": "startCampaign",
      "outputs": [],
      "stateMutability": "nonpayable",
      "type": "function"
    },
    {
      "inputs": [
        {
          "internalType": "bytes4",
          "name": "interfaceId",
          "type": "bytes4"
        }
      ],
      "name": "supportsInterface",
      "outputs": [
        {
          "internalType": "bool",
          "name": "",
          "type": "bool"
        }
      ],
      "stateMutability": "view",
      "type": "function"
    },
    {
      "inputs": [],
      "name": "symbol",
      "outputs": [
        {
          "internalType": "string",
          "name": "",
          "type": "string"
        }
      ],
      "stateMutability": "view",
      "type": "function"
    },
    {
      "inputs": [
        {
          "internalType": "uint256",
          "name": "",
          "type": "uint256"
        }
      ],
      "name": "tokenClaimTime",
      "outputs": [
        {
          "internalType": "uint256",
          "name": "",
          "type": "uint256"
        }
      ],
      "stateMutability": "view",
      "type": "function"
    },
    {
      "inputs": [
        {
          "internalType": "uint256",
          "name": "",
          "type": "uint256"
        }
      ],
      "name": "tokenTier",
      "outputs": [
        {
          "internalType": "enum FundraisingNFT.Tier",
          "name": "",
          "type": "uint8"
        }
      ],
      "stateMutability": "view",
      "type": "function"
    },
    {
      "inputs": [
        {
          "internalType": "uint256",
          "name": "tokenId",
          "type": "uint256"
        }
      ],
      "name": "tokenURI",
      "outputs": [
        {
          "internalType": "string",
          "name": "",
          "type": "string"
        }
      ],
      "stateMutability": "view",
      "type": "function"
    },
    {
      "inputs": [
        {
          "internalType": "address",
          "name": "from",
          "type": "address"
        },
        {
          "internalType": "address",
          "name": "to",
          "type": "address"
        },
        {
          "internalType": "uint256",
          "name": "tokenId",
          "type": "uint256"
        }
      ],
      "name": "transferFrom",
      "outputs": [],
      "stateMutability": "nonpayable",
      "type": "function"
    },
    {
      "inputs": [
        {
          "internalType": "address",
          "name": "newOwner",
          "type": "address"
        }
      ],
      "name": "transferOwnership",
      "outputs": [],
      "stateMutability": "nonpayable",
      "type": "function"
    },
    {
      "inputs": [],
      "name": "withdrawFunds",
      "outputs": [],
      "stateMutability": "nonpayable",
      "type": "function"
    }
  ],
  "bytecode": "0x608060405234801561001057600080fd5b506040518060400160405280601381526020017f41737472614c696e6b46756e64726169736572000000000000000000000000008152506040518060400160405280600381526020016220a62360e91b81525081600090816100729190610452565b50600161007f8282610452565b50505061009861009361035d60201b60201c565b610361565b6040805160608101825267016345785d8a0000815281518083018352601381527f426173696320737570706f72746572204e4654000000000000000000000000006020808301919091528083019182526000938301849052928052600d90925280517f81955a0a11e65eac625c29e8882660bae4e165a75d72780094acae8ece9a29ee90815591519091907f81955a0a11e65eac625c29e8882660bae4e165a75d72780094acae8ece9a29ef9061014f9082610452565b506040820151816002015590505060405180606001604052806706f05b59d3b200008152602001604051806060016040528060268152602001612205602691398152601e6020918201526001600052600d815281517ffd54ff1ed53f34a900b24c5ba64f85761163b5d82d98a47b9bd80e45466993c5908155908201517ffd54ff1ed53f34a900b24c5ba64f85761163b5d82d98a47b9bd80e45466993c6906101f89082610452565b50604082015181600201559050506040518060600160405280671bc16d674ec8000081526020016040518060600160405280602981526020016121dc602991398152603c6020918201526002600052600d815281517f10a81eed9d63d16face5e76357905348e6253d3394086026bb2bf2145d7cc249908155908201517f10a81eed9d63d16face5e76357905348e6253d3394086026bb2bf2145d7cc24a906102a19082610452565b50604082015181600201559050506040518060600160405280674563918244f40000815260200160405180606001604052806028815260200161222b602891398152605a6020918201526003600052600d815281517f26b4a10d0f0b04925c23bd4480ee147c916e5e87a7d68206a533dad160ac81e2908155908201517f26b4a10d0f0b04925c23bd4480ee147c916e5e87a7d68206a533dad160ac81e39061034a9082610452565b5060408201518160020155905050610510565b3390565b600680546001600160a01b038381166001600160a01b0319831681179093556040519116919082907f8be0079c531659141344cd1fd0a4f28419497f9722a3daafe3b4186f6b6457e090600090a35050565b634e487b7160e01b600052604160045260246000fd5b600181811c908216806103dd57607f821691505b6020821081036103fd57634e487b7160e01b600052602260045260246000fd5b50919050565b601f82111561044d57806000526020600020601f840160051c8101602085101561042a5750805b601f840160051c820191505b8181101561044a5760008155600101610436565b50505b505050565b81516001600160401b0381111561046b5761046b6103b3565b61047f8161047984546103c9565b84610403565b6020601f8211600181146104b3576000831561049b5750848201515b600019600385901b1c1916600184901b17845561044a565b600084815260208120601f198516915b828110156104e357878501518255602094850194600190920191016104c3565b50848210156105015786840151600019600387901b60f8161c191681555b50505050600190811b01905550565b611cbd8061051f6000396000f3fe60806040526004361061014b5760003560e01c8063715018a6116100b6578063b88d4fde1161006f578063b88d4fde146103ff578063c87b56dd1461041f578063d7bb99ba1461043f578063e985e9c514610447578063f2fde38b14610467578063f413d4681461048757600080fd5b8063715018a61461032357806388066df2146103385780638da5cb5b1461038c57806395d89b41146103aa578063a22cb465146103bf578063ae169a50146103df57600080fd5b806342842e0e1161010857806342842e0e14610236578063590e1ae3146102565780635a19cd6a1461026b5780636352211e146102a6578063649e705f146102c657806370a082311461030357600080fd5b806301ffc9a71461015057806306fdde0314610185578063081812fc146101a7578063095ea7b3146101df57806323b872dd1461020157806324600fc314610221575b600080fd5b34801561015c57600080fd5b5061017061016b366004611774565b6104a7565b60405190151581526020015b60405180910390f35b34801561019157600080fd5b5061019a6104f9565b60405161017c91906117e1565b3480156101b357600080fd5b506101c76101c23660046117f4565b61058b565b6040516001600160a01b03909116815260200161017c565b3480156101eb57600080fd5b506101ff6101fa366004611829565b6105b2565b005b34801561020d57600080fd5b506101ff61021c366004611853565b6106cc565b34801561022d57600080fd5b506101ff6106fd565b34801561024257600080fd5b506101ff610251366004611853565b6107ce565b34801561026257600080fd5b506101ff6107e9565b34801561027757600080fd5b506102986102863660046117f4565b600f6020526000908152604090205481565b60405190815260200161017c565b3480156102b257600080fd5b506101c76102c13660046117f4565b610877565b3480156102d257600080fd5b506102f66102e13660046117f4565b600e6020526000908152604090205460ff1681565b60405161017c91906118c8565b34801561030f57600080fd5b5061029861031e3660046118d6565b6108d7565b34801561032f57600080fd5b506101ff61095d565b34801561034457600080fd5b50600854600954600a54600b54600c54610362949392919060ff1685565b6040805195865260208601949094529284019190915260608301521515608082015260a00161017c565b34801561039857600080fd5b506006546001600160a01b03166101c7565b3480156103b657600080fd5b5061019a61096f565b3480156103cb57600080fd5b506101ff6103da3660046118f1565b61097e565b3480156103eb57600080fd5b506101ff6103fa3660046117f4565b61098d565b34801561040b57600080fd5b506101ff61041a366004611943565b610ae3565b34801561042b57600080fd5b5061019a61043a3660046117f4565b610b1b565b6101ff610b8f565b34801561045357600080fd5b50610170610462366004611a27565b610c88565b34801561047357600080fd5b506101ff6104823660046118d6565b610cb6565b34801561049357600080fd5b506101ff6104a2366004611a5a565b610d2c565b60006001600160e01b031982166380ac58cd60e01b14806104d857506001600160e01b03198216635b5e139f60e01b145b806104f357506301ffc9a760e01b6001600160e01b03198316145b92915050565b60606000805461050890611a7c565b80601f016020809104026020016040519081016040528092919081815260200182805461053490611a7c565b80156105815780601f1061055657610100808354040283529160200191610581565b820191906000526020600020905b81548152906001019060200180831161056457829003601f168201915b5050505050905090565b600061059682610dc0565b506000908152600460205260409020546001600160a01b031690565b60006105bd82610877565b9050806001600160a01b0316836001600160a01b03160361062f5760405162461bcd60e51b815260206004820152602160248201527f4552433732313a20617070726f76616c20746f2063757272656e74206f776e656044820152603960f91b60648201526084015b60405180910390fd5b336001600160a01b038216148061064b575061064b8133610c88565b6106bd5760405162461bcd60e51b815260206004820152603d60248201527f4552433732313a20617070726f76652063616c6c6572206973206e6f7420746f60448201527f6b656e206f776e6572206f7220617070726f76656420666f7220616c6c0000006064820152608401610626565b6106c78383610e1f565b505050565b6106d63382610e8d565b6106f25760405162461bcd60e51b815260040161062690611ab6565b6106c7838383610eec565b610705611050565b600b54421161074b5760405162461bcd60e51b815260206004820152601260248201527110d85b5c185a59db881b9bdd08195b99195960721b6044820152606401610626565b60085460095410156107925760405162461bcd60e51b815260206004820152601060248201526f11dbd85b081b9bdd081c995858da195960821b6044820152606401610626565b6006546040516001600160a01b03909116904780156108fc02916000818181858888f193505050501580156107cb573d6000803e3d6000fd5b50565b6106c783838360405180602001604052806000815250610ae3565b600b54421161082f5760405162461bcd60e51b815260206004820152601260248201527110d85b5c185a59db881b9bdd08195b99195960721b6044820152606401610626565b600854600954106108755760405162461bcd60e51b815260206004820152601060248201526f11dbd85b081dd85cc81c995858da195960821b6044820152606401610626565b565b6000818152600260205260408120546001600160a01b0316806104f35760405162461bcd60e51b8152602060048201526018602482015277115490cdcc8c4e881a5b9d985b1a59081d1bdad95b88125160421b6044820152606401610626565b60006001600160a01b0382166109415760405162461bcd60e51b815260206004820152602960248201527f4552433732313a2061646472657373207a65726f206973206e6f7420612076616044820152683634b21037bbb732b960b91b6064820152608401610626565b506001600160a01b031660009081526003602052604090205490565b610965611050565b61087560006110aa565b60606001805461050890611a7c565b6109893383836110fc565b5050565b3361099782610877565b6001600160a01b0316146109df5760405162461bcd60e51b815260206004820152600f60248201526e2737ba103a37b5b2b71037bbb732b960891b6044820152606401610626565b6000818152600e602052604081205460ff1690600d81836003811115610a0757610a07611890565b6003811115610a1857610a18611890565b81526020019081526020016000209050806002015462015180610a3b9190611b19565b6000848152600f6020526040902054610a549190611b30565b421015610aa35760405162461bcd60e51b815260206004820152601860248201527f56657374696e6720706572696f64206e6f7420656e64656400000000000000006044820152606401610626565b7ff51907dbc5b04a8774c652d1286ccc070b3ae6394425a0236dc79e8e8d994fee338484604051610ad693929190611b43565b60405180910390a1505050565b610aed3383610e8d565b610b095760405162461bcd60e51b815260040161062690611ab6565b610b15848484846111ca565b50505050565b6060610b2682610dc0565b6000610b3d60408051602081019091526000815290565b90506000815111610b5d5760405180602001604052806000815250610b88565b80610b67846111fd565b604051602001610b78929190611b67565b6040516020818303038152906040525b9392505050565b600c5460ff16610bd65760405162461bcd60e51b815260206004820152601260248201527127379030b1ba34bb329031b0b6b830b4b3b760711b6044820152606401610626565b600b544210610c185760405162461bcd60e51b815260206004820152600e60248201526d10d85b5c185a59db88195b99195960921b6044820152606401610626565b3460086001016000828254610c2d9190611b30565b9091555060009050610c3e34611290565b9050610c4a3382611348565b7f9f899b81f8e97eb2106dd2b967195e9522b85e766a84a5069ecf961ee10e8889333483604051610c7d93929190611b43565b60405180910390a150565b6001600160a01b03918216600090815260056020908152604080832093909416825291909152205460ff1690565b610cbe611050565b6001600160a01b038116610d235760405162461bcd60e51b815260206004820152602660248201527f4f776e61626c653a206e6577206f776e657220697320746865207a65726f206160448201526564647265737360d01b6064820152608401610626565b6107cb816110aa565b610d34611050565b600c5460ff1615610d875760405162461bcd60e51b815260206004820152601760248201527f43616d706169676e20616c7265616479206163746976650000000000000000006044820152606401610626565b6008829055600060095542600a55610da28162015180611b19565b610dac9042611b30565b600b555050600c805460ff19166001179055565b6000818152600260205260409020546001600160a01b03166107cb5760405162461bcd60e51b8152602060048201526018602482015277115490cdcc8c4e881a5b9d985b1a59081d1bdad95b88125160421b6044820152606401610626565b600081815260046020526040902080546001600160a01b0319166001600160a01b0384169081179091558190610e5482610877565b6001600160a01b03167f8c5be1e5ebec7d5bd14f71427d1e84f3dd0314c0f7b2291e5b200ac8c7c3b92560405160405180910390a45050565b600080610e9983610877565b9050806001600160a01b0316846001600160a01b03161480610ec05750610ec08185610c88565b80610ee45750836001600160a01b0316610ed98461058b565b6001600160a01b0316145b949350505050565b826001600160a01b0316610eff82610877565b6001600160a01b031614610f255760405162461bcd60e51b815260040161062690611b96565b6001600160a01b038216610f875760405162461bcd60e51b8152602060048201526024808201527f4552433732313a207472616e7366657220746f20746865207a65726f206164646044820152637265737360e01b6064820152608401610626565b826001600160a01b0316610f9a82610877565b6001600160a01b031614610fc05760405162461bcd60e51b815260040161062690611b96565b600081815260046020908152604080832080546001600160a01b03199081169091556001600160a01b0387811680865260038552838620805460001901905590871680865283862080546001019055868652600290945282852080549092168417909155905184937fddf252ad1be2c89b69c2b068fc378daa952ba7f163c4a11628f55a4df523b3ef91a4505050565b6006546001600160a01b031633146108755760405162461bcd60e51b815260206004820181905260248201527f4f776e61626c653a2063616c6c6572206973206e6f7420746865206f776e65726044820152606401610626565b600680546001600160a01b038381166001600160a01b0319831681179093556040519116919082907f8be0079c531659141344cd1fd0a4f28419497f9722a3daafe3b4186f6b6457e090600090a35050565b816001600160a01b0316836001600160a01b03160361115d5760405162461bcd60e51b815260206004820152601960248201527f4552433732313a20617070726f766520746f2063616c6c6572000000000000006044820152606401610626565b6001600160a01b03838116600081815260056020908152604080832094871680845294825291829020805460ff191686151590811790915591519182527f17307eab39ab6107e8899845ad3d59bd9653f200f220920489ca2b5937696c31910160405180910390a3505050565b6111d5848484610eec565b6111e1848484846113b2565b610b155760405162461bcd60e51b815260040161062690611bdb565b6060600061120a836114b3565b600101905060008167ffffffffffffffff81111561122a5761122a61192d565b6040519080825280601f01601f191660200182016040528015611254576020820181803683370190505b5090508181016020015b600019016f181899199a1a9b1b9c1cb0b131b232b360811b600a86061a8153600a850494508461125e57509392505050565b60036000908152600d6020527f26b4a10d0f0b04925c23bd4480ee147c916e5e87a7d68206a533dad160ac81e25482106112cc57506003919050565b6002600052600d6020527f10a81eed9d63d16face5e76357905348e6253d3394086026bb2bf2145d7cc24954821061130657506002919050565b6001600052600d6020527ffd54ff1ed53f34a900b24c5ba64f85761163b5d82d98a47b9bd80e45466993c554821061134057506001919050565b506000919050565b600061135360075490565b9050611363600780546001019055565b61136d838261158b565b6000818152600e60205260409020805483919060ff1916600183600381111561139857611398611890565b02179055506000908152600f602052604090204290555050565b60006001600160a01b0384163b156114a857604051630a85bd0160e11b81526001600160a01b0385169063150b7a02906113f6903390899088908890600401611c2d565b6020604051808303816000875af1925050508015611431575060408051601f3d908101601f1916820190925261142e91810190611c6a565b60015b61148e573d80801561145f576040519150601f19603f3d011682016040523d82523d6000602084013e611464565b606091505b5080516000036114865760405162461bcd60e51b815260040161062690611bdb565b805181602001fd5b6001600160e01b031916630a85bd0160e11b149050610ee4565b506001949350505050565b60008072184f03e93ff9f4daa797ed6e38ed64bf6a1f0160401b83106114f25772184f03e93ff9f4daa797ed6e38ed64bf6a1f0160401b830492506040015b6d04ee2d6d415b85acef8100000000831061151e576d04ee2d6d415b85acef8100000000830492506020015b662386f26fc10000831061153c57662386f26fc10000830492506010015b6305f5e1008310611554576305f5e100830492506008015b612710831061156857612710830492506004015b6064831061157a576064830492506002015b600a83106104f35760010192915050565b6109898282604051806020016040528060008152506115aa83836115d3565b6115b760008484846113b2565b6106c75760405162461bcd60e51b815260040161062690611bdb565b6001600160a01b0382166116295760405162461bcd60e51b815260206004820181905260248201527f4552433732313a206d696e7420746f20746865207a65726f20616464726573736044820152606401610626565b6000818152600260205260409020546001600160a01b03161561168e5760405162461bcd60e51b815260206004820152601c60248201527f4552433732313a20746f6b656e20616c7265616479206d696e746564000000006044820152606401610626565b6000818152600260205260409020546001600160a01b0316156116f35760405162461bcd60e51b815260206004820152601c60248201527f4552433732313a20746f6b656e20616c7265616479206d696e746564000000006044820152606401610626565b6001600160a01b038216600081815260036020908152604080832080546001019055848352600290915280822080546001600160a01b0319168417905551839291907fddf252ad1be2c89b69c2b068fc378daa952ba7f163c4a11628f55a4df523b3ef908290a45050565b6001600160e01b0319811681146107cb57600080fd5b60006020828403121561178657600080fd5b8135610b888161175e565b60005b838110156117ac578181015183820152602001611794565b50506000910152565b600081518084526117cd816020860160208601611791565b601f01601f19169290920160200192915050565b602081526000610b8860208301846117b5565b60006020828403121561180657600080fd5b5035919050565b80356001600160a01b038116811461182457600080fd5b919050565b6000806040838503121561183c57600080fd5b6118458361180d565b946020939093013593505050565b60008060006060848603121561186857600080fd5b6118718461180d565b925061187f6020850161180d565b929592945050506040919091013590565b634e487b7160e01b600052602160045260246000fd5b600481106118c457634e487b7160e01b600052602160045260246000fd5b9052565b602081016104f382846118a6565b6000602082840312156118e857600080fd5b610b888261180d565b6000806040838503121561190457600080fd5b61190d8361180d565b91506020830135801515811461192257600080fd5b809150509250929050565b634e487b7160e01b600052604160045260246000fd5b6000806000806080858703121561195957600080fd5b6119628561180d565b93506119706020860161180d565b925060408501359150606085013567ffffffffffffffff81111561199357600080fd5b8501601f810187136119a457600080fd5b803567ffffffffffffffff8111156119be576119be61192d565b604051601f8201601f19908116603f0116810167ffffffffffffffff811182821017156119ed576119ed61192d565b604052818152828201602001891015611a0557600080fd5b8160208401602083013760006020838301015280935050505092959194509250565b60008060408385031215611a3a57600080fd5b611a438361180d565b9150611a516020840161180d565b90509250929050565b60008060408385031215611a6d57600080fd5b50508035926020909101359150565b600181811c90821680611a9057607f821691505b602082108103611ab057634e487b7160e01b600052602260045260246000fd5b50919050565b6020808252602d908201527f4552433732313a2063616c6c6572206973206e6f7420746f6b656e206f776e6560408201526c1c881bdc88185c1c1c9bdd9959609a1b606082015260800190565b634e487b7160e01b600052601160045260246000fd5b80820281158282048414176104f3576104f3611b03565b808201808211156104f3576104f3611b03565b6001600160a01b03841681526020810183905260608101610ee460408301846118a6565b60008351611b79818460208801611791565b835190830190611b8d818360208801611791565b01949350505050565b60208082526025908201527f4552433732313a207472616e736665722066726f6d20696e636f72726563742060408201526437bbb732b960d91b606082015260800190565b60208082526032908201527f4552433732313a207472616e7366657220746f206e6f6e20455243373231526560408201527131b2b4bb32b91034b6b83632b6b2b73a32b960711b606082015260800190565b6001600160a01b0385811682528416602082015260408101839052608060608201819052600090611c60908301846117b5565b9695505050505050565b600060208284031215611c7c57600080fd5b8151610b888161175e56fea264697066735822122028e9a7cfc8484ee2bdf9cd6af332cfc8730a2a22c96b13f98021b14262e2e4e364736f6c634300081c0033476f6c6420737570706f72746572204e4654207769746820676f7665726e616e63652072696768747353696c76657220737570706f72746572204e46542077697468206561726c7920616363657373506c6174696e756d20737570706f72746572204e4654207769746820616c6c2062656e6566697473",
  "linkReferences": {},
  "deployedLinkReferences": {}
}