{
  "contractName": "BandwidthToken",
  "abi": [
    {
      "inputs": [
        {
          "internalType": "address",
          "name": "",
          "type": "address"
        }
      ],
      "name": "balances",
      "outputs": [
        {
          "internalType": "uint256",
          "name": "",
          "type": "uint256"
        }
      ],
      "stateMutability": "view",
      "type": "function"
    },
    {
      "inputs": [],
      "name": "name",
      "outputs": [
        {
          "internalType": "string",
          "name": "",
          "type": "string"
        }
      ],
      "stateMutability": "view",
      "type": "function"
    },
    {
      "inputs": [],
      "name": "symbol",
      "outputs": [
        {
          "internalType": "string",
          "name": "",
          "type": "string"
        }
      ],
      "stateMutability": "view",
      "type": "function"
    },
    {
      "inputs": [],
      "name": "totalSupply",
      "outputs": [
        {
          "internalType": "uint256",
          "name": "",
          "type": "uint256"
        }
      ],
      "stateMutability": "view",
      "type": "function"
    },
    {
      "inputs": [
        {
          "internalType": "uint256",
          "name": "amount",
          "type": "uint256"
        }
      ],
      "name": "mint",
      "outputs": [],
      "stateMutability": "nonpayable",
      "type": "function"
    },
    {
      "inputs": [],
      "name": "claimUnderUtilizedBandwidth",
      "outputs": [
        {
          "internalType": "bool",
          "name": "",
          "type": "bool"
        }
      ],
      "stateMutability": "view",
      "type": "function"
    }
  ],
  "bytecode": "0x608060405234801561000f575f80fd5b506102d38061001d5f395ff3fe608060405234801561000f575f80fd5b5060043610610060575f3560e01c806306fdde031461006457806313aed7d6146100a757806318160ddd146100b657806327e235e3146100d357806395d89b41146100f2578063a0712d6814610115575b5f80fd5b6100916040518060400160405280600e81526020016d2130b7323bb4b23a342a37b5b2b760911b81525081565b60405161009e91906101e9565b60405180910390f35b6040516001815260200161009e565b6100c567016345785d8a000081565b60405190815260200161009e565b6100c56100e1366004610234565b5f6020819052908152604090205481565b610091604051806040016040528060048152602001634254545360e01b81525081565b610128610123366004610261565b61012a565b005b67016345785d8a000081111561017c5760405162461bcd60e51b815260206004820152601260248201527145786365656473206d617820737570706c7960701b60448201526064015b60405180910390fd5b5f81116101bd5760405162461bcd60e51b815260206004820152600f60248201526e139959d85d1a5d9948185b5bdd5b9d608a1b6044820152606401610173565b335f908152602081905260409020546101d7908290610278565b335f9081526020819052604090205550565b5f6020808352835180828501525f5b81811015610214578581018301518582016040015282016101f8565b505f604082860101526040601f19601f8301168501019250505092915050565b5f60208284031215610244575f80fd5b81356001600160a01b038116811461025a575f80fd5b9392505050565b5f60208284031215610271575f80fd5b5035919050565b8082018082111561029757634e487b7160e01b5f52601160045260245ffd5b9291505056fea26469706673582212202cf023b957036d4c3f417e64c22a9778d0c7626fa78392888e0d93b6405d629464736f6c63430008140033",
  "immutableReferences": {},
  "source": "\r\n\r\n// SPDX-License-Identifier: MIT\r\npragma solidity ^0.8.20;\r\n\r\ncontract BandwidthToken {\r\n    string public constant name = \"BandwidthToken\";\r\n    string public constant symbol = \"BTTS\";\r\n    uint public constant totalSupply = 100000000000000000; // Max token supply\r\n\r\n    mapping(address => uint) public balances; // Track user balances\r\n\r\n    function mint(uint amount) public {\r\n        require(amount <= totalSupply, \"Exceeds max supply\");\r\n        require(amount > 0, \"Negative amount\");\r\n        balances[msg.sender] = balances[msg.sender] + amount;\r\n    }\r\n\r\n    function claimUnderUtilizedBandwidth() public view returns (bool) {\r\n        return true; // Simple validation, depending fulture parameters.\r\n    }\r\n}\r\n",
  "sourcePath": "/workspaces/AstraLink/contracts/BandwidthToken.sol",
  "compiler": {
    "name": "solc",
    "version": "0.8.20+commit.a1b79de6.Emscripten.clang"
  },
  "schemaVersion": "3.4.16",
  "updatedAt": "2025-02-28T16:43:24.954Z",
  "devdoc": {
    "kind": "dev",
    "methods": {},
    "version": 1
  },
  "userdoc": {
    "kind": "user",
    "methods": {},
    "version": 1
  }
}