{
  "contractName": "CrossChainBridge",
  "abi": [
    {
      "inputs": [
        {
          "internalType": "bytes32",
          "name": "",
          "type": "bytes32"
        }
      ],
      "name": "bridgeExists",
      "outputs": [
        {
          "internalType": "bool",
          "name": "",
          "type": "bool"
        }
      ],
      "stateMutability": "view",
      "type": "function"
    },
    {
      "inputs": [
        {
          "internalType": "uint256",
          "name": "",
          "type": "uint256"
        }
      ],
      "name": "bridges",
      "outputs": [
        {
          "internalType": "bytes32",
          "name": "id",
          "type": "bytes32"
        },
        {
          "internalType": "string",
          "name": "sourceChain",
          "type": "string"
        },
        {
          "internalType": "string",
          "name": "destinationChain",
          "type": "string"
        }
      ],
      "stateMutability": "view",
      "type": "function"
    },
    {
      "inputs": [
        {
          "internalType": "string",
          "name": "_sourceChain",
          "type": "string"
        },
        {
          "internalType": "string",
          "name": "_destinationChain",
          "type": "string"
        }
      ],
      "name": "addBridge",
      "outputs": [],
      "stateMutability": "nonpayable",
      "type": "function"
    },
    {
      "inputs": [],
      "name": "getBridges",
      "outputs": [
        {
          "components": [
            {
              "internalType": "bytes32",
              "name": "id",
              "type": "bytes32"
            },
            {
              "internalType": "string",
              "name": "sourceChain",
              "type": "string"
            },
            {
              "internalType": "string",
              "name": "destinationChain",
              "type": "string"
            }
          ],
          "internalType": "struct CrossChainBridge.Bridge[]",
          "name": "",
          "type": "tuple[]"
        }
      ],
      "stateMutability": "view",
      "type": "function"
    }
  ],
  "bytecode": "0x608060405234801561000f575f80fd5b506109548061001d5f395ff3fe608060405234801561000f575f80fd5b506004361061004a575f3560e01c80630dda52d81461004e5780632dce0a6b146100635780633b6f0ada14610081578063a3c44705146100b3575b5f80fd5b61006161005c3660046105f5565b6100d5565b005b61006b61021b565b60405161007891906106a2565b60405180910390f35b6100a361008f366004610731565b60016020525f908152604090205460ff1681565b6040519015158152602001610078565b6100c66100c1366004610731565b610419565b60405161007893929190610748565b5f82826040516020016100e992919061077c565b60408051601f1981840301815291815281516020928301205f818152600190935291205490915060ff161561015c5760405162461bcd60e51b815260206004820152601560248201527442726964676520616c72656164792065786973747360581b604482015260640160405180910390fd5b60408051606081018252828152602081018581529181018490525f8054600181018255908052815160039091027f290decd9548b62a8d60345a988386fc84ba6bc95484008f6362f93160ef3e56381019182559251919290917f290decd9548b62a8d60345a988386fc84ba6bc95484008f6362f93160ef3e564909101906101e4908261082a565b50604082015160028201906101f9908261082a565b5050505f908152600160208190526040909120805460ff191690911790555050565b5f80546060919067ffffffffffffffff81111561023a5761023a610558565b60405190808252806020026020018201604052801561028357816020015b60408051606080820183525f825260208083018290529282015282525f199092019101816102585790505b5090505f5b5f54811015610413575f81815481106102a3576102a36108e6565b905f5260205f2090600302016040518060600160405290815f82015481526020016001820180546102d3906107aa565b80601f01602080910402602001604051908101604052809291908181526020018280546102ff906107aa565b801561034a5780601f106103215761010080835404028352916020019161034a565b820191905f5260205f20905b81548152906001019060200180831161032d57829003601f168201915b50505050508152602001600282018054610363906107aa565b80601f016020809104026020016040519081016040528092919081815260200182805461038f906107aa565b80156103da5780601f106103b1576101008083540402835291602001916103da565b820191905f5260205f20905b8154815290600101906020018083116103bd57829003601f168201915b5050505050815250508282815181106103f5576103f56108e6565b6020026020010181905250808061040b906108fa565b915050610288565b50919050565b5f8181548110610427575f80fd5b5f918252602090912060039091020180546001820180549193509061044b906107aa565b80601f0160208091040260200160405190810160405280929190818152602001828054610477906107aa565b80156104c25780601f10610499576101008083540402835291602001916104c2565b820191905f5260205f20905b8154815290600101906020018083116104a557829003601f168201915b5050505050908060020180546104d7906107aa565b80601f0160208091040260200160405190810160405280929190818152602001828054610503906107aa565b801561054e5780601f106105255761010080835404028352916020019161054e565b820191905f5260205f20905b81548152906001019060200180831161053157829003601f168201915b5050505050905083565b634e487b7160e01b5f52604160045260245ffd5b5f82601f83011261057b575f80fd5b813567ffffffffffffffff8082111561059657610596610558565b604051601f8301601f19908116603f011681019082821181831017156105be576105be610558565b816040528381528660208588010111156105d6575f80fd5b836020870160208301375f602085830101528094505050505092915050565b5f8060408385031215610606575f80fd5b823567ffffffffffffffff8082111561061d575f80fd5b6106298683870161056c565b9350602085013591508082111561063e575f80fd5b5061064b8582860161056c565b9150509250929050565b5f5b8381101561066f578181015183820152602001610657565b50505f910152565b5f815180845261068e816020860160208601610655565b601f01601f19169290920160200192915050565b5f6020808301818452808551808352604092508286019150828160051b8701018488015f5b8381101561072357603f19898403018552815160608151855288820151818a8701526106f582870182610677565b9150508782015191508481038886015261070f8183610677565b9689019694505050908601906001016106c7565b509098975050505050505050565b5f60208284031215610741575f80fd5b5035919050565b838152606060208201525f6107606060830185610677565b82810360408401526107728185610677565b9695505050505050565b5f835161078d818460208801610655565b8351908301906107a1818360208801610655565b01949350505050565b600181811c908216806107be57607f821691505b60208210810361041357634e487b7160e01b5f52602260045260245ffd5b601f821115610825575f81815260208120601f850160051c810160208610156108025750805b601f850160051c820191505b818110156108215782815560010161080e565b5050505b505050565b815167ffffffffffffffff81111561084457610844610558565b6108588161085284546107aa565b846107dc565b602080601f83116001811461088b575f84156108745750858301515b5f19600386901b1c1916600185901b178555610821565b5f85815260208120601f198616915b828110156108b95788860151825594840194600190910190840161089a565b50858210156108d657878501515f19600388901b60f8161c191681555b5050505050600190811b01905550565b634e487b7160e01b5f52603260045260245ffd5b5f6001820161091757634e487b7160e01b5f52601160045260245ffd5b506001019056fea26469706673582212205acb86a4024112d49447a97f610ebcc129aea60ee56588ffc1000eeb65ce63ec64736f6c63430008140033",
  "immutableReferences": {},
  "source": "// SPDX-License-Identifier: MIT\r\npragma solidity ^0.8.20;\r\n\r\ncontract CrossChainBridge {\r\n    struct Bridge {\r\n        bytes32 id;\r\n        string sourceChain;\r\n        string destinationChain;\r\n    }\r\n    \r\n    Bridge[] public bridges;\r\n    mapping(bytes32 => bool) public bridgeExists;\r\n\r\n    function addBridge(string memory _sourceChain, string memory _destinationChain) public {\r\n        bytes32 bridgeId = keccak256(abi.encodePacked(_sourceChain, _destinationChain));\r\n        require(!bridgeExists[bridgeId], \"Bridge already exists\");\r\n        \r\n        bridges.push(Bridge(bridgeId, _sourceChain, _destinationChain));\r\n        bridgeExists[bridgeId] = true;\r\n    }\r\n\r\n    function getBridges() public view returns (Bridge[] memory) {\r\n        Bridge[] memory result = new Bridge[](bridges.length);\r\n        for (uint256 i = 0; i < bridges.length; i++) {\r\n            result[i] = bridges[i];\r\n        }\r\n        return result;\r\n    }\r\n}\r\n",
  "sourcePath": "/workspaces/AstraLink/contracts/CrossChainBridge.sol",
  "compiler": {
    "name": "solc",
    "version": "0.8.20+commit.a1b79de6.Emscripten.clang"
  },
  "schemaVersion": "3.4.16",
  "updatedAt": "2025-02-28T16:43:24.955Z",
  "devdoc": {
    "kind": "dev",
    "methods": {},
    "version": 1
  },
  "userdoc": {
    "kind": "user",
    "methods": {},
    "version": 1
  }
}