{
  "contractName": "EnhancedDynamicESIMNFT",
  "abi": [
    {
      "inputs": [],
      "stateMutability": "nonpayable",
      "type": "constructor"
    },
    {
      "anonymous": false,
      "inputs": [
        {
          "indexed": true,
          "internalType": "address",
          "name": "owner",
          "type": "address"
        },
        {
          "indexed": true,
          "internalType": "address",
          "name": "approved",
          "type": "address"
        },
        {
          "indexed": true,
          "internalType": "uint256",
          "name": "tokenId",
          "type": "uint256"
        }
      ],
      "name": "Approval",
      "type": "event"
    },
    {
      "anonymous": false,
      "inputs": [
        {
          "indexed": true,
          "internalType": "address",
          "name": "owner",
          "type": "address"
        },
        {
          "indexed": true,
          "internalType": "address",
          "name": "operator",
          "type": "address"
        },
        {
          "indexed": false,
          "internalType": "bool",
          "name": "approved",
          "type": "bool"
        }
      ],
      "name": "ApprovalForAll",
      "type": "event"
    },
    {
      "anonymous": false,
      "inputs": [
        {
          "indexed": true,
          "internalType": "address",
          "name": "previousOwner",
          "type": "address"
        },
        {
          "indexed": true,
          "internalType": "address",
          "name": "newOwner",
          "type": "address"
        }
      ],
      "name": "OwnershipTransferred",
      "type": "event"
    },
    {
      "anonymous": false,
      "inputs": [
        {
          "indexed": true,
          "internalType": "address",
          "name": "from",
          "type": "address"
        },
        {
          "indexed": true,
          "internalType": "address",
          "name": "to",
          "type": "address"
        },
        {
          "indexed": true,
          "internalType": "uint256",
          "name": "tokenId",
          "type": "uint256"
        }
      ],
      "name": "Transfer",
      "type": "event"
    },
    {
      "inputs": [
        {
          "internalType": "address",
          "name": "to",
          "type": "address"
        },
        {
          "internalType": "uint256",
          "name": "tokenId",
          "type": "uint256"
        }
      ],
      "name": "approve",
      "outputs": [],
      "stateMutability": "nonpayable",
      "type": "function"
    },
    {
      "inputs": [
        {
          "internalType": "address",
          "name": "owner",
          "type": "address"
        }
      ],
      "name": "balanceOf",
      "outputs": [
        {
          "internalType": "uint256",
          "name": "",
          "type": "uint256"
        }
      ],
      "stateMutability": "view",
      "type": "function"
    },
    {
      "inputs": [
        {
          "internalType": "uint256",
          "name": "tokenId",
          "type": "uint256"
        }
      ],
      "name": "getApproved",
      "outputs": [
        {
          "internalType": "address",
          "name": "",
          "type": "address"
        }
      ],
      "stateMutability": "view",
      "type": "function"
    },
    {
      "inputs": [
        {
          "internalType": "address",
          "name": "owner",
          "type": "address"
        },
        {
          "internalType": "address",
          "name": "operator",
          "type": "address"
        }
      ],
      "name": "isApprovedForAll",
      "outputs": [
        {
          "internalType": "bool",
          "name": "",
          "type": "bool"
        }
      ],
      "stateMutability": "view",
      "type": "function"
    },
    {
      "inputs": [],
      "name": "name",
      "outputs": [
        {
          "internalType": "string",
          "name": "",
          "type": "string"
        }
      ],
      "stateMutability": "view",
      "type": "function"
    },
    {
      "inputs": [],
      "name": "owner",
      "outputs": [
        {
          "internalType": "address",
          "name": "",
          "type": "address"
        }
      ],
      "stateMutability": "view",
      "type": "function"
    },
    {
      "inputs": [
        {
          "internalType": "uint256",
          "name": "tokenId",
          "type": "uint256"
        }
      ],
      "name": "ownerOf",
      "outputs": [
        {
          "internalType": "address",
          "name": "",
          "type": "address"
        }
      ],
      "stateMutability": "view",
      "type": "function"
    },
    {
      "inputs": [],
      "name": "renounceOwnership",
      "outputs": [],
      "stateMutability": "nonpayable",
      "type": "function"
    },
    {
      "inputs": [
        {
          "internalType": "address",
          "name": "from",
          "type": "address"
        },
        {
          "internalType": "address",
          "name": "to",
          "type": "address"
        },
        {
          "internalType": "uint256",
          "name": "tokenId",
          "type": "uint256"
        }
      ],
      "name": "safeTransferFrom",
      "outputs": [],
      "stateMutability": "nonpayable",
      "type": "function"
    },
    {
      "inputs": [
        {
          "internalType": "address",
          "name": "from",
          "type": "address"
        },
        {
          "internalType": "address",
          "name": "to",
          "type": "address"
        },
        {
          "internalType": "uint256",
          "name": "tokenId",
          "type": "uint256"
        },
        {
          "internalType": "bytes",
          "name": "data",
          "type": "bytes"
        }
      ],
      "name": "safeTransferFrom",
      "outputs": [],
      "stateMutability": "nonpayable",
      "type": "function"
    },
    {
      "inputs": [
        {
          "internalType": "address",
          "name": "operator",
          "type": "address"
        },
        {
          "internalType": "bool",
          "name": "approved",
          "type": "bool"
        }
      ],
      "name": "setApprovalForAll",
      "outputs": [],
      "stateMutability": "nonpayable",
      "type": "function"
    },
    {
      "inputs": [
        {
          "internalType": "bytes4",
          "name": "interfaceId",
          "type": "bytes4"
        }
      ],
      "name": "supportsInterface",
      "outputs": [
        {
          "internalType": "bool",
          "name": "",
          "type": "bool"
        }
      ],
      "stateMutability": "view",
      "type": "function"
    },
    {
      "inputs": [],
      "name": "symbol",
      "outputs": [
        {
          "internalType": "string",
          "name": "",
          "type": "string"
        }
      ],
      "stateMutability": "view",
      "type": "function"
    },
    {
      "inputs": [
        {
          "internalType": "uint256",
          "name": "tokenId",
          "type": "uint256"
        }
      ],
      "name": "tokenURI",
      "outputs": [
        {
          "internalType": "string",
          "name": "",
          "type": "string"
        }
      ],
      "stateMutability": "view",
      "type": "function"
    },
    {
      "inputs": [
        {
          "internalType": "address",
          "name": "from",
          "type": "address"
        },
        {
          "internalType": "address",
          "name": "to",
          "type": "address"
        },
        {
          "internalType": "uint256",
          "name": "tokenId",
          "type": "uint256"
        }
      ],
      "name": "transferFrom",
      "outputs": [],
      "stateMutability": "nonpayable",
      "type": "function"
    },
    {
      "inputs": [
        {
          "internalType": "address",
          "name": "newOwner",
          "type": "address"
        }
      ],
      "name": "transferOwnership",
      "outputs": [],
      "stateMutability": "nonpayable",
      "type": "function"
    },
    {
      "inputs": [
        {
          "internalType": "uint256",
          "name": "_id",
          "type": "uint256"
        },
        {
          "internalType": "address",
          "name": "_to",
          "type": "address"
        },
        {
          "internalType": "string",
          "name": "metadata",
          "type": "string"
        }
      ],
      "name": "mintESIM",
      "outputs": [],
      "stateMutability": "nonpayable",
      "type": "function"
    },
    {
      "inputs": [
        {
          "internalType": "uint256",
          "name": "_id",
          "type": "uint256"
        },
        {
          "internalType": "string",
          "name": "_newStatus",
          "type": "string"
        }
      ],
      "name": "updateStatus",
      "outputs": [],
      "stateMutability": "nonpayable",
      "type": "function"
    },
    {
      "inputs": [
        {
          "internalType": "uint256",
          "name": "_id",
          "type": "uint256"
        },
        {
          "internalType": "string",
          "name": "_newMetadata",
          "type": "string"
        }
      ],
      "name": "updateMetadata",
      "outputs": [],
      "stateMutability": "nonpayable",
      "type": "function"
    },
    {
      "inputs": [
        {
          "internalType": "uint256",
          "name": "_id",
          "type": "uint256"
        }
      ],
      "name": "getESIM",
      "outputs": [
        {
          "components": [
            {
              "internalType": "uint256",
              "name": "id",
              "type": "uint256"
            },
            {
              "internalType": "address",
              "name": "owner",
              "type": "address"
            },
            {
              "internalType": "string",
              "name": "status",
              "type": "string"
            },
            {
              "internalType": "string",
              "name": "metadata",
              "type": "string"
            }
          ],
          "internalType": "struct EnhancedDynamicESIMNFT.ESIM",
          "name": "",
          "type": "tuple"
        }
      ],
      "stateMutability": "view",
      "type": "function"
    }
  ],
  "bytecode": "0x608060405234801562000010575f80fd5b506040518060400160405280600e81526020016d111e5b985b5a58d154d25353919560921b81525060405180604001604052806005815260200164444553494d60d81b815250815f908162000066919062000192565b50600162000075828262000192565b505050620000926200008c6200009d60201b60201c565b620000a1565b60016007556200025a565b3390565b600680546001600160a01b038381166001600160a01b0319831681179093556040519116919082907f8be0079c531659141344cd1fd0a4f28419497f9722a3daafe3b4186f6b6457e0905f90a35050565b634e487b7160e01b5f52604160045260245ffd5b600181811c908216806200011b57607f821691505b6020821081036200013a57634e487b7160e01b5f52602260045260245ffd5b50919050565b601f8211156200018d575f81815260208120601f850160051c81016020861015620001685750805b601f850160051c820191505b81811015620001895782815560010162000174565b5050505b505050565b81516001600160401b03811115620001ae57620001ae620000f2565b620001c681620001bf845462000106565b8462000140565b602080601f831160018114620001fc575f8415620001e45750858301515b5f19600386901b1c1916600185901b17855562000189565b5f85815260208120601f198616915b828110156200022c578886015182559484019460019091019084016200020b565b50858210156200024a57878501515f19600388901b60f8161c191681555b5050505050600190811b01905550565b611b6480620002685f395ff3fe608060405234801561000f575f80fd5b5060043610610127575f3560e01c80638da5cb5b116100a9578063b88d4fde1161006e578063b88d4fde1461027c578063c87b56dd1461028f578063d1b34dd8146102a2578063e985e9c5146102b5578063f2fde38b146102f0575f80fd5b80638da5cb5b1461021d57806395d89b411461022e5780639c2dbfd914610236578063a22cb46514610256578063a6ba165014610269575f80fd5b806342842e0e116100ef57806342842e0e146101bb57806353c8388e146101ce5780636352211e146101e157806370a08231146101f4578063715018a614610215575f80fd5b806301ffc9a71461012b57806306fdde0314610153578063081812fc14610168578063095ea7b31461019357806323b872dd146101a8575b5f80fd5b61013e6101393660046114e4565b610303565b60405190151581526020015b60405180910390f35b61015b610354565b60405161014a919061154c565b61017b61017636600461155e565b6103e3565b6040516001600160a01b03909116815260200161014a565b6101a66101a1366004611590565b610408565b005b6101a66101b63660046115b8565b610521565b6101a66101c93660046115b8565b610552565b6101a66101dc366004611696565b61056c565b61017b6101ef36600461155e565b610608565b6102076102023660046116da565b610667565b60405190815260200161014a565b6101a66106eb565b6006546001600160a01b031661017b565b61015b6106fe565b61024961024436600461155e565b61070d565b60405161014a91906116f3565b6101a6610264366004611750565b61089f565b6101a6610277366004611789565b6108aa565b6101a661028a3660046117dc565b610a47565b61015b61029d36600461155e565b610a7f565b6101a66102b0366004611696565b610aef565b61013e6102c3366004611853565b6001600160a01b039182165f90815260056020908152604080832093909416825291909152205460ff1690565b6101a66102fe3660046116da565b610b71565b5f6001600160e01b031982166380ac58cd60e01b148061033357506001600160e01b03198216635b5e139f60e01b145b8061034e57506301ffc9a760e01b6001600160e01b03198316145b92915050565b60605f805461036290611884565b80601f016020809104026020016040519081016040528092919081815260200182805461038e90611884565b80156103d95780601f106103b0576101008083540402835291602001916103d9565b820191905f5260205f20905b8154815290600101906020018083116103bc57829003601f168201915b5050505050905090565b5f6103ed82610bea565b505f908152600460205260409020546001600160a01b031690565b5f61041282610608565b9050806001600160a01b0316836001600160a01b0316036104845760405162461bcd60e51b815260206004820152602160248201527f4552433732313a20617070726f76616c20746f2063757272656e74206f776e656044820152603960f91b60648201526084015b60405180910390fd5b336001600160a01b03821614806104a057506104a081336102c3565b6105125760405162461bcd60e51b815260206004820152603d60248201527f4552433732313a20617070726f76652063616c6c6572206973206e6f7420746f60448201527f6b656e206f776e6572206f7220617070726f76656420666f7220616c6c000000606482015260840161047b565b61051c8383610c48565b505050565b61052b3382610cb5565b6105475760405162461bcd60e51b815260040161047b906118bc565b61051c838383610d32565b61051c83838360405180602001604052805f815250610a47565b610574610e94565b3361057e83610608565b6001600160a01b0316146105df5760405162461bcd60e51b815260206004820152602260248201527f4f6e6c7920746865206f776e65722063616e20757064617465206d6574616461604482015261746160f01b606482015260840161047b565b5f8281526008602052604090206003016105f98282611956565b506106046001600755565b5050565b5f818152600260205260408120546001600160a01b03168061034e5760405162461bcd60e51b8152602060048201526018602482015277115490cdcc8c4e881a5b9d985b1a59081d1bdad95b88125160421b604482015260640161047b565b5f6001600160a01b0382166106d05760405162461bcd60e51b815260206004820152602960248201527f4552433732313a2061646472657373207a65726f206973206e6f7420612076616044820152683634b21037bbb732b960b91b606482015260840161047b565b506001600160a01b03165f9081526003602052604090205490565b6106f3610eed565b6106fc5f610f47565b565b60606001805461036290611884565b61073f60405180608001604052805f81526020015f6001600160a01b0316815260200160608152602001606081525090565b5f8281526008602090815260409182902082516080810184528154815260018201546001600160a01b031692810192909252600281018054929391929184019161078890611884565b80601f01602080910402602001604051908101604052809291908181526020018280546107b490611884565b80156107ff5780601f106107d6576101008083540402835291602001916107ff565b820191905f5260205f20905b8154815290600101906020018083116107e257829003601f168201915b5050505050815260200160038201805461081890611884565b80601f016020809104026020016040519081016040528092919081815260200182805461084490611884565b801561088f5780601f106108665761010080835404028352916020019161088f565b820191905f5260205f20905b81548152906001019060200180831161087257829003601f168201915b5050505050815250509050919050565b610604338383610f98565b6108b2610eed565b6108ba610e94565b825f036108ff5760405162461bcd60e51b81526020600482015260136024820152724944206d757374206265206e6f6e2d7a65726f60681b604482015260640161047b565b6001600160a01b0382166109475760405162461bcd60e51b815260206004820152600f60248201526e496e76616c6964206164647265737360881b604482015260640161047b565b5f83815260086020526040902054156109985760405162461bcd60e51b81526020600482015260136024820152724553494d20616c72656164792065786973747360681b604482015260640161047b565b6109a28284611065565b604080516080810182528481526001600160a01b03848116602080840191825284518086018652600581526415985b1a5960da1b81830152848601908152606085018790525f89815260089092529490208351815590516001820180546001600160a01b031916919093161790915591519091906002820190610a259082611956565b5060608201516003820190610a3a9082611956565b5050600160075550505050565b610a513383610cb5565b610a6d5760405162461bcd60e51b815260040161047b906118bc565b610a798484848461107e565b50505050565b6060610a8a82610bea565b5f610a9f60408051602081019091525f815290565b90505f815111610abd5760405180602001604052805f815250610ae8565b80610ac7846110b1565b604051602001610ad8929190611a12565b6040516020818303038152906040525b9392505050565b610af7610e94565b33610b0183610608565b6001600160a01b031614610b575760405162461bcd60e51b815260206004820181905260248201527f4f6e6c7920746865206f776e65722063616e2075706461746520737461747573604482015260640161047b565b5f8281526008602052604090206002016105f98282611956565b610b79610eed565b6001600160a01b038116610bde5760405162461bcd60e51b815260206004820152602660248201527f4f776e61626c653a206e6577206f776e657220697320746865207a65726f206160448201526564647265737360d01b606482015260840161047b565b610be781610f47565b50565b5f818152600260205260409020546001600160a01b0316610be75760405162461bcd60e51b8152602060048201526018602482015277115490cdcc8c4e881a5b9d985b1a59081d1bdad95b88125160421b604482015260640161047b565b5f81815260046020526040902080546001600160a01b0319166001600160a01b0384169081179091558190610c7c82610608565b6001600160a01b03167f8c5be1e5ebec7d5bd14f71427d1e84f3dd0314c0f7b2291e5b200ac8c7c3b92560405160405180910390a45050565b5f80610cc083610608565b9050806001600160a01b0316846001600160a01b03161480610d0657506001600160a01b038082165f9081526005602090815260408083209388168352929052205460ff165b80610d2a5750836001600160a01b0316610d1f846103e3565b6001600160a01b0316145b949350505050565b826001600160a01b0316610d4582610608565b6001600160a01b031614610d6b5760405162461bcd60e51b815260040161047b90611a40565b6001600160a01b038216610dcd5760405162461bcd60e51b8152602060048201526024808201527f4552433732313a207472616e7366657220746f20746865207a65726f206164646044820152637265737360e01b606482015260840161047b565b826001600160a01b0316610de082610608565b6001600160a01b031614610e065760405162461bcd60e51b815260040161047b90611a40565b5f81815260046020908152604080832080546001600160a01b03199081169091556001600160a01b038781168086526003855283862080545f1901905590871680865283862080546001019055868652600290945282852080549092168417909155905184937fddf252ad1be2c89b69c2b068fc378daa952ba7f163c4a11628f55a4df523b3ef91a4505050565b600260075403610ee65760405162461bcd60e51b815260206004820152601f60248201527f5265656e7472616e637947756172643a207265656e7472616e742063616c6c00604482015260640161047b565b6002600755565b6006546001600160a01b031633146106fc5760405162461bcd60e51b815260206004820181905260248201527f4f776e61626c653a2063616c6c6572206973206e6f7420746865206f776e6572604482015260640161047b565b600680546001600160a01b038381166001600160a01b0319831681179093556040519116919082907f8be0079c531659141344cd1fd0a4f28419497f9722a3daafe3b4186f6b6457e0905f90a35050565b816001600160a01b0316836001600160a01b031603610ff95760405162461bcd60e51b815260206004820152601960248201527f4552433732313a20617070726f766520746f2063616c6c657200000000000000604482015260640161047b565b6001600160a01b038381165f81815260056020908152604080832094871680845294825291829020805460ff191686151590811790915591519182527f17307eab39ab6107e8899845ad3d59bd9653f200f220920489ca2b5937696c31910160405180910390a3505050565b610604828260405180602001604052805f815250611141565b611089848484610d32565b61109584848484611173565b610a795760405162461bcd60e51b815260040161047b90611a85565b60605f6110bd83611270565b60010190505f8167ffffffffffffffff8111156110dc576110dc6115f1565b6040519080825280601f01601f191660200182016040528015611106576020820181803683370190505b5090508181016020015b5f19016f181899199a1a9b1b9c1cb0b131b232b360811b600a86061a8153600a850494508461111057509392505050565b61114b8383611347565b6111575f848484611173565b61051c5760405162461bcd60e51b815260040161047b90611a85565b5f6001600160a01b0384163b1561126557604051630a85bd0160e11b81526001600160a01b0385169063150b7a02906111b6903390899088908890600401611ad7565b6020604051808303815f875af19250505080156111f0575060408051601f3d908101601f191682019092526111ed91810190611b13565b60015b61124b573d80801561121d576040519150601f19603f3d011682016040523d82523d5f602084013e611222565b606091505b5080515f036112435760405162461bcd60e51b815260040161047b90611a85565b805181602001fd5b6001600160e01b031916630a85bd0160e11b149050610d2a565b506001949350505050565b5f8072184f03e93ff9f4daa797ed6e38ed64bf6a1f0160401b83106112ae5772184f03e93ff9f4daa797ed6e38ed64bf6a1f0160401b830492506040015b6d04ee2d6d415b85acef810000000083106112da576d04ee2d6d415b85acef8100000000830492506020015b662386f26fc1000083106112f857662386f26fc10000830492506010015b6305f5e1008310611310576305f5e100830492506008015b612710831061132457612710830492506004015b60648310611336576064830492506002015b600a831061034e5760010192915050565b6001600160a01b03821661139d5760405162461bcd60e51b815260206004820181905260248201527f4552433732313a206d696e7420746f20746865207a65726f2061646472657373604482015260640161047b565b5f818152600260205260409020546001600160a01b0316156114015760405162461bcd60e51b815260206004820152601c60248201527f4552433732313a20746f6b656e20616c7265616479206d696e74656400000000604482015260640161047b565b5f818152600260205260409020546001600160a01b0316156114655760405162461bcd60e51b815260206004820152601c60248201527f4552433732313a20746f6b656e20616c7265616479206d696e74656400000000604482015260640161047b565b6001600160a01b0382165f81815260036020908152604080832080546001019055848352600290915280822080546001600160a01b0319168417905551839291907fddf252ad1be2c89b69c2b068fc378daa952ba7f163c4a11628f55a4df523b3ef908290a45050565b6001600160e01b031981168114610be7575f80fd5b5f602082840312156114f4575f80fd5b8135610ae8816114cf565b5f5b83811015611519578181015183820152602001611501565b50505f910152565b5f81518084526115388160208601602086016114ff565b601f01601f19169290920160200192915050565b602081525f610ae86020830184611521565b5f6020828403121561156e575f80fd5b5035919050565b80356001600160a01b038116811461158b575f80fd5b919050565b5f80604083850312156115a1575f80fd5b6115aa83611575565b946020939093013593505050565b5f805f606084860312156115ca575f80fd5b6115d384611575565b92506115e160208501611575565b9150604084013590509250925092565b634e487b7160e01b5f52604160045260245ffd5b5f67ffffffffffffffff8084111561161f5761161f6115f1565b604051601f8501601f19908116603f01168101908282118183101715611647576116476115f1565b8160405280935085815286868601111561165f575f80fd5b858560208301375f602087830101525050509392505050565b5f82601f830112611687575f80fd5b610ae883833560208501611605565b5f80604083850312156116a7575f80fd5b82359150602083013567ffffffffffffffff8111156116c4575f80fd5b6116d085828601611678565b9150509250929050565b5f602082840312156116ea575f80fd5b610ae882611575565b602081528151602082015260018060a01b0360208301511660408201525f60408301516080606084015261172a60a0840182611521565b90506060840151601f198483030160808501526117478282611521565b95945050505050565b5f8060408385031215611761575f80fd5b61176a83611575565b91506020830135801515811461177e575f80fd5b809150509250929050565b5f805f6060848603121561179b575f80fd5b833592506117ab60208501611575565b9150604084013567ffffffffffffffff8111156117c6575f80fd5b6117d286828701611678565b9150509250925092565b5f805f80608085870312156117ef575f80fd5b6117f885611575565b935061180660208601611575565b925060408501359150606085013567ffffffffffffffff811115611828575f80fd5b8501601f81018713611838575f80fd5b61184787823560208401611605565b91505092959194509250565b5f8060408385031215611864575f80fd5b61186d83611575565b915061187b60208401611575565b90509250929050565b600181811c9082168061189857607f821691505b6020821081036118b657634e487b7160e01b5f52602260045260245ffd5b50919050565b6020808252602d908201527f4552433732313a2063616c6c6572206973206e6f7420746f6b656e206f776e6560408201526c1c881bdc88185c1c1c9bdd9959609a1b606082015260800190565b601f82111561051c575f81815260208120601f850160051c8101602086101561192f5750805b601f850160051c820191505b8181101561194e5782815560010161193b565b505050505050565b815167ffffffffffffffff811115611970576119706115f1565b6119848161197e8454611884565b84611909565b602080601f8311600181146119b7575f84156119a05750858301515b5f19600386901b1c1916600185901b17855561194e565b5f85815260208120601f198616915b828110156119e5578886015182559484019460019091019084016119c6565b5085821015611a0257878501515f19600388901b60f8161c191681555b5050505050600190811b01905550565b5f8351611a238184602088016114ff565b835190830190611a378183602088016114ff565b01949350505050565b60208082526025908201527f4552433732313a207472616e736665722066726f6d20696e636f72726563742060408201526437bbb732b960d91b606082015260800190565b60208082526032908201527f4552433732313a207472616e7366657220746f206e6f6e20455243373231526560408201527131b2b4bb32b91034b6b83632b6b2b73a32b960711b606082015260800190565b6001600160a01b03858116825284166020820152604081018390526080606082018190525f90611b0990830184611521565b9695505050505050565b5f60208284031215611b23575f80fd5b8151610ae8816114cf56fea26469706673582212202af31116fc76a27a0fdf80fac96663f49ad803561908d16150f75cec6b5e990264736f6c63430008140033",
  "immutableReferences": {},
  "source": "// SPDX-License-Identifier: MIT\r\npragma solidity ^0.8.0;\r\n\r\nimport \"@openzeppelin/contracts/token/ERC721/ERC721.sol\";\r\nimport \"@openzeppelin/contracts/access/Ownable.sol\";\r\nimport \"@openzeppelin/contracts/security/ReentrancyGuard.sol\";\r\n\r\n/**\r\n * @title EnhancedDynamicESIMNFT\r\n * @dev This contract extends ERC721 to manage Enhanced Dynamic ESIM NFTs with additional functionalities.\r\n */\r\ncontract EnhancedDynamicESIMNFT is ERC721, Ownable, ReentrancyGuard {\r\n    /**\r\n     * @dev Struct to hold ESIM details.\r\n     */\r\n    struct ESIM {\r\n        uint256 id;\r\n        address owner;\r\n        string status;\r\n        string metadata;\r\n    }\r\n\r\n    /**\r\n     * @dev Mapping of ESIM ID to ESIM struct.\r\n     */\r\n    mapping(uint256 => ESIM) private esims;\r\n\r\n    /**\r\n     * @dev Constructor to initialize the contract with the name and symbol.\r\n     */\r\n    constructor() ERC721(\"DynamicESIMNFT\", \"DESIM\") { }\r\n\r\n    /**\r\n     * @dev Function to mint a new ESIM NFT.\r\n     * @param _id The ID of the ESIM.\r\n     * @param _to The address to mint the ESIM to.\r\n     * @param metadata The metadata of the ESIM.\r\n     */\r\n    function mintESIM(uint256 _id, address _to, string memory metadata) external onlyOwner nonReentrant {\r\n        require(_id != 0, \"ID must be non-zero\");\r\n        require(_to != address(0), \"Invalid address\");\r\n        require(esims[_id].id == 0, \"ESIM already exists\");\r\n        _safeMint(_to, _id);\r\n        esims[_id] = ESIM(_id, _to, \"Valid\", metadata);\r\n    }\r\n\r\n    /**\r\n     * @dev Function to update the status of an ESIM.\r\n     * @param _id The ID of the ESIM.\r\n     * @param _newStatus The new status of the ESIM.\r\n     */\r\n    function updateStatus(uint256 _id, string memory _newStatus) external nonReentrant {\r\n        require(ownerOf(_id) == msg.sender, \"Only the owner can update status\");\r\n        esims[_id].status = _newStatus;\r\n    }\r\n\r\n    /**\r\n     * @dev Function to update the metadata of an ESIM.\r\n     * @param _id The ID of the ESIM.\r\n     * @param _newMetadata The new metadata of the ESIM.\r\n     */\r\n    function updateMetadata(uint256 _id, string memory _newMetadata) external nonReentrant {\r\n        require(ownerOf(_id) == msg.sender, \"Only the owner can update metadata\");\r\n        esims[_id].metadata = _newMetadata;\r\n    }\r\n\r\n    /**\r\n     * @dev Function to get the details of an ESIM.\r\n     * @param _id The ID of the ESIM.\r\n     * @return The ESIM struct.\r\n     */\r\n    function getESIM(uint256 _id) external view returns (ESIM memory) {\r\n        return esims[_id];\r\n    }\r\n}\r\n",
  "sourcePath": "/workspaces/AstraLink/contracts/EnhancedDynamicESIMNFT.sol",
  "compiler": {
    "name": "solc",
    "version": "0.8.20+commit.a1b79de6.Emscripten.clang"
  },
  "schemaVersion": "3.4.16",
  "updatedAt": "2025-02-28T16:43:24.962Z",
  "devdoc": {
    "details": "This contract extends ERC721 to manage Enhanced Dynamic ESIM NFTs with additional functionalities.",
    "events": {
      "Approval(address,address,uint256)": {
        "details": "Emitted when `owner` enables `approved` to manage the `tokenId` token."
      },
      "ApprovalForAll(address,address,bool)": {
        "details": "Emitted when `owner` enables or disables (`approved`) `operator` to manage all of its assets."
      },
      "Transfer(address,address,uint256)": {
        "details": "Emitted when `tokenId` token is transferred from `from` to `to`."
      }
    },
    "kind": "dev",
    "methods": {
      "approve(address,uint256)": {
        "details": "See {IERC721-approve}."
      },
      "balanceOf(address)": {
        "details": "See {IERC721-balanceOf}."
      },
      "constructor": {
        "details": "Constructor to initialize the contract with the name and symbol."
      },
      "getApproved(uint256)": {
        "details": "See {IERC721-getApproved}."
      },
      "getESIM(uint256)": {
        "details": "Function to get the details of an ESIM.",
        "params": {
          "_id": "The ID of the ESIM."
        },
        "returns": {
          "_0": "The ESIM struct."
        }
      },
      "isApprovedForAll(address,address)": {
        "details": "See {IERC721-isApprovedForAll}."
      },
      "mintESIM(uint256,address,string)": {
        "details": "Function to mint a new ESIM NFT.",
        "params": {
          "_id": "The ID of the ESIM.",
          "_to": "The address to mint the ESIM to.",
          "metadata": "The metadata of the ESIM."
        }
      },
      "name()": {
        "details": "See {IERC721Metadata-name}."
      },
      "owner()": {
        "details": "Returns the address of the current owner."
      },
      "ownerOf(uint256)": {
        "details": "See {IERC721-ownerOf}."
      },
      "renounceOwnership()": {
        "details": "Leaves the contract without owner. It will not be possible to call `onlyOwner` functions. Can only be called by the current owner. NOTE: Renouncing ownership will leave the contract without an owner, thereby disabling any functionality that is only available to the owner."
      },
      "safeTransferFrom(address,address,uint256)": {
        "details": "See {IERC721-safeTransferFrom}."
      },
      "safeTransferFrom(address,address,uint256,bytes)": {
        "details": "See {IERC721-safeTransferFrom}."
      },
      "setApprovalForAll(address,bool)": {
        "details": "See {IERC721-setApprovalForAll}."
      },
      "supportsInterface(bytes4)": {
        "details": "See {IERC165-supportsInterface}."
      },
      "symbol()": {
        "details": "See {IERC721Metadata-symbol}."
      },
      "tokenURI(uint256)": {
        "details": "See {IERC721Metadata-tokenURI}."
      },
      "transferFrom(address,address,uint256)": {
        "details": "See {IERC721-transferFrom}."
      },
      "transferOwnership(address)": {
        "details": "Transfers ownership of the contract to a new account (`newOwner`). Can only be called by the current owner."
      },
      "updateMetadata(uint256,string)": {
        "details": "Function to update the metadata of an ESIM.",
        "params": {
          "_id": "The ID of the ESIM.",
          "_newMetadata": "The new metadata of the ESIM."
        }
      },
      "updateStatus(uint256,string)": {
        "details": "Function to update the status of an ESIM.",
        "params": {
          "_id": "The ID of the ESIM.",
          "_newStatus": "The new status of the ESIM."
        }
      }
    },
    "stateVariables": {
      "esims": {
        "details": "Mapping of ESIM ID to ESIM struct."
      }
    },
    "title": "EnhancedDynamicESIMNFT",
    "version": 1
  },
  "userdoc": {
    "kind": "user",
    "methods": {},
    "version": 1
  }
}