{
  "contractName": "ESIMManager",
  "abi": [
    {
      "inputs": [
        {
          "internalType": "uint256",
          "name": "",
          "type": "uint256"
        }
      ],
      "name": "esims",
      "outputs": [
        {
          "internalType": "uint256",
          "name": "id",
          "type": "uint256"
        },
        {
          "internalType": "string",
          "name": "imsi",
          "type": "string"
        },
        {
          "internalType": "address",
          "name": "owner",
          "type": "address"
        },
        {
          "internalType": "uint256",
          "name": "dataBalance",
          "type": "uint256"
        }
      ],
      "stateMutability": "view",
      "type": "function"
    },
    {
      "inputs": [
        {
          "internalType": "uint256",
          "name": "_id",
          "type": "uint256"
        },
        {
          "internalType": "string",
          "name": "_imsi",
          "type": "string"
        }
      ],
      "name": "mintESIM",
      "outputs": [],
      "stateMutability": "nonpayable",
      "type": "function"
    },
    {
      "inputs": [
        {
          "internalType": "uint256",
          "name": "_id",
          "type": "uint256"
        },
        {
          "internalType": "uint256",
          "name": "_amount",
          "type": "uint256"
        }
      ],
      "name": "topUp",
      "outputs": [],
      "stateMutability": "nonpayable",
      "type": "function"
    },
    {
      "inputs": [
        {
          "internalType": "uint256",
          "name": "_id",
          "type": "uint256"
        },
        {
          "internalType": "address",
          "name": "_newOwner",
          "type": "address"
        }
      ],
      "name": "transferESIM",
      "outputs": [],
      "stateMutability": "nonpayable",
      "type": "function"
    }
  ],
  "bytecode": "0x608060405234801561000f575f80fd5b506106828061001d5f395ff3fe608060405234801561000f575f80fd5b506004361061004a575f3560e01c80631f00ae611461004e578063ce2560cf1461007a578063de643a711461008f578063df7da0ea146100a2575b5f80fd5b61006161005c366004610341565b6100b5565b6040516100719493929190610358565b60405180910390f35b61008d6100883660046103c3565b61016d565b005b61008d61009d3660046103fc565b6101fa565b61008d6100b0366004610430565b610275565b5f60208190529081526040902080546001820180549192916100d6906104e5565b80601f0160208091040260200160405190810160405280929190818152602001828054610102906104e5565b801561014d5780601f106101245761010080835404028352916020019161014d565b820191905f5260205f20905b81548152906001019060200180831161013057829003601f168201915b50505050600283015460039093015491926001600160a01b031691905084565b5f828152602081905260409020600201546001600160a01b031633146101ca5760405162461bcd60e51b815260206004820152600d60248201526c2737ba103a34329037bbb732b960991b60448201526064015b60405180910390fd5b5f9182526020829052604090912060020180546001600160a01b0319166001600160a01b03909216919091179055565b5f82815260208190526040812054900361024c5760405162461bcd60e51b81526020600482015260136024820152721954d25348191bd95cc81b9bdd08195e1a5cdd606a1b60448201526064016101c1565b5f828152602081905260408120600301805483929061026c90849061051d565b90915550505050565b5f82815260208190526040902054156102c65760405162461bcd60e51b81526020600482015260136024820152726553494d20616c72656164792065786973747360681b60448201526064016101c1565b60408051608081018252838152602080820184815233838501525f6060840181905286815291829052929020815181559151909190600182019061030a9082610590565b5060408201516002820180546001600160a01b0319166001600160a01b039092169190911790556060909101516003909101555050565b5f60208284031215610351575f80fd5b5035919050565b8481525f602060808184015285518060808501525f5b8181101561038a5787810183015185820160a00152820161036e565b505f60a08286018101919091526001600160a01b0396909616604085015260608401949094525050601f909101601f1916010192915050565b5f80604083850312156103d4575f80fd5b8235915060208301356001600160a01b03811681146103f1575f80fd5b809150509250929050565b5f806040838503121561040d575f80fd5b50508035926020909101359150565b634e487b7160e01b5f52604160045260245ffd5b5f8060408385031215610441575f80fd5b82359150602083013567ffffffffffffffff8082111561045f575f80fd5b818501915085601f830112610472575f80fd5b8135818111156104845761048461041c565b604051601f8201601f19908116603f011681019083821181831017156104ac576104ac61041c565b816040528281528860208487010111156104c4575f80fd5b826020860160208301375f6020848301015280955050505050509250929050565b600181811c908216806104f957607f821691505b60208210810361051757634e487b7160e01b5f52602260045260245ffd5b50919050565b8082018082111561053c57634e487b7160e01b5f52601160045260245ffd5b92915050565b601f82111561058b575f81815260208120601f850160051c810160208610156105685750805b601f850160051c820191505b8181101561058757828155600101610574565b5050505b505050565b815167ffffffffffffffff8111156105aa576105aa61041c565b6105be816105b884546104e5565b84610542565b602080601f8311600181146105f1575f84156105da5750858301515b5f19600386901b1c1916600185901b178555610587565b5f85815260208120601f198616915b8281101561061f57888601518255948401946001909101908401610600565b508582101561063c57878501515f19600388901b60f8161c191681555b5050505050600190811b0190555056fea26469706673582212204e2bbb8b5e70ab9634c6fcf64ee20d7e62441579bfb7ae333b8a423dc437e04b64736f6c63430008140033",
  "immutableReferences": {},
  "source": "// SPDX-License-Identifier: MIT\r\npragma solidity ^0.8.20;\r\n\r\ncontract ESIMManager {\r\n    struct ESIM {\r\n        uint256 id;        // ESIM ID\r\n        string imsi; // International Mobile Subscriber Identity\r\n        address owner;   // Expressions who owns the ESIM for management\r\n        uint256 dataBalance; // Data Balance in MB\r\n    }\r\n\r\n    mapping(uint256 => ESIM) public esims;\r\n\r\n    function mintESIM(uint256 _id, string memory _imsi) public {\r\n        require(esims[_id].id == 0, \"eSIM already exists\");\r\n        esims[_id] = ESIM(_id, _imsi, msg.sender, 0);\r\n    }\r\n\r\n    function topUp(uint256 _id, uint256 _amount) public {\r\n        require(esims[_id].id != 0, \"eSIM does not exist\");\r\n        esims[_id].dataBalance += _amount;\r\n    }\r\n\r\n    function transferESIM(uint256 _id, address _newOwner) public {\r\n        require(msg.sender == esims[_id].owner, \"Not the owner\");\r\n        esims[_id].owner = _newOwner;\r\n    }\r\n}\r\n",
  "sourcePath": "/workspaces/AstraLink/contracts/ESIM.sol",
  "compiler": {
    "name": "solc",
    "version": "0.8.20+commit.a1b79de6.Emscripten.clang"
  },
  "schemaVersion": "3.4.16",
  "updatedAt": "2025-02-28T16:43:24.960Z",
  "devdoc": {
    "kind": "dev",
    "methods": {},
    "version": 1
  },
  "userdoc": {
    "kind": "user",
    "methods": {},
    "version": 1
  }
}