{
  "contractName": "QuantumESIM",
  "abi": [
    {
      "inputs": [
        {
          "internalType": "uint256",
          "name": "",
          "type": "uint256"
        }
      ],
      "name": "esims",
      "outputs": [
        {
          "internalType": "uint256",
          "name": "id",
          "type": "uint256"
        },
        {
          "internalType": "string",
          "name": "imsi",
          "type": "string"
        },
        {
          "internalType": "address",
          "name": "owner",
          "type": "address"
        },
        {
          "internalType": "uint256",
          "name": "dataBalance",
          "type": "uint256"
        },
        {
          "internalType": "bytes32",
          "name": "quantumProof",
          "type": "bytes32"
        }
      ],
      "stateMutability": "view",
      "type": "function"
    },
    {
      "inputs": [
        {
          "internalType": "uint256",
          "name": "_id",
          "type": "uint256"
        },
        {
          "internalType": "string",
          "name": "_imsi",
          "type": "string"
        },
        {
          "internalType": "bytes32",
          "name": "_quantumProof",
          "type": "bytes32"
        }
      ],
      "name": "mintESIM",
      "outputs": [],
      "stateMutability": "nonpayable",
      "type": "function"
    },
    {
      "inputs": [
        {
          "internalType": "uint256",
          "name": "_id",
          "type": "uint256"
        },
        {
          "internalType": "bytes32",
          "name": "_proof",
          "type": "bytes32"
        }
      ],
      "name": "verifyQuantumProof",
      "outputs": [
        {
          "internalType": "bool",
          "name": "",
          "type": "bool"
        }
      ],
      "stateMutability": "view",
      "type": "function"
    }
  ],
  "bytecode": "0x608060405234801561000f575f80fd5b5061054e8061001d5f395ff3fe608060405234801561000f575f80fd5b506004361061003f575f3560e01c80631f00ae61146100435780639a8086c514610070578063e859f19c14610085575b5f80fd5b61005661005136600461025b565b6100b9565b604051610067959493929190610272565b60405180910390f35b61008361007e3660046102f9565b610179565b005b6100a96100933660046103b6565b5f91825260208290526040909120600401541490565b6040519015158152602001610067565b5f60208190529081526040902080546001820180549192916100da906103d6565b80601f0160208091040260200160405190810160405280929190818152602001828054610106906103d6565b80156101515780601f1061012857610100808354040283529160200191610151565b820191905f5260205f20905b81548152906001019060200180831161013457829003601f168201915b505050506002830154600384015460049094015492936001600160a01b039091169290915085565b5f83815260208190526040902054156101ce5760405162461bcd60e51b81526020600482015260136024820152726553494d20616c72656164792065786973747360681b604482015260640160405180910390fd5b6040805160a081018252848152602080820185815233838501525f6060840181905260808401869052878152918290529290208151815591519091906001820190610219908261045c565b5060408201516002820180546001600160a01b0319166001600160a01b0390921691909117905560608201516003820155608090910151600490910155505050565b5f6020828403121561026b575f80fd5b5035919050565b8581525f602060a08184015286518060a08501525f5b818110156102a45788810183015185820160c001528201610288565b505f60c08286018101919091526001600160a01b03979097166040850152606084019590955250506080810191909152601f909101601f1916010192915050565b634e487b7160e01b5f52604160045260245ffd5b5f805f6060848603121561030b575f80fd5b83359250602084013567ffffffffffffffff80821115610329575f80fd5b818601915086601f83011261033c575f80fd5b81358181111561034e5761034e6102e5565b604051601f8201601f19908116603f01168101908382118183101715610376576103766102e5565b8160405282815289602084870101111561038e575f80fd5b826020860160208301375f602084830101528096505050505050604084013590509250925092565b5f80604083850312156103c7575f80fd5b50508035926020909101359150565b600181811c908216806103ea57607f821691505b60208210810361040857634e487b7160e01b5f52602260045260245ffd5b50919050565b601f821115610457575f81815260208120601f850160051c810160208610156104345750805b601f850160051c820191505b8181101561045357828155600101610440565b5050505b505050565b815167ffffffffffffffff811115610476576104766102e5565b61048a8161048484546103d6565b8461040e565b602080601f8311600181146104bd575f84156104a65750858301515b5f19600386901b1c1916600185901b178555610453565b5f85815260208120601f198616915b828110156104eb578886015182559484019460019091019084016104cc565b508582101561050857878501515f19600388901b60f8161c191681555b5050505050600190811b0190555056fea2646970667358221220a374e399288bce373809e09726de16916fc88879ae5ae1015bb77de0f4b0df7064736f6c63430008140033",
  "immutableReferences": {},
  "source": "// SPDX-License-MIT\r\n// SPDX-License-Identifier: MIT\r\npragma solidity ^0.8.20;\r\n\r\ncontract QuantumESIM {\r\n    struct ESIM {\r\n        uint256 id;        // ESIM ID\r\n        string imsi; // International Mobile Subscriber Identity\r\n        address owner;   // Expressions who owns the ESIM for management\r\n        uint256 dataBalance; // Data Balance in MB\r\n        bytes32 quantumProof; // Quantum signature\r\n    }\r\n\r\n    mapping(uint256 => ESIM) public esims;\r\n\r\n    function mintESIM(uint256 _id, string memory _imsi, bytes32 _quantumProof) public {\r\n        require(esims[_id].id == 0, \"eSIM already exists\");\r\n        esims[_id] = ESIM(_id, _imsi, msg.sender, 0, _quantumProof);\r\n    }\r\n\r\n    function verifyQuantumProof(uint256 _id, bytes32 _proof) public view returns (bool) {\r\n        return esims[_id].quantumProof == _proof;\r\n    }\r\n}\r\n",
  "sourcePath": "/workspaces/AstraLink/contracts/QuantumESIM.sol",
  "compiler": {
    "name": "solc",
    "version": "0.8.20+commit.a1b79de6.Emscripten.clang"
  },
  "schemaVersion": "3.4.16",
  "updatedAt": "2025-02-28T16:43:24.968Z",
  "devdoc": {
    "kind": "dev",
    "methods": {},
    "version": 1
  },
  "userdoc": {
    "kind": "user",
    "methods": {},
    "version": 1
  }
}