{
  "contractName": "SecurityProvider",
  "abi": [
    {
      "inputs": [],
      "stateMutability": "nonpayable",
      "type": "constructor"
    },
    {
      "anonymous": false,
      "inputs": [
        {
          "indexed": true,
          "internalType": "bytes32",
          "name": "role",
          "type": "bytes32"
        },
        {
          "indexed": true,
          "internalType": "bytes32",
          "name": "previousAdminRole",
          "type": "bytes32"
        },
        {
          "indexed": true,
          "internalType": "bytes32",
          "name": "newAdminRole",
          "type": "bytes32"
        }
      ],
      "name": "RoleAdminChanged",
      "type": "event"
    },
    {
      "anonymous": false,
      "inputs": [
        {
          "indexed": true,
          "internalType": "bytes32",
          "name": "role",
          "type": "bytes32"
        },
        {
          "indexed": true,
          "internalType": "address",
          "name": "account",
          "type": "address"
        },
        {
          "indexed": true,
          "internalType": "address",
          "name": "sender",
          "type": "address"
        }
      ],
      "name": "RoleGranted",
      "type": "event"
    },
    {
      "anonymous": false,
      "inputs": [
        {
          "indexed": true,
          "internalType": "bytes32",
          "name": "role",
          "type": "bytes32"
        },
        {
          "indexed": true,
          "internalType": "address",
          "name": "account",
          "type": "address"
        },
        {
          "indexed": true,
          "internalType": "address",
          "name": "sender",
          "type": "address"
        }
      ],
      "name": "RoleRevoked",
      "type": "event"
    },
    {
      "inputs": [],
      "name": "ADMIN_ROLE",
      "outputs": [
        {
          "internalType": "bytes32",
          "name": "",
          "type": "bytes32"
        }
      ],
      "stateMutability": "view",
      "type": "function"
    },
    {
      "inputs": [],
      "name": "DEFAULT_ADMIN_ROLE",
      "outputs": [
        {
          "internalType": "bytes32",
          "name": "",
          "type": "bytes32"
        }
      ],
      "stateMutability": "view",
      "type": "function"
    },
    {
      "inputs": [],
      "name": "OPERATOR_ROLE",
      "outputs": [
        {
          "internalType": "bytes32",
          "name": "",
          "type": "bytes32"
        }
      ],
      "stateMutability": "view",
      "type": "function"
    },
    {
      "inputs": [
        {
          "internalType": "bytes32",
          "name": "role",
          "type": "bytes32"
        }
      ],
      "name": "getRoleAdmin",
      "outputs": [
        {
          "internalType": "bytes32",
          "name": "",
          "type": "bytes32"
        }
      ],
      "stateMutability": "view",
      "type": "function"
    },
    {
      "inputs": [
        {
          "internalType": "bytes32",
          "name": "role",
          "type": "bytes32"
        },
        {
          "internalType": "address",
          "name": "account",
          "type": "address"
        }
      ],
      "name": "grantRole",
      "outputs": [],
      "stateMutability": "nonpayable",
      "type": "function"
    },
    {
      "inputs": [
        {
          "internalType": "bytes32",
          "name": "role",
          "type": "bytes32"
        },
        {
          "internalType": "address",
          "name": "account",
          "type": "address"
        }
      ],
      "name": "hasRole",
      "outputs": [
        {
          "internalType": "bool",
          "name": "",
          "type": "bool"
        }
      ],
      "stateMutability": "view",
      "type": "function"
    },
    {
      "inputs": [
        {
          "internalType": "bytes32",
          "name": "role",
          "type": "bytes32"
        },
        {
          "internalType": "address",
          "name": "account",
          "type": "address"
        }
      ],
      "name": "renounceRole",
      "outputs": [],
      "stateMutability": "nonpayable",
      "type": "function"
    },
    {
      "inputs": [
        {
          "internalType": "bytes32",
          "name": "role",
          "type": "bytes32"
        },
        {
          "internalType": "address",
          "name": "account",
          "type": "address"
        }
      ],
      "name": "revokeRole",
      "outputs": [],
      "stateMutability": "nonpayable",
      "type": "function"
    },
    {
      "inputs": [
        {
          "internalType": "bytes4",
          "name": "interfaceId",
          "type": "bytes4"
        }
      ],
      "name": "supportsInterface",
      "outputs": [
        {
          "internalType": "bool",
          "name": "",
          "type": "bool"
        }
      ],
      "stateMutability": "view",
      "type": "function"
    },
    {
      "inputs": [
        {
          "internalType": "address",
          "name": "account",
          "type": "address"
        }
      ],
      "name": "addToWhitelist",
      "outputs": [],
      "stateMutability": "nonpayable",
      "type": "function"
    }
  ],
  "bytecode": "0x608060405234801561000f575f80fd5b5060015f908155610020903361004f565b61004a7fa49807205ce4d355092ef5a8a18f56e8913cf4a201fbe287825b095693c217753361004f565b6100e2565b610059828261005d565b5050565b5f8281526001602090815260408083206001600160a01b038516845290915290205460ff16610059575f8281526001602081815260408084206001600160a01b0386168086529252808420805460ff19169093179092559051339285917f2f8788117e7eff1d82e926ec794901d17c78024a50270940304540a733656f0d9190a45050565b610828806100ef5f395ff3fe608060405234801561000f575f80fd5b506004361061009b575f3560e01c806391d148541161006357806391d1485414610147578063a217fddf1461015a578063d547741f14610161578063e43252d714610174578063f5b541a614610187575f80fd5b806301ffc9a71461009f578063248a9ca3146100c75780632f2ff15d146100f857806336568abe1461010d57806375b238fc14610120575b5f80fd5b6100b26100ad366004610613565b6101ae565b60405190151581526020015b60405180910390f35b6100ea6100d536600461063a565b5f908152600160208190526040909120015490565b6040519081526020016100be565b61010b61010636600461066c565b6101e4565b005b61010b61011b36600461066c565b61020e565b6100ea7fa49807205ce4d355092ef5a8a18f56e8913cf4a201fbe287825b095693c2177581565b6100b261015536600461066c565b610291565b6100ea5f81565b61010b61016f36600461066c565b6102bb565b61010b610182366004610696565b6102e0565b6100ea7f97667070c54ef182b0f5858b034beac1b6f3089aa2d3188bb1e8929f4fa9b92981565b5f6001600160e01b03198216637965db0b60e01b14806101de57506301ffc9a760e01b6001600160e01b03198316145b92915050565b5f82815260016020819052604090912001546101ff8161032e565b610209838361033b565b505050565b6001600160a01b03811633146102835760405162461bcd60e51b815260206004820152602f60248201527f416363657373436f6e74726f6c3a2063616e206f6e6c792072656e6f756e636560448201526e103937b632b9903337b91039b2b63360891b60648201526084015b60405180910390fd5b61028d82826103a5565b5050565b5f9182526001602090815260408084206001600160a01b0393909316845291905290205460ff1690565b5f82815260016020819052604090912001546102d68161032e565b61020983836103a5565b7fa49807205ce4d355092ef5a8a18f56e8913cf4a201fbe287825b095693c2177561030a8161032e565b506001600160a01b03165f908152600260205260409020805460ff19166001179055565b610338813361040b565b50565b6103458282610291565b61028d575f8281526001602081815260408084206001600160a01b0386168086529252808420805460ff19169093179092559051339285917f2f8788117e7eff1d82e926ec794901d17c78024a50270940304540a733656f0d9190a45050565b6103af8282610291565b1561028d575f8281526001602090815260408083206001600160a01b0385168085529252808320805460ff1916905551339285917ff6391f5c32d9c69d2a47ea670b442974b53935d1edc7fd64eb21e047a839171b9190a45050565b6104158282610291565b61028d5761042281610464565b61042d836020610476565b60405160200161043e9291906106d1565b60408051601f198184030181529082905262461bcd60e51b825261027a91600401610745565b60606101de6001600160a01b03831660145b60605f61048483600261078b565b61048f9060026107a2565b67ffffffffffffffff8111156104a7576104a76107b5565b6040519080825280601f01601f1916602001820160405280156104d1576020820181803683370190505b509050600360fc1b815f815181106104eb576104eb6107c9565b60200101906001600160f81b03191690815f1a905350600f60fb1b81600181518110610519576105196107c9565b60200101906001600160f81b03191690815f1a9053505f61053b84600261078b565b6105469060016107a2565b90505b60018111156105bd576f181899199a1a9b1b9c1cb0b131b232b360811b85600f166010811061057a5761057a6107c9565b1a60f81b828281518110610590576105906107c9565b60200101906001600160f81b03191690815f1a90535060049490941c936105b6816107dd565b9050610549565b50831561060c5760405162461bcd60e51b815260206004820181905260248201527f537472696e67733a20686578206c656e67746820696e73756666696369656e74604482015260640161027a565b9392505050565b5f60208284031215610623575f80fd5b81356001600160e01b03198116811461060c575f80fd5b5f6020828403121561064a575f80fd5b5035919050565b80356001600160a01b0381168114610667575f80fd5b919050565b5f806040838503121561067d575f80fd5b8235915061068d60208401610651565b90509250929050565b5f602082840312156106a6575f80fd5b61060c82610651565b5f5b838110156106c95781810151838201526020016106b1565b50505f910152565b7f416363657373436f6e74726f6c3a206163636f756e742000000000000000000081525f83516107088160178501602088016106af565b7001034b99036b4b9b9b4b733903937b6329607d1b60179184019182015283516107398160288401602088016106af565b01602801949350505050565b602081525f82518060208401526107638160408501602087016106af565b601f01601f19169190910160400192915050565b634e487b7160e01b5f52601160045260245ffd5b80820281158282048414176101de576101de610777565b808201808211156101de576101de610777565b634e487b7160e01b5f52604160045260245ffd5b634e487b7160e01b5f52603260045260245ffd5b5f816107eb576107eb610777565b505f19019056fea2646970667358221220c434423ea282d5eb376000f5b7f90f16a9037a6fb0451c4ca5f37d0a48f5e76964736f6c63430008140033",
  "immutableReferences": {},
  "source": "// SPDX-License-Identifier: MIT\r\npragma solidity ^0.8.0;\r\n\r\nimport \"@openzeppelin/contracts/security/ReentrancyGuard.sol\";\r\nimport \"@openzeppelin/contracts/access/AccessControl.sol\";\r\n\r\ncontract SecurityProvider is ReentrancyGuard, AccessControl {\r\n    bytes32 public constant ADMIN_ROLE = keccak256(\"ADMIN_ROLE\");\r\n    bytes32 public constant OPERATOR_ROLE = keccak256(\"OPERATOR_ROLE\");\r\n\r\n    mapping(address => bool) private whitelisted;\r\n    \r\n    constructor() {\r\n        _setupRole(DEFAULT_ADMIN_ROLE, msg.sender);\r\n        _setupRole(ADMIN_ROLE, msg.sender);\r\n    }\r\n\r\n    modifier onlyWhitelisted() {\r\n        require(whitelisted[msg.sender], \"Not whitelisted\");\r\n        _;\r\n    }\r\n\r\n    function addToWhitelist(address account) external onlyRole(ADMIN_ROLE) {\r\n        whitelisted[account] = true;\r\n    }\r\n}\r\n",
  "sourcePath": "/workspaces/AstraLink/contracts/security/SecurityProvider.sol",
  "compiler": {
    "name": "solc",
    "version": "0.8.20+commit.a1b79de6.Emscripten.clang"
  },
  "schemaVersion": "3.4.16",
  "updatedAt": "2025-02-28T16:43:24.970Z",
  "devdoc": {
    "events": {
      "RoleAdminChanged(bytes32,bytes32,bytes32)": {
        "details": "Emitted when `newAdminRole` is set as ``role``'s admin role, replacing `previousAdminRole` `DEFAULT_ADMIN_ROLE` is the starting admin for all roles, despite {RoleAdminChanged} not being emitted signaling this. _Available since v3.1._"
      },
      "RoleGranted(bytes32,address,address)": {
        "details": "Emitted when `account` is granted `role`. `sender` is the account that originated the contract call, an admin role bearer except when using {AccessControl-_setupRole}."
      },
      "RoleRevoked(bytes32,address,address)": {
        "details": "Emitted when `account` is revoked `role`. `sender` is the account that originated the contract call:   - if using `revokeRole`, it is the admin role bearer   - if using `renounceRole`, it is the role bearer (i.e. `account`)"
      }
    },
    "kind": "dev",
    "methods": {
      "getRoleAdmin(bytes32)": {
        "details": "Returns the admin role that controls `role`. See {grantRole} and {revokeRole}. To change a role's admin, use {_setRoleAdmin}."
      },
      "grantRole(bytes32,address)": {
        "details": "Grants `role` to `account`. If `account` had not been already granted `role`, emits a {RoleGranted} event. Requirements: - the caller must have ``role``'s admin role. May emit a {RoleGranted} event."
      },
      "hasRole(bytes32,address)": {
        "details": "Returns `true` if `account` has been granted `role`."
      },
      "renounceRole(bytes32,address)": {
        "details": "Revokes `role` from the calling account. Roles are often managed via {grantRole} and {revokeRole}: this function's purpose is to provide a mechanism for accounts to lose their privileges if they are compromised (such as when a trusted device is misplaced). If the calling account had been revoked `role`, emits a {RoleRevoked} event. Requirements: - the caller must be `account`. May emit a {RoleRevoked} event."
      },
      "revokeRole(bytes32,address)": {
        "details": "Revokes `role` from `account`. If `account` had been granted `role`, emits a {RoleRevoked} event. Requirements: - the caller must have ``role``'s admin role. May emit a {RoleRevoked} event."
      },
      "supportsInterface(bytes4)": {
        "details": "See {IERC165-supportsInterface}."
      }
    },
    "version": 1
  },
  "userdoc": {
    "kind": "user",
    "methods": {},
    "version": 1
  }
}