{
  "contractName": "SecureTransactions",
  "abi": [
    {
      "inputs": [
        {
          "internalType": "address",
          "name": "_verifierAddress",
          "type": "address"
        }
      ],
      "stateMutability": "nonpayable",
      "type": "constructor"
    },
    {
      "anonymous": false,
      "inputs": [
        {
          "indexed": true,
          "internalType": "address",
          "name": "previousOwner",
          "type": "address"
        },
        {
          "indexed": true,
          "internalType": "address",
          "name": "newOwner",
          "type": "address"
        }
      ],
      "name": "OwnershipTransferred",
      "type": "event"
    },
    {
      "inputs": [],
      "name": "owner",
      "outputs": [
        {
          "internalType": "address",
          "name": "",
          "type": "address"
        }
      ],
      "stateMutability": "view",
      "type": "function"
    },
    {
      "inputs": [],
      "name": "renounceOwnership",
      "outputs": [],
      "stateMutability": "nonpayable",
      "type": "function"
    },
    {
      "inputs": [
        {
          "internalType": "bytes32",
          "name": "",
          "type": "bytes32"
        }
      ],
      "name": "transactions",
      "outputs": [
        {
          "internalType": "address",
          "name": "sender",
          "type": "address"
        },
        {
          "internalType": "address",
          "name": "receiver",
          "type": "address"
        }
      ],
      "stateMutability": "view",
      "type": "function"
    },
    {
      "inputs": [
        {
          "internalType": "address",
          "name": "newOwner",
          "type": "address"
        }
      ],
      "name": "transferOwnership",
      "outputs": [],
      "stateMutability": "nonpayable",
      "type": "function"
    },
    {
      "inputs": [],
      "name": "verifier",
      "outputs": [
        {
          "internalType": "contract Verifier",
          "name": "",
          "type": "address"
        }
      ],
      "stateMutability": "view",
      "type": "function"
    },
    {
      "inputs": [
        {
          "internalType": "uint256[2]",
          "name": "a",
          "type": "uint256[2]"
        },
        {
          "internalType": "uint256[2][2]",
          "name": "b",
          "type": "uint256[2][2]"
        },
        {
          "internalType": "uint256[2]",
          "name": "c",
          "type": "uint256[2]"
        },
        {
          "internalType": "uint256[2]",
          "name": "input",
          "type": "uint256[2]"
        }
      ],
      "name": "verifyProof",
      "outputs": [
        {
          "internalType": "bool",
          "name": "",
          "type": "bool"
        }
      ],
      "stateMutability": "view",
      "type": "function"
    },
    {
      "inputs": [
        {
          "internalType": "address",
          "name": "_sender",
          "type": "address"
        },
        {
          "internalType": "address",
          "name": "_receiver",
          "type": "address"
        },
        {
          "internalType": "uint256[2]",
          "name": "a",
          "type": "uint256[2]"
        },
        {
          "internalType": "uint256[2][2]",
          "name": "b",
          "type": "uint256[2][2]"
        },
        {
          "internalType": "uint256[2]",
          "name": "c",
          "type": "uint256[2]"
        },
        {
          "internalType": "uint256[2]",
          "name": "input",
          "type": "uint256[2]"
        }
      ],
      "name": "transfer",
      "outputs": [],
      "stateMutability": "nonpayable",
      "type": "function"
    }
  ],
  "bytecode": "0x608060405234801561000f575f80fd5b506040516108ce3803806108ce83398101604081905261002e916100b1565b60015f5561003b33610060565b600280546001600160a01b0319166001600160a01b03929092169190911790556100de565b600180546001600160a01b038381166001600160a01b0319831681179093556040519116919082907f8be0079c531659141344cd1fd0a4f28419497f9722a3daafe3b4186f6b6457e0905f90a35050565b5f602082840312156100c1575f80fd5b81516001600160a01b03811681146100d7575f80fd5b9392505050565b6107e3806100eb5f395ff3fe608060405234801561000f575f80fd5b506004361061007a575f3560e01c80638da5cb5b116100585780638da5cb5b1461010b5780639137d22b1461011c578063f2fde38b1461012f578063f5c9d69e14610142575f80fd5b80632b7ac3f31461007e578063642f2eaf146100ae578063715018a614610101575b5f80fd5b600254610091906001600160a01b031681565b6040516001600160a01b0390911681526020015b60405180910390f35b6100e16100bc366004610484565b60036020525f9081526040902080546001909101546001600160a01b03918216911682565b604080516001600160a01b039384168152929091166020830152016100a5565b610109610165565b005b6001546001600160a01b0316610091565b61010961012a366004610591565b610178565b61010961013d366004610608565b61028b565b610155610150366004610628565b610304565b60405190151581526020016100a5565b61016d610382565b6101765f6103dc565b565b61018061042d565b610188610382565b61019484848484610304565b6101de5760405162461bcd60e51b815260206004820152601660248201527524b73b30b634b2103d3596a9a720a92590383937b7b360511b60448201526064015b60405180910390fd5b6040518060400160405280876001600160a01b03168152602001866001600160a01b031681525060035f8686868660405160200161021f94939291906106a7565b60408051601f19818403018152918152815160209283012083528282019390935291015f20825181546001600160a01b039182166001600160a01b031991821617835593909201516001909101805491909216921691909117905561028360015f55565b505050505050565b610293610382565b6001600160a01b0381166102f85760405162461bcd60e51b815260206004820152602660248201527f4f776e61626c653a206e6577206f776e657220697320746865207a65726f206160448201526564647265737360d01b60648201526084016101d5565b610301816103dc565b50565b600254604051637ae4eb4f60e11b81525f916001600160a01b03169063f5c9d69e9061033a908890889088908890600401610731565b602060405180830381865afa158015610355573d5f803e3d5ffd5b505050506040513d601f19601f82011682018060405250810190610379919061078e565b95945050505050565b6001546001600160a01b031633146101765760405162461bcd60e51b815260206004820181905260248201527f4f776e61626c653a2063616c6c6572206973206e6f7420746865206f776e657260448201526064016101d5565b600180546001600160a01b038381166001600160a01b0319831681179093556040519116919082907f8be0079c531659141344cd1fd0a4f28419497f9722a3daafe3b4186f6b6457e0905f90a35050565b60025f540361047e5760405162461bcd60e51b815260206004820152601f60248201527f5265656e7472616e637947756172643a207265656e7472616e742063616c6c0060448201526064016101d5565b60025f55565b5f60208284031215610494575f80fd5b5035919050565b80356001600160a01b03811681146104b1575f80fd5b919050565b6040805190810167ffffffffffffffff811182821017156104e557634e487b7160e01b5f52604160045260245ffd5b60405290565b5f82601f8301126104fa575f80fd5b6105026104b6565b806040840185811115610513575f80fd5b845b8181101561052d578035845260209384019301610515565b509095945050505050565b5f82601f830112610547575f80fd5b60406105516104b6565b806080850186811115610562575f80fd5b855b818110156105855761057688826104eb565b84526020909301928401610564565b50909695505050505050565b5f805f805f8061018087890312156105a7575f80fd5b6105b08761049b565b95506105be6020880161049b565b94506105cd88604089016104eb565b93506105dc8860808901610538565b92506105ec8861010089016104eb565b91506105fc8861014089016104eb565b90509295509295509295565b5f60208284031215610618575f80fd5b6106218261049b565b9392505050565b5f805f80610140858703121561063c575f80fd5b61064686866104eb565b93506106558660408701610538565b92506106648660c087016104eb565b91506106748661010087016104eb565b905092959194509250565b805f5b60028110156106a1578151845260209384019390910190600101610682565b50505050565b6106b1818661067f565b5f6040808301865f805b60028082106106ca5750610704565b835185845b838110156106ed5782518252602092830192909101906001016106cf565b5050509385019350602092909201916001016106bb565b505050505061071660c083018561067f565b61072461010083018461067f565b5061014001949350505050565b6101408101610740828761067f565b6040808301865f5b600281101561076f5761075c83835161067f565b9183019160209190910190600101610748565b5050505061078060c083018561067f565b61037961010083018461067f565b5f6020828403121561079e575f80fd5b81518015158114610621575f80fdfea26469706673582212204119124dae059b30db1fafef3094b3400cd7636d8aa3c421ecd144f80d28918f64736f6c63430008140033",
  "immutableReferences": {},
  "source": "// SPDX-License-Identifier: MIT\r\npragma solidity ^0.8.0;\r\nimport \"@openzeppelin/contracts/security/ReentrancyGuard.sol\";\r\nimport \"@openzeppelin/contracts/access/Ownable.sol\";\r\nimport \"./Verifier.sol\"; // Import zk-SNARK verifier contract\r\n\r\n/**\r\n * @title SecureTransactions\r\n * @dev This contract manages secure transactions using zk-SNARKs for proof verification.\r\n */\r\ncontract SecureTransactions is ReentrancyGuard, Ownable {\r\n    Verifier public verifier;\r\n    \r\n    constructor(address _verifierAddress) {\r\n        verifier = Verifier(_verifierAddress);\r\n    }\r\n\r\n    /**\r\n     * @dev Struct to hold transaction details.\r\n     */\r\n    struct Transaction {\r\n        address sender;\r\n        address receiver;\r\n    }\r\n\r\n    /**\r\n     * @dev Mapping of proof to transaction struct.\r\n     */\r\n    mapping(bytes32 => Transaction) public transactions;\r\n\r\n    /**\r\n     * @dev Function to verify the zk-SNARK proof.\r\n     * @param a The first part of the proof.\r\n     * @param b The second part of the proof.\r\n     * @param c The third part of the proof.\r\n     * @param input The input to the proof.\r\n     * @return True if the proof is valid, false otherwise.\r\n     */\r\n    function verifyProof(\r\n        uint[2] memory a,\r\n        uint[2][2] memory b,\r\n        uint[2] memory c,\r\n        uint[2] memory input\r\n    ) public view returns (bool) {\r\n        return verifier.verifyProof(a, b, c, input);\r\n    }\r\n\r\n    /**\r\n     * @dev Function to transfer funds with proof verification.\r\n     * @param _sender The sender address.\r\n     * @param _receiver The receiver address.\r\n     * @param a The first part of the proof.\r\n     * @param b The second part of the proof.\r\n     * @param c The third part of the proof.\r\n     * @param input The input to the proof.\r\n     */\r\n    function transfer(\r\n        address _sender,\r\n        address _receiver,\r\n        uint[2] memory a,\r\n        uint[2][2] memory b,\r\n        uint[2] memory c,\r\n        uint[2] memory input\r\n    ) public nonReentrant onlyOwner {\r\n        require(verifyProof(a, b, c, input), \"Invalid zk-SNARK proof\");\r\n        transactions[keccak256(abi.encodePacked(a, b, c, input))] = \r\n            Transaction(_sender, _receiver);\r\n    }\r\n}\r\n",
  "sourcePath": "/workspaces/AstraLink/contracts/zkSNARKsPrivacy.sol",
  "compiler": {
    "name": "solc",
    "version": "0.8.20+commit.a1b79de6.Emscripten.clang"
  },
  "schemaVersion": "3.4.16",
  "updatedAt": "2025-02-28T16:43:24.972Z",
  "devdoc": {
    "details": "This contract manages secure transactions using zk-SNARKs for proof verification.",
    "kind": "dev",
    "methods": {
      "owner()": {
        "details": "Returns the address of the current owner."
      },
      "renounceOwnership()": {
        "details": "Leaves the contract without owner. It will not be possible to call `onlyOwner` functions. Can only be called by the current owner. NOTE: Renouncing ownership will leave the contract without an owner, thereby disabling any functionality that is only available to the owner."
      },
      "transfer(address,address,uint256[2],uint256[2][2],uint256[2],uint256[2])": {
        "details": "Function to transfer funds with proof verification.",
        "params": {
          "_receiver": "The receiver address.",
          "_sender": "The sender address.",
          "a": "The first part of the proof.",
          "b": "The second part of the proof.",
          "c": "The third part of the proof.",
          "input": "The input to the proof."
        }
      },
      "transferOwnership(address)": {
        "details": "Transfers ownership of the contract to a new account (`newOwner`). Can only be called by the current owner."
      },
      "verifyProof(uint256[2],uint256[2][2],uint256[2],uint256[2])": {
        "details": "Function to verify the zk-SNARK proof.",
        "params": {
          "a": "The first part of the proof.",
          "b": "The second part of the proof.",
          "c": "The third part of the proof.",
          "input": "The input to the proof."
        },
        "returns": {
          "_0": "True if the proof is valid, false otherwise."
        }
      }
    },
    "stateVariables": {
      "transactions": {
        "details": "Mapping of proof to transaction struct."
      }
    },
    "title": "SecureTransactions",
    "version": 1
  },
  "userdoc": {
    "kind": "user",
    "methods": {},
    "version": 1
  }
}